:020000040800F2
:1000000068B30020D5010008F9290008D7250008A9
:10001000F5290008F9040008CD32000800000000AE
:10002000000000000000000000000000292A000875
:100030003905000800000000FD290008352A0008E5
:10004000EF010008EF010008EF010008EF010008D0
:10005000EF010008EF010008EF010008EF010008C0
:10006000EF010008EF010008EF010008EF010008B0
:10007000EF010008EF010008EF010008FD0400088F
:10008000EF010008EF010008EF010008EF01000890
:10009000EF010008EF010008EF010008EF01000880
:1000A000EF010008EF010008EF010008A52A000891
:1000B000B52A0008EF010008EF010008EF01000871
:1000C000EF010008EF010008EF010008EF01000850
:1000D000EF0100085D320008EF010008EF010008A1
:1000E000EF010008EF010008EF010008EF01000830
:1000F000EF010008EF010008C52A0008EF01000821
:10010000EF010008EF010008EF010008EF0100080F
:10011000EF010008EF010008EF010008EF010008FF
:10012000EF010008EF010008EF010008EF010008EF
:1001300000F002F800F03FF80AA090E8000C8244BA
:100140008344AAF10107DA4501D100F034F8AFF297
:10015000090EBAE80F0013F0010F18BFFB1A43F0A5
:10016000010318479C630000BC630000103A24BFE1
:1001700078C878C1FAD8520724BF30C830C144BF0C
:1001800004680C607047000000230024002500264E
:10019000103A28BF78C1FBD8520728BF30C148BFEA
:1001A0000B607047642900F07780002070471FB50E
:1001B0001FBD10B510BD00F071F91146FFF7F7FF34
:1001C00003F01EFA00F08FF903B4FFF7F2FF03BC4F
:1001D00003F04DF90948804709480047FEE7FEE76C
:1001E000FEE7FEE7FEE7FEE7FEE7FEE7FEE7FEE7E7
:1001F00004480549054A064B70470000A32A000839
:100200003101000868AD002068B3002068AF00200D
:1002100068AF0020704700000FB4044910B503AA6E
:10022000029800F005F910BC5DF814FB04000020F2
:100230002DE9F0410E460446002020622046E16888
:10024000884730B3252805D0D4E901219047206A9A
:10025000401CF2E7E168204600278847050018D0D7
:10026000A5F14100192802D820354FF40067324625
:10027000294620462760FFF795FF40B1012804D0AA
:10028000F61D26F007060836D8E7361DD6E72846BD
:10029000DAE7206ABDE8F0812DE9F0410646002446
:1002A00010687529314616A510D0AFF300800028DC
:1002B00002DA404213A507E031688A0701D512A58A
:1002C00002E0490704D511A5012401E0AFF3008045
:1002D00000210A2206F1240709E0B0FBF2FCB0FB82
:1002E000F2F302FB1C00303078541846491C0028F9
:1002F000F3D123462A463046BDE8F04100F03EB82F
:10030000000000002D0000002B0000002000000075
:100310004FF0000200B5134694469646203922BF9E
:10032000A0E80C50A0E80C50B1F12001BFF4F7AFE9
:10033000090728BFA0E80C5048BF0CC05DF804EBCB
:10034000890028BF40F8042B08BF704748BF20F839
:10035000022B11F0804F18BF00F8012B7047704737
:1003600070477047704710B500F074F8006810BD12
:1003700010B5044600F06EF8046010BD2DE9F0479A
:100380000D4699469246044600F124080168880605
:1003900004D5E06921F01001216000E00120A842AD
:1003A00001DD471B00E00027A1697A1902EB090073
:1003B000081AA0612078C00602D42046AFF300805E
:1003C000002608E0D4E901211AF806009047206AC7
:1003D000401C761C20624E45F4DB2078C0060AD50E
:1003E0002046AFF3008006E0D4E901213020904799
:1003F000206A401C2062381EA7F10107F4DC07E0E8
:10040000D4E9012118F805009047206A401C2062B9
:10041000281EA5F10105F3DC2046AFF3008020780B
:10042000000602D50220BDE8F0870120FBE70000AE
:10043000074B70B50D467B4400F015F8044628467E
:1004400000F024F810B14FF0FF3070BD204670BDB1
:100450007B3000000048704704AD002001694A1C51
:1004600002610878704700B58FB0CDE901310021F5
:10047000059105497944CDE9031011466846FFF717
:10048000D7FE0FB000BD0000E5FFFFFF007B00F0CE
:10049000800070470048704704AD00207546FFF7A4
:1004A000F9FFAE4605006946534620F00700854631
:1004B00018B020B5FFF79CFEBDE820404FF00006C5
:1004C0004FF000074FF000084FF0000B21F007013C
:1004D000AC46ACE8C009ACE8C009ACE8C009ACE87F
:1004E000C0098D46704710B50446AFF30080204622
:1004F000BDE81040FFF768BE00BFFEE710B5024838
:1005000000F01EF910BD0000A8AB002030B590F837
:1005100040500124AC40C56B6C6004686360446863
:10052000102C04D10468A2600468E16003E0046850
:10053000A1600468E26030BD704772B600BFFEE79C
:100540000146002291F82100022808D00420886387
:1005500000BF002081F8200000BF0120704708681C
:10056000006820F00E000B6818600868006820F032
:1005700001000B68186091F8403001209840CB6B67
:100580005860012081F8210000BF002081F8200080
:1005900000BF1046E2E7000070B50446002594F85D
:1005A0002100022803D00420A0630125C1E02068B7
:1005B000006820F00E00216808602068006820F0C4
:1005C0000100216808605C492068884252D95A4974
:1005D00078392068884201D1012047E056496439C2
:1005E0002068884201D1102040E0534950392068EA
:1005F000884201D1801539E04F493C392068884252
:1006000001D1801432E04C4928392068884202D157
:100610004FF480302AE0484914392068884202D1DA
:100620004FF4801022E044492068884201D1400400
:100630001CE042492068884201D1012016E03F4970
:1006400014312068884201D110200FE03B49283145
:100650002068884201D1801508E038493C31206883
:10066000884201D1801401E04FF480303349091FE2
:10067000086051E0304978392068884201D1012072
:1006800047E02D4964392068884201D1102040E0BC
:10069000294950392068884201D1801539E026491E
:1006A0003C392068884201D1801432E0224928393F
:1006B0002068884202D14FF480302AE01E49143964
:1006C0002068884202D14FF4801022E01A49206845
:1006D000884201D140041CE018492068884201D1B9
:1006E000012016E0154914312068884201D11020FC
:1006F0000FE0124928312068884201D1801508E0B6
:100700000E493C312068884201D1801401E04FF449
:100710008030094980394860012084F8210000BFF9
:10072000002084F8200000BF606B10B12046616B90
:100730008847284670BD000080000240080402403F
:1007400070B50446E06B05682068066894F84010B0
:10075000042088402840002875D006F004000028B6
:10076000FAD02068006800F0200028B920680068EE
:1007700020F0040021680860D5492068884254D9D7
:10078000D34978392068884201D1042049E0D04912
:1007900064392068884201D1402042E0CC49503978
:1007A0002068884201D100153BE0C9493C392068E6
:1007B000884202D14FF4804033E0C549283920688F
:1007C000884202D14FF480202BE0C14914392068BF
:1007D000884202D14FF4800023E0BD49206888425E
:1007E00001D1C0041DE0BB492068884201D104202A
:1007F00017E0B84914312068884201D1402010E048
:10080000B44928312068884201D1001509E0B14976
:100810003C312068884202D14FF4804001E04FF41F
:100820008020AC49091F086054E0A9497839206844
:10083000884201D104204AE0A549643920688842F1
:1008400002D1402043E04CE0A14950392068884261
:1008500001D100153BE09E493C392068884202D115
:100860004FF4804033E09A4928392068884202D109
:100870004FF480202BE0964914392068884202D139
:100880004FF4800023E092492068884201D1C004DF
:100890001DE090492068884201D1042017E08D496D
:1008A00014312068884201D1402010E08949283164
:1008B0002068884201D1001509E086493C31206852
:1008C000884202D14FF4804001E04FF480208049FB
:1008D00080394860E06A002802D02046E16A8847F3
:1008E000F4E094F84010022088402840002871D09D
:1008F00006F002000028FAD02068006800F020000E
:1009000040B92068006820F00A00216808600120D2
:1009100084F821006E492068884254D96C4978399E
:100920002068884201D1022049E069496439206881
:10093000884201D1202042E0654950392068884230
:1009400001D140153BE062493C392068884202D120
:100950004FF4005033E05E4928392068884202D1C4
:100960004FF400302BE05A4914392068884202D1F4
:100970004FF4001023E056492068884201D18004DA
:100980001DE054492068884201D1022017E05149F6
:1009900014312068884201D1202010E04D492831CF
:1009A0002068884201D1401509E04A493C3120685D
:1009B000884202D14FF4005001E04FF40030454925
:1009C000091F086054E0424978392068884202D102
:1009D00002204AE057E03E4964392068884201D14C
:1009E000202042E03A4950392068884201D1401520
:1009F0003BE037493C392068884202D14FF400502F
:100A000033E0334928392068884202D14FF400305E
:100A10002BE02F4914392068884202D14FF400108E
:100A200023E02B492068884201D180041DE0294938
:100A30002068884201D1022017E02649143120683D
:100A4000884201D1202010E02249283120688842C4
:100A500001D1401509E01F493C312068884202D18C
:100A60004FF4005001E04FF40030194980394860DC
:100A700000BF002084F8200000BFA06A30B32046E9
:100A8000A16A884722E094F8401008208840284056
:100A9000E0B106F00800C8B12068006820F00E0040
:100AA0002168086094F8401001208840E16B48609C
:100AB0000120A06384F8210000BF002084F82000FA
:100AC00000BF206B10B12046216B884770BD00002D
:100AD00080000240080402400146002209B90120BA
:100AE00070471E4B086898420BD21D4B0868C01A0D
:100AF0001423B0FBF3F08000086419480838C86379
:100B00000AE0164B0868C01A1423B0FBF3F080000B
:100B1000086412480838C863022081F82100086878
:100B2000026843F6F0708243D1E901031843CB68B1
:100B300018430B6918434B6918438B691843CB69F9
:100B4000184302430868026000208863012081F88E
:100B50002100002081F8200000BFC1E70804024006
:100B6000080002402DE9F04104460D4616461F4696
:100B70004FF0000800BF94F82000012802D10220A5
:100B8000BDE8F081012084F8200000BF94F8210026
:100B900001282CD1022084F821000020A0632068C5
:100BA000006820F00100216808603B463246294673
:100BB0002046FFF7ABFCE06A30B12068006840F0E7
:100BC0000E00216808600BE02068006820F0040037
:100BD000216808602068006840F00A002168086009
:100BE0002068006840F001002168086006E000BF4E
:100BF000002084F8200000BF4FF002084046BFE705
:100C000070B5044600F0BEF906462546681C10B1D2
:100C100004480078054400BF00F0B4F9801BA842E6
:100C2000FAD370BD100000202DE9F84702460023DA
:100C30009C467BE14FF0010808FA03F4D1F80080EC
:100C400008EA0400A0427DD1DFF8F4A2D1F80480C4
:100C5000A8EB0A09D0453AD014DCB8F1030F50D004
:100C600009DCB8F1000F31D0B8F1010F1CD0B8F198
:100C7000020F49D120E0B8F1110F18D0B8F1120FCE
:100C800042D11EE0B9F5881F25D006DCB9F5803FBA
:100C900020D0B9F5801F37D11AE0B9F5001F18D060
:100CA000B9F5041F30D117E0D1F80CC02DE0D1F810
:100CB0000C8008F1040C28E0D1F80C8008F1080C35
:100CC00023E0D1F80C8008F10C0C1EE000BF00BF3F
:100CD00000BF00BF00BF00BFD1F80880B8F1000F0F
:100CE00002D14FF0040C0BE0D1F80880B8F1010FED
:100CF00003D14FF0080C146102E04FF0080C54616E
:100D000003E04FF0000C00E000BF00BFFF2801D857
:100D1000904601E002F104084646FF2802D84FEA57
:100D2000830803E0A3F108084FEA88084746D6F88D
:100D300000804FF00F0909FA07F928EA09080CFAB0
:100D400007F900E07AE048EA0908C6F80080D1F81F
:100D5000048008F08058B8F1805F6FD100BFDFF8E1
:100D6000E481D8F8188048F00108DFF8D891C9F874
:100D70001880C846D8F8188008F00108CDF800801F
:100D800000BF00BF4FEAB9384FEA930958F829501D
:100D90004FEA83784FEA18794FF00F0808FA09F8FC
:100DA00025EA0805DFF8A081424502D14FF000088E
:100DB00024E0DFF89881424502D14FF001081DE0A0
:100DC000DFF88C81424502D14FF0020816E0DFF8CF
:100DD0008481424502D14FF003080FE0DFF87881AB
:100DE000424502D14FF0040808E0DFF87081424527
:100DF00002D14FF0050801E04FF006084FEA837971
:100E00004FEA197908FA09F848EA0505DFF8508130
:100E10004FEA930948F82950D1F8048008F4801863
:100E2000B8F5801F0BD1DFF83C81D8F8008048EA84
:100E30000008DFF83091C9F800800AE075E0DFF8BB
:100E40002481D8F8008028EA0008DFF81891C9F852
:100E50000080D1F8048008F40018B8F5001F0ED106
:100E6000DFF8008108F10408D8F8008048EA00089B
:100E7000DFF8F09009F10409C9F800800DE0DFF80F
:100E8000E48008F10408D8F8008028EA0008DFF8B8
:100E9000D49009F10409C9F80080D1F8048008F45D
:100EA0000038B8F5003F0ED1DFF8B880A8F104088B
:100EB000D8F8008048EA0008DFF8A890A9F10409F2
:100EC000C9F800800DE0DFF89C80A8F10408D8F88C
:100ED000008028EA0008DFF88C90A9F10409C9F81D
:100EE0000080D1F8048008F48038B8F5803F0ED136
:100EF000DFF87080A8F10808D8F8008048EA0008F8
:100F0000DFF86090A9F10809C9F800800DE0DFF86A
:100F10005480A8F10808D8F8008028EA0008DFF813
:100F20004490A9F10809C9F800805B1CD1F8008041
:100F300028FA03F8B8F1000F7FF47CAEBDE8F8871B
:100F4000000011100010024000080140000C014098
:100F5000001001400014014000180140001C014035
:100F60000800014008040140024693680B400BB1A1
:100F7000012000E0002070470AB1016101E00B048C
:100F800003617047014800687047000008000020B6
:100F9000034800680349097808440149086070471C
:100FA000080000201000002010B50848006840F03C
:100FB000100006490860032000F0A8F80F2000F098
:100FC00007F800F02BF8002010BD000000200240C0
:100FD00070B504460E4800784FF47A71B1FBF0F01A
:100FE0000C490968B1FBF0F5284600F0F9FB08B19F
:100FF000012070BD102C07D200222146501E00F0A7
:1010000047F80548046001E00120F2E70020F0E71E
:1010100010000020140000200C00002008B500BFC4
:101020001148806940F001000F49886108468069D5
:1010300000F00100009000BF00BF00BF0846C0697B
:1010400040F08050C8610846C06900F080500090B0
:1010500000BF00BF00BF0549486820F0E06040F0D5
:101060000070486000BF08BD001002400000014051
:1010700001460846002809DB00F01F0301229A40C0
:1010800043099B0003F1E023C3F8002100BF704730
:101090002DE9F05F80460D461646002702F040F924
:1010A000074639462A46334601F00700C0F1070AD1
:1010B000BAF1040F02D94FF0040A01E0C0F1070AA7
:1010C000D14600F1040ABAF1070F02D24FF0000A2C
:1010D00001E0A0F1030AD4464FF0010A0AFA09FA26
:1010E000AAF1010A0AEA020A0AFA0CFA4FF0010B05
:1010F0000BFA0CFBABF1010B0BEA030B4AEA0B04F6
:101100002146404602F014F9BDE8F09F00BF00F010
:101110000702064B19684FF6FF031940044B0B43B7
:1011200043EA0221014B196000BF70470CED00E05B
:101130000000FA0570B504460D460CB9012070BDDB
:101140005A48006800F00700A8420ED257480068CD
:1011500020F007002843554908600846006800F061
:101160000700A84201D00120E9E7207800F0020042
:1011700002281DD1207800F00400042805D14C4835
:10118000406840F4E0604A494860207800F0080078
:10119000082805D14648406840F4605044494860FA
:1011A0004348406820F0F000A16808434049486087
:1011B000207800F0010078B36068012806D13C482F
:1011C000006800F4003090B90120B8E76068022898
:1011D00006D13748006800F0007040B90120AEE742
:1011E0003348006800F0020008B90120A7E7304842
:1011F000406820F00300616808432D494860FFF70C
:10120000C1FE064609E0FFF7BDFE801B41F28831B2
:10121000884202D9032092E707E02548406800F0A1
:101220000C006168B0EB810FEDD12048006800F040
:101230000700A8420ED91D48006820F00700284387
:101240001A4908600846006800F00700A84201D06B
:10125000012074E7207800F00400042807D1144826
:10126000406820F4E060E168084311494860207854
:1012700000F00800082808D10D48406820F46050AC
:10128000216940EAC1000A49486000F03FF8084976
:101290004968C1F30311074A515CC8400649086018
:1012A00006480068FFF794FE002048E7002002404F
:1012B0000010024018630008140000200C000020F9
:1012C00001480068704700001400002000B5FFF7D7
:1012D000F7FF04494968C1F30221034A515CC84041
:1012E00000BD0000001002402863000800B5FFF7B1
:1012F000E7FF04494968C1F3C221034A515CC84071
:1013000000BD0000001002402863000870B50021F5
:101310000022002400230020134D696801F00C0511
:10132000F5B1042D02D0082D19D101E00F4819E0C4
:101330000F4DC1F38346AB5D01F4803555B10A4DC5
:101340006D68C5F340450B4E725D084D5D43B5FBBE
:10135000F2F402E0084D03FB05F4204602E000BF72
:10136000024800BF00BF70BD0010024000127A00AA
:10137000066300081663000800093D00F8B504463E
:101380000CB90120F8BD207800F00100002878D0C9
:10139000F848406800F00C0004280CD0F54840687C
:1013A00000F00C00082811D1F248406800F48030A9
:1013B000B0F5803F0AD1EF48006800F40030002803
:1013C0005FD0606800285CD10120DBE700BF606867
:1013D000B0F5803F06D1E748006840F48030E54929
:1013E000086028E0606858B9E248006820F480305E
:1013F000E04908600846006820F4802008601AE090
:101400006068B0F5A02F0BD1DA48006840F4802066
:10141000D84908600846006840F4803008600AE057
:10142000D448006820F48030D2490860084600683B
:1014300020F48020086000BF606888B1FFF7A2FD3B
:10144000054606E0FFF79EFD401B642801D90320F6
:1014500098E7C848006800F400300028F2D010E097
:10146000FFF790FD054606E0FFF78CFD401B642862
:1014700001D9032086E7BF48006800F40030002847
:10148000F2D1207800F00200022857D1B948406814
:1014900000F00C0050B1B748406800F00C0008287C
:1014A00018D1B448406800F4803098B9B148006859
:1014B00000F0020020B12069012801D0012061E77D
:1014C000AC48006820F0F800616940EAC100A94911
:1014D000086033E02069E8B10120A7490860FFF700
:1014E00051FD054606E0FFF74DFD401B022801D9DE
:1014F000032047E79F48006800F002000028F2D070
:101500009C48006820F0F800616940EAC1009949F0
:10151000086013E0002098490860FFF733FD054696
:1015200006E0FFF72FFD401B022801D9032029E721
:101530009048006800F002000028F2D1207800F006
:10154000080008282DD1A069B8B101208B49086096
:10155000FFF718FD054606E0FFF714FD401B0228C3
:1015600001D903200EE78348406A00F002000028FA
:10157000F2D0012001F044FA13E000207F49086016
:10158000FFF700FD054606E0FFF7FCFC401B0228C4
:1015900001D90320F6E67748406A00F002000028EF
:1015A000F2D1207800F00400042873D1002771489C
:1015B000C06900F0805070B900BF6E48C06940F04B
:1015C00080506C49C8610846C06900F080500090A6
:1015D00000BF00BF01276A48006800F48070B0B9FE
:1015E0006748006840F4807065490860FFF7CAFCEE
:1015F000054606E0FFF7C6FC401B642801D903201E
:10160000C0E65F48006800F480700028F2D000BF98
:10161000E068012806D15748006A40F001005549AA
:10162000086227E0E06858B95248006A20F00100DB
:10163000504908620846006A20F00400086219E078
:10164000E06805280BD14B48006A40F00400494986
:1016500008620846006A40F0010008620AE0454856
:10166000006A20F00100434908620846006A20F041
:101670000400086200BFE068A0B1FFF783FC0546E4
:1016800009E0FFF77FFC401B41F28831884202D914
:10169000032077E622E03748006A00F002000028C5
:1016A000EFD012E0FFF76EFC054608E0FFF76AFC9A
:1016B000401B41F28831884201D9032062E62D485F
:1016C000006A00F002000028F0D1012F05D129485E
:1016D000C06920F080502749C86100BFE069C8B3E5
:1016E0002448406800F00C00082860D0E069022817
:1016F00048D1002020490866FFF744FC054606E073
:10170000FFF740FC401B022801D903203AE61948A4
:10171000006800F000700028F2D1206AB0F5803F28
:1017200007D11448406820F40030A16808431149EB
:101730004860D4E9080108430E49496821F474114E
:1017400008430C49486001200B490866FFF71AFC62
:10175000054607E03DE0FFF715FC401B022801D9D4
:1017600003200FE60348006800F000700028F2D064
:101770002FE000000010024000004242800442427C
:1017800000700040002014490866FFF7FBFB054687
:1017900006E0FFF7F7FB401B022801D90320F1E523
:1017A0000E48006800F000700028F2D111E0E069F6
:1017B000012800D1E6E50948466806F48031206A30
:1017C000814204D106F47011606A814201D0012087
:1017D000D8E50020D6E5000000004242001002409B
:1017E00070B504462546681EB0F1807F01D3012004
:1017F0000FE0681E4FF0E02148610F214FF0FF30ED
:1018000001F096FD00204FF0E0218861072008617B
:10181000002070BD7047704710B50346002200BF1E
:1018200093F83C00012801D1022010BD012083F86B
:101830003C0000BF22F0FF00CC6840EA040222F422
:1018400040708C6840EA040222F480604C6840EAF0
:10185000040222F400600C6840EA040222F4805082
:101860000C6940EA040222F400504C6940EA040288
:1018700022F48040CC6940EA04021868426400BF48
:10188000002083F83C0000BF00BFCEE730B5024621
:101890000B4600BF92F83C00012801D1022030BD68
:1018A000012082F83C0000BF022082F83D00106851
:1018B00044681068816824F0700418680443106854
:1018C0004460144D1068A84213D0134D1068A8420C
:1018D0000FD01068B0F1804F0BD0104D1068A842A7
:1018E00007D00F4D1068A84203D00E4D1068A842D3
:1018F00005D121F080015868014310688160012002
:1019000082F83D0000BF002082F83C0000BF00BF0D
:10191000C5E70000002C01400034014000040040F5
:1019200000080040000C004010B504460CB901202E
:1019300010BD94F83D0028B9002084F83C002046F2
:1019400000F026F8022084F83D00211D206801F0F7
:10195000C1F8012084F8460000BF84F83E00012150
:101960003F200155402001554120015500BF00BFD7
:10197000012084F8420043200155442001554520B0
:10198000015500BF012084F83D000020D0E7000091
:1019900008B5094A016891420DD100BF0749C969DC
:1019A00041F01001054AD1611146C96901F01001E9
:1019B000009100BF00BF08BD0010004000100240B1
:1019C000014691F83D00012801D001207047022016
:1019D00081F83D00164B0868984213D0154B0868F3
:1019E00098420FD00868B0F1804F0BD0124B0868B6
:1019F000984207D0114B0868984203D0104B0868F2
:101A000098420CD10868806800F00702062A0CD0C2
:101A10000868006840F001000B68186005E008687D
:101A2000006840F001000B6818600020CEE700005D
:101A3000002C014000340140000400400008004038
:101A4000000C0040704710B5044620680069C0F3E0
:101A50004000D8B12068C068C0F34000B0B16FF05A
:101A6000020021680861012020772068806900F069
:101A7000030018B12046FFF7E5FF05E0204600F01F
:101A800067F9204600F02CFB0020207720680069D1
:101A9000C0F38000D8B12068C068C0F38000B0B146
:101AA0006FF00400216808610220207720688069B7
:101AB00000F4407018B12046FFF7C4FF05E020464F
:101AC00000F046F9204600F00BFB0020207720684C
:101AD0000069C0F3C000D8B12068C068C0F3C0007E
:101AE000B0B16FF0080021680861042020772068F9
:101AF000C06900F0030018B12046FFF7A3FF05E01E
:101B0000204600F025F9204600F0EAFA0020207770
:101B100020680069C0F30010D8B12068C068C0F325
:101B20000010B0B16FF01000216808610820207724
:101B30002068C06900F4407018B12046FFF782FFAA
:101B400005E0204600F004F9204600F0C9FA002024
:101B500020772068006900F0010058B12068C06853
:101B600000F0010030B16FF00100216808612046EB
:101B700000F0B7FA20680069C0F3C01058B12068BF
:101B8000C068C0F3C01030B16FF0800021680861F8
:101B90002046FFF73FFE20680069C0F3801058B16F
:101BA0002068C068C0F3801030B16FF04000216839
:101BB0000861204600F096FA20680069C0F34010E2
:101BC00058B12068C068C0F3401030B16FF02000F9
:101BD000216808612046FFF71EFE10BD10B586B0D3
:101BE0000446002002900390049005903549206837
:101BF000884221D100BF3448806940F0400032491A
:101C000088610846806900F04000019000BF00BF75
:101C10004815029002200390059002A92B48FFF777
:101C200003F800BF2A49486820F0C00040F0E06097
:101C300040F0C000486042E02068B0F1804F22D1FF
:101C400000BF2148806940F004001F4988610846B0
:101C5000806900F00400019000BF00BF4FF4004015
:101C6000029002200390059002A91A48FEF7DCFFBB
:101C700000BF1749486820F4407040F0E06040F42D
:101C8000807048601BE014492068884217D100BF6B
:101C90000D48806940F010000B4988610846806952
:101CA00000F01000019000BF00BF40200290022011
:101CB00003900320059002A90848FEF7B5FF06B07F
:101CC00010BD0000002C014000100240001801402F
:101CD00000000140000801400034014000100140B4
:101CE0002DE9F04104460E461546002700BF94F842
:101CF0003C00012802D10220BDE8F081012084F8D7
:101D00003C0000BF35B1042D09D0082D0CD00C2D9E
:101D100014D10EE03146206800F03CFF10E031465F
:101D2000206800F06FFF0BE03146206800F0A8FF4C
:101D300006E03146206800F0DFFF01E0012700BF28
:101D400000BF00BF002084F83C0000BF3846D3E746
:101D500010B5044607492068884203D1064801F0BF
:101D6000E3FD06E005492068884202D1044801F0FD
:101D7000DBFD10BD0034014024AC0020002C0140EC
:101D80005CAC002010B504460CB9012010BD94F8DD
:101D90003D0028B9002084F83C00204600F026F8D9
:101DA000022084F83D00211D206800F093FE0120F0
:101DB00084F8460000BF84F83E0001213F20015511
:101DC000402001554120015500BF00BF012084F88B
:101DD000420043200155442001554520015500BFD4
:101DE000012084F83D000020D0E7000038B504460B
:101DF00028492068884216D100BF2748806940F4EE
:101E00000060254988610846806900F40060009000
:101E100000BF00BF002202211B20FFF739F91B2061
:101E2000FFF726F934E02068B0F1804F16D100BFEB
:101E30001948C06940F001001749C8610846C069E7
:101E400000F00100009000BF00BF002202211C2012
:101E5000FFF71EF91C20FFF70BF919E00F49206866
:101E6000884215D100BF0C48806940F400500A49EF
:101E700088610846806900F40050009000BF00BFF0
:101E8000002202212E20FFF703F92E20FFF7F0F8A1
:101E900038BD0000002C0140001002400034014019
:101EA000F0B504460D46002615B994F83E000BE047
:101EB000042D02D13F20005D06E0082D02D1402014
:101EC000005D01E04120005D012801D00120F0BD4E
:101ED0001DB9022084F83E000EE0042D03D102213A
:101EE0003F20015508E0082D03D102214020015573
:101EF00002E002214120015535B1042D0BD0082DFF
:101F000010D00C2D1CD114E02068C06840F00200F5
:101F10002168C86016E02068C06840F004002168AD
:101F2000C8600FE02068C06840F008002168C86001
:101F300008E02068C06840F010002168C86001E037
:101F4000012600BF00BFD6BB01222946206800F051
:101F50000FFE1F492068884203D01E49206888422E
:101F600001D1012000E0002028B12068406C40F43D
:101F700000402168486416492068884213D01549FA
:101F8000206888420FD02068B0F1804F0BD01249F2
:101F90002068884207D011492068884203D0104940
:101FA000206888420CD12068806800F00707062F5F
:101FB0000CD02068006840F001002168086005E04E
:101FC0002068006840F001002168086030467EE724
:101FD000002C014000340140000400400008004093
:101FE000000C004070B504460D46002635B1042DA6
:101FF0000BD0082D10D00C2D1CD114E02068C06827
:1020000020F002002168C86016E02068C06820F057
:1020100004002168C8600FE02068C06820F0080054
:102020002168C86008E02068C06820F010002168BE
:10203000C86001E0012600BF00BF002E4AD1002287
:102040002946206800F094FD23492068884203D087
:1020500022492068884201D1012000E0002090B18F
:1020600000BF2068006A41F21111084050B9206891
:10207000006A8910084028B92068406C20F40040AC
:102080002168486400BF00BF2068006A41F2111156
:10209000084050B92068006A8910084028B92068B3
:1020A000006820F001002168086000BF1DB9012010
:1020B00084F83E000EE0042D03D101213F2001559C
:1020C00008E0082D03D101214020015502E0012143
:1020D00041200155304670BD002C014000340140C4
:1020E000704770477047704770B5044600252068F8
:1020F0004069C0F3C01594F84100212817D1B5B14B
:1021000000BF00BF2168143151E8001F21F080009A
:102110002168143141E80002002AF3D100BFA06B0E
:1021200010B1A06BFEF70CFA204600F0F3FE206819
:102130004069C0F3801594F84200222817D1B5B148
:1021400000BF00BF2168143151E8001F21F040009A
:102150002168143141E80002002AF3D100BFE06B8E
:1021600010B1E06BFEF7ECF9204600F08DFE002088
:1021700070BD70472DE9F84F044620680568206857
:10218000C668206847694FF00009CA4605F00F0984
:10219000B9F1000F0AD105F0200038B106F0200097
:1021A00020B1204600F0C9FEBDE8F88FB9F1000F5C
:1021B0007BD007F0010018B906F49070002874D0A5
:1021C00005F0010030B106F4807018B1606C40F089
:1021D0000100606405F0040030B107F0010018B19F
:1021E000606C40F00200606405F0020030B107F05E
:1021F000010018B1606C40F00400606405F0080054
:1022000048B106F0200010B907F0010018B1606C69
:1022100040F008006064606C002845D005F02000A4
:1022200028B106F0200010B1204600F086FE20689C
:102230004069C0F3801A606C00F0080010B9BAF170
:10224000000F2CD0204600F01FFE2068406900F0EF
:10225000400000B300BF00BF2168143151E8001FE7
:1022600021F040002168143141E80002002AF3D136
:1022700000BFE06B50B17748E16B4863E06BFEF75D
:102280008BF988B1E06B416B88470DE02046FFF782
:1022900070FF09E009E02046FFF76BFF04E02046ED
:1022A000FFF767FF002060647EE7206B012877D18D
:1022B00005F01000002873D006F010000028FAD0B6
:1022C00000BF0020009020680068009020684068EF
:1022D000009000BF00BF2068406900F04000002867
:1022E0005FD0E06B006840681FFA80F8B8F1000F1B
:1022F00055D0A08D404552DDA4F82E80E06B80695A
:10230000202843D000BF00BF21680C3151E8001FD6
:1023100021F4807021680C3141E80002002AF3D1D9
:1023200000BF00BF00BF2168143151E8001F21F039
:1023300001002168143141E80002002AF3D100BFF6
:1023400000BF00BF2168143151E8001F21F0400098
:102350002168143141E80002002AF3D100BF202097
:1023600084F842000020206300BF00BF21680C31C8
:1023700051E8001F21F0100021680C3141E80002F3
:10238000002AF3D100BFE06BFEF7DAF802206063A9
:10239000A08DE28D801A81B22046FFF7A4FE03E7EC
:1023A00042E0A08DE18D401A1FFA80F8E08DD0B395
:1023B000B8F1000F37D000BF00BF21680C3151E8E1
:1023C000001F21F4907021680C3141E80002002ABE
:1023D000F3D100BF00BF00BF2168143151E8001FD6
:1023E00021F001002168143141E80002002AF3D1F4
:1023F00000BF202084F842000020206300BF00BFFF
:1024000021680C3151E8001F21F0100021680C31C7
:1024100041E80002002AF3D100BF02206063414678
:102420002046FFF760FEBFE605F0800030B106F001
:10243000800018B1204600F0E1FEB5E605F040004E
:1024400030B106F0400018B1204600F053FDABE675
:1024500000BFA9E64D2D000810B504460CB90120B7
:1024600010BDA06900B100E000BF94F8410028B998
:10247000002084F84000204600F02AF8242084F848
:1024800041002068C06820F400502168C8602046E0
:1024900000F0D2FD2068006920F4904021680861B6
:1024A0002068406920F02A00216848612068C068DF
:1024B00040F400502168C86000206064202084F847
:1024C000410084F842000020606300BFC8E70000BC
:1024D00010B586B004460020029003900490059049
:1024E0002B492068884251D100BF2A48806940F4B6
:1024F0008040284988610846806900F48040019046
:1025000000BF00BF00BF0846806940F0040088613A
:102510000846806900F00400019000BF00BF481524
:102520000290022003900320059002A91A48FEF7AA
:102530007BFB4FF48060029000200390049002A97E
:102540001548FEF771FB15481549086000204860E2
:102550000021134881608021C16000210161416137
:1025600081614FF48051C161FEF7B6FA08B1FDF701
:10257000E4FF00BF0A48E063446200BF0022032179
:102580002520FEF785FD2520FEF772FD06B010BD63
:10259000003801400010024000080140580002408D
:1025A000A8AB002070B504460D46164694F84200CC
:1025B00020280BD105B10EB9012070BD0020206389
:1025C00032462946204600F0B5FDF6E70220F4E742
:1025D00070477047704700BFFEE7000008B500BFB6
:1025E0000A48406940F001000849486108464069CE
:1025F00000F00100009000BF00BF002204210F2066
:10260000FEF746FD0F20FEF733FD08BD0010024027
:1026100000B585B00020019002900390049000BFA7
:102620004948806940F04000474988610846806910
:1026300000F04000009000BF00BF00BF0846806966
:1026400040F0800088610846806900F080000090BA
:1026500000BF00BF00BF0846806940F004008861E9
:102660000846806900F00400009000BF00BF00BF72
:102670000846806940F0100088610846806900F0D3
:102680001000009000BF00BF00BF0846806940F006
:10269000080088610846806900F00800009000BFCB
:1026A00000BF012220212948FEF766FC00224021BC
:1026B0002748FEF761FC012280212548FEF75CFCDB
:1026C000012220212348FEF757FC00224FF480719D
:1026D0002048FEF751FC18200190002002900120B4
:1026E000039001A91948FEF79FFA202001900120CC
:1026F000029003900320049001A91448FEF794FA75
:10270000C02001900120029000200390032004903B
:1027100001A90F48FEF788FA0120019000200290DD
:102720000220039001A90C48FEF77EFA4FF4907046
:1027300001900120029003900320049001A9054814
:10274000FEF772FA05B000BD00100240001801400B
:10275000001C0140000C01400008014000B591B090
:1027600000200F9010901C2108A8FDF7D1FD20211A
:102770006846FDF7CDFD25482549086011204860D1
:102780000021234881604FF6FE71C1600021016184
:1027900041618161FFF7F6FA08B1FDF7CEFE002036
:1027A0000F9010900FA91A48FFF770F808B1FDF7C5
:1027B000C4FE302008904FF4FA70099000200A906F
:1027C0000B900C900D900E90002208A91048FFF776
:1027D00087FA08B1FDF7B1FE002000900190029049
:1027E000039004904FF40050059000200790694634
:1027F0000748FFF711F808B1FDF79FFE0448FFF7FF
:10280000DFF80348FFF7EAF911B000BD002C0140E2
:1028100040AA002000B589B00020079008901C2134
:102820006846FDF775FD4FF080401A490860112099
:1028300048600021174881604FF6FE71C160002199
:1028400001618161FFF79EFA08B1FDF776FE002075
:102850000790089007A90F48FFF718F808B1FDF78F
:102860006CFE302000904FF4FA700190002002902E
:102870000490002269460748FFF732FA08B1FDF7D5
:102880005CFE0448FFF79CF80248FFF7A7F909B07F
:1028900000BD000088AA00201CB500200090019017
:1028A0000F48104908604720486000210D488160AA
:1028B00042F21071C16000218161FFF735F808B163
:1028C000FDF73BFE00200090019069460548FEF7A9
:1028D000DDFF08B1FDF731FE0248FFF771F81CBDBE
:1028E00000100040D0AA002000B591B000200F9049
:1028F00010901C2108A8FDF70BFD20216846FDF76C
:1029000007FD25482549086011204860002123481B
:1029100081604FF6FE71C1600021016141618161FA
:10292000FFF730FA08B1FDF708FE00200F90109075
:102930000FA91A48FEF7AAFF08B1FDF7FEFD3020E7
:1029400008904FF4FA70099000200A900B900C90B8
:102950000D900E90002208A91048FFF7C1F908B1A8
:10296000FDF7EBFD00200090019002900390049091
:102970004FF4005005900020079069460748FEF785
:102980004BFF08B1FDF7D9FD0448FFF719F80348DC
:10299000FFF724F911B000BD0034014018AB00204E
:1029A00010B51148114908604FF4165048600021D5
:1029B0000E488160C16001610C214161002181618B
:1029C000C161FFF749FD08B1FDF7B7FD0748006891
:1029D000C06840F0100005490968C8600A2204492F
:1029E0000248FFF7DFFD10BD0038014060AB00205A
:1029F00018AC002000BFFEE700BFFEE770470000F4
:102A000008B508490968C9084FF47A72B1FBF2F1B8
:102A10004143009100BF00BF00994A1E0092002967
:102A2000F9D108BD14000020704700210160416009
:102A30008160704710B5FEF7ABFA10BD00B58FB0DE
:102A4000282105A8FDF764FC14216846FDF760FC09
:102A500001200590000406900020079001200990B5
:102A600002200C90C1030D914FF4E0110E9105A8C6
:102A7000FEF784FC08B1FDF760FD0F2000900220F6
:102A80000190002002904FF4806003900020049099
:102A900002216846FEF74EFB08B1FDF74EFD0FB070
:102AA00000BD704710B50248FEF7CDFF10BD000015
:102AB00040AA002010B50248FEF7C5FF10BD000077
:102AC00088AA002010B50248FEF7BDFF10BD000027
:102AD00018AB002010B50268204B98420ED0204B56
:102AE00098420BD0B0F1804F08D01E4B984205D0D1
:102AF0001D4B984202D01D4B984203D122F0700228
:102B00004B681A43154B98420ED0154B98420BD088
:102B1000B0F1804F08D0134B984205D0124B984229
:102B200002D0124B984203D122F44072CB681A4370
:102B300022F080034C6943EA040202608B68C3629E
:102B40000B688362054B984202D0054B984201D135
:102B50000B6903630123436110BD0000002C014099
:102B6000003401400004004000080040000C004018
:102B700030B501F01F05012404FA05F3046A9C43F3
:102B80000462046A01F01F0502FA05F52C43046291
:102B900030BD000030B5026A056A25F00105056206
:102BA0004368846924F0700424F003040D682C4306
:102BB00022F002028D682A43104DA84200D103E0A2
:102BC0000F4DA84206D100BF22F00802CD682A436B
:102BD00022F00402094DA84202D0094DA84207D1B3
:102BE00023F4807323F400734D692B438D692B43C9
:102BF000436084614D684563026230BD002C014032
:102C00000034014030B5026A056A25F010050562FE
:102C10004368846924F4E04424F440740D6844EA71
:102C2000052422F020028D6842EA0512124DA842C6
:102C300000D103E0114DA84207D100BF22F080026D
:102C4000CD6842EA051222F040020B4DA84202D0A4
:102C50000A4DA84209D123F4806323F400634D692F
:102C600043EA85038D6943EA8503436084614D68C7
:102C70008563026230BD0000002C01400034014039
:102C800030B5026A056A25F4807505624368C46937
:102C900024F0700424F003040D682C4322F4007225
:102CA0008D6842EA0522124DA84200D103E0114D81
:102CB000A84207D100BF22F40062CD6842EA052293
:102CC00022F480620A4DA84202D00A4DA84209D1DE
:102CD00023F4805323F400534D6943EA05138D69AF
:102CE00043EA05134360C4614D68C563026230BDA9
:102CF000002C01400034014030B5036A056A25F418
:102D0000805505624468C26922F4E04222F44072B0
:102D10000D6842EA052223F400538D6843EA053327
:102D2000084DA84202D0084DA84204D124F48044A2
:102D30004D6944EA85144460C2614D6805640362CC
:102D400030BD0000002C01400034014070B5054644
:102D50006C6A0020E085E0842046FFF70AFA70BD27
:102D600070B506460025746A20684069C0F3C01536
:102D700094F84100212805D125B10020E0842046A7
:102D800000F0C8F820684069C0F3801594F842004C
:102D9000222805D125B10020E085204600F074F8F6
:102DA000606C40F0100060642046FFF7E2F970BDEF
:102DB00070B505466C6A2868006800F0200000289D
:102DC00042D1E08500BF00BF21680C3151E8001FEF
:102DD00021F4807021680C3141E80002002AF3D10F
:102DE00000BF00BF00BF2168143151E8001F21F06F
:102DF00001002168143141E80002002AF3D100BF2C
:102E000000BF00BF2168143151E8001F21F04000CD
:102E10002168143141E80002002AF3D100BF2020CC
:102E200084F84200206B01280ED100BF00BF21684A
:102E30000C3151E8001F21F0100021680C3141E8ED
:102E40000002002AF3D100BF00206063206B01283C
:102E500004D1A18D2046FFF746F902E02046FFF796
:102E6000B7FB70BD70B505466C6A01206063206BCE
:102E7000012805D1A08D41082046FFF734F902E072
:102E80002046FFF7A6FB70BD00BF00BF02680C32F2
:102E900052E8002F22F4907102680C3242E80013CD
:102EA000002BF3D100BF00BF00BF0268143252E80C
:102EB000002F22F001010268143242E80013002BB7
:102EC000F3D100BF016B01290ED100BF00BF026822
:102ED0000C3252E8002F22F0100102680C3242E856
:102EE0000013002BF3D100BF202180F842100021F5
:102EF0000163704710B504462068C06820F04000A8
:102F00002168C860202084F841002046FFF762FB5A
:102F1000002010BD00BF00BF02680C3252E8002F35
:102F200022F0C00102680C3242E80013002BF3D1FA
:102F300000BF202180F841107047F8B5044694F88E
:102F40004200222875D1A068B0F5805F0CD12069BD
:102F500050B90025A66A20684068C0F30800308098
:102F6000A06A801CA06215E0A56A0026A068B0F5E2
:102F7000805F03D0A06828B9206918B9206840682C
:102F8000287004E02068406800F07F002870A06A84
:102F9000401CA062E08D401E80B2E085002846D132
:102FA0002068C06820F020002168C8602068C068E0
:102FB00020F480702168C8602068406920F001001A
:102FC00021684861202084F8420000206063206B63
:102FD000012826D10020206300BF00BF21680C31EA
:102FE00051E8001F21F0100021680C3141E8000277
:102FF000002AF3D100BF2068006800F010001028FC
:103000000AD100BF0020009020680068009020686E
:103010004068009000BF00BFA18D2046FFF763F815
:1030200002E02046FFF7D4FA0020F8BD01E00020BE
:10303000FBE70220F9E7000070B504462168096942
:1030400021F44051E2681143226811612269A168AC
:103050001143626941EA02052168C96841F20C62C4
:10306000914329432268D1602168496921F4407164
:10307000A2691143226851612D4A2168914202D10F
:10308000FEF734F901E0FEF721F900EBC00101EB96
:10309000001162689200B1FBF2F100EBC00202EB9A
:1030A000001263689B00B2FBF3F26423B2FBF3F2FD
:1030B00002EBC20303EB0212A1EB8201322202EB0C
:1030C00001116422B1FBF2F101F0F00100EBC0024A
:1030D00002EB001263689B00B2FBF3F26423B2FBC5
:1030E000F3F201EB021200EBC00101EB0011636887
:1030F0009B00B1FBF3F100EBC00303EB0013666828
:10310000B600B3FBF6F36426B3FBF6F303EBC3069A
:1031100006EB0313A1EB8301322303EB01116423BC
:10312000B1FBF3F101F00F0111442268916070BD11
:103130000038014077B581B0044615460298A06278
:10314000A58500206064222084F842002848E16BB5
:1031500088622848E16BC8622748E16B0863002059
:10316000E16B486302AE32682368191D2B46E06BA1
:10317000FDF7F8FC00BF0020009020680068009078
:1031800020684068009000BF00BF206970B100BF98
:1031900000BF21680C3151E8001F41F480702168A4
:1031A0000C3141E80002002AF3D100BF00BF00BF8C
:1031B0002168143151E8001F41F0010021681431E9
:1031C00041E80002002AF3D100BF00BF00BF216820
:1031D000143151E8001F41F040002168143141E8EA
:1031E0000002002AF3D100BF002004B070BD00002F
:1031F000B12D0008652E0008612D0008014691F8E8
:103200004100212828D18868B0F5805F0BD108697A
:1032100048B90A6A1088C0F308000B685860086A49
:10322000801C086205E00B6A581C086218780B685D
:103230005860C88C401E80B2C88458B90868C068FD
:1032400020F080000B68D8600868C06840F040003B
:103250000B68D860002070470220FCE738B50024D6
:10326000174800680068C0F30014F4B100BF0020E4
:10327000009013480068006800901148006840689A
:10328000009000BF00BF0E48006805680C48006849
:1032900045680B48FEF728FF0A4800684568C5F1F5
:1032A0000A0009494870012008700A220649891C51
:1032B0000348FFF777F90248FEF75CFF38BD0000CE
:1032C00060AB0020A8AB002016AC002000BFFEE7DA
:1032D000490050EAC12018BF04204A0D18BF40F031
:1032E000010040F2FF72B2EB515F08BF40F00200F4
:1032F000012808BF052070474100080218BF0420BC
:103300000A0E18BF40F001004FF07F4232EA01017F
:1033100008BF40F00200012808BF052070470000E8
:1033200002480068C0F30220704700000CED00E086
:1033300010B5002804DB0A07130E054A135406E0F3
:103340000A07140E034A00F00F031B1FD45410BDCC
:1033500000E400E018ED00E02DE9F0414F1E00EB25
:10336000C7010446D1E9000115461E4637F00602A2
:103370000DD02A46334602F0B9F87F1E04EBC7038E
:10338000D3E9002301F01CFE37F00602F1D1022F31
:1033900025D0042F13D0062F18BFBDE8F0812A4690
:1033A000334602F0A3F8D4E90A2301F009FE2A46C5
:1033B000334602F09BF8D4E9082301F001FE2A46C7
:1033C000334602F093F8D4E9062301F0F9FD2A46CA
:1033D000334602F08BF8D4E9042301F0F1FD2A46CC
:1033E000334602F083F8D4E9022301F0E9FD2A46CE
:1033F000334602F07BF8D4E90023BDE8F04101F048
:10340000DFBD0000002213461046014901F094BEC2
:103410000000F03F01F0D4BD0022134610461146D3
:1034200001F08ABE40F2013200204FF0E04102F08C
:10343000FEBE0000024A0020110702F0F8BE0000A4
:1034400001FDFFFF00214FF07E5002F0FFBB02F0B4
:1034500089BB0021084602F0F9BB61214FF0E04032
:1034600002F013BF6FF05E01080702F00EBF00BF4D
:103470007047000010B5044616E000BF012211029B
:103480000B48FDF779FD00BFFA20FDF7B9FB00BF3F
:1034900000224FF480710648FDF76EFD00BFFA2050
:1034A000FDF7AEFB601EC4B2002CE6DC10BD0000D0
:1034B000000C014000BF054A126802F04002002AD9
:1034C000F9D0C2B2014B1B1D1A6070470038014091
:1034D0000021002005E0084A32F8102002B1491C02
:1034E000401CB0F5A06FF6D3642048434FF4A062AF
:1034F000B0FBF2F080B2704740A0002070B50446E7
:10350000002514B10120224908702148007848B3F1
:1035100010212048FDF728FD50B108211D48FDF776
:1035200023FD28B101211C48FDF71EFD012819D1FA
:103530000920FDF765FB002015490870102115488A
:10354000FDF712FD00B9012508211248FDF70CFD19
:1035500000B9022501211048FDF706FD012815D10B
:10356000032513E010210B48FDF7FEFC01280DD1C7
:1035700008210848FDF7F8FC012807D10121064879
:10358000FDF7F2FC10B9012001490870284670BD12
:1035900019000020001801400008014070B50446E1
:1035A0000D4625E000BF2CB1002220211248FDF776
:1035B000E3FC04E0002220211048FDF7DDFC00BF01
:1035C0004FF4FA70FDF71CFB00BF2CB10122202143
:1035D0000948FDF7D1FC04E0012220210748FDF74E
:1035E000CBFC00BF4FF4FA70FDF70AFB681EC5B2B2
:1035F000002DD7DC70BD0000000C01400018014018
:103600001CB5FDF7D1FCFFF719FAFFF701F8FEF73B
:10361000E5FFFFF7C5F9FFF767F9FFF73DF9FFF79A
:103620009DF8FFF7F7F801F05BFC00F08DF800F073
:10363000B3F875E00020FFF761FF3A4908700846CB
:103640000078002860D00846007801281AD00228A7
:1036500038D0032857D10420334981F83300086952
:1036600000F05AFA3049486900F056FAFFF730FF87
:10367000044621462DA0FCF7CFFD01210846FFF7A7
:103680008DFF40E02D484FF07F510B464FF44862CC
:10369000CDE900100021244800F0A2F82849087064
:1036A0000846007848B108460078FFF7E3FE244852
:1036B00001780120FFF772FF03E001210020FFF7EE
:1036C0006DFF20E042F210704FF07F510B464FF437
:1036D0004862CDE900100021134800F081F8184934
:1036E00008700846007848B108460078FFF7C2FE27
:1036F000134801780120FFF751FF03E0012100206A
:10370000FFF74CFF00BF0BE00A20FDF779FA0D48E8
:10371000007828B10320FFF7ADFE002009490870AA
:1037200088E700000000002024AC00206672656578
:103730002053544F502025640D0A0000F0D8FFFF9D
:10374000010000201800002000B54FF42062002185
:10375000014800F037FA00BD40A0002010B5044633
:1037600094F8340010B1012812D110E000BF94F891
:10377000350028B1002280210648FDF7FDFB04E05A
:10378000012280210348FDF7F7FB00BF00E000BFE6
:1037900000BF10BD001C014000200D4981F834001D
:1037A00001200C4981F8340002200B4981F83400D3
:1037B00003200A4981F8340042F210700449C862BB
:1037C0000449C8620449C8620449C86270470000DD
:1037D00024AC00205CAC002094AC0020CCAC0020D9
:1037E0002DE9F04704460E4617469846DDE9089550
:1037F0003B4632464146204600F0EEF9012801D111
:10380000BDE8F087FFF764FE8246514624A0FCF72E
:1038100003FD33463A464946204600F0DDF90128CB
:1038200000D1EDE7FFF754FE8246514620A0FCF799
:10383000F3FC002D03DD002084F8350003E00120B7
:1038400084F835006D422046FFF788FFD4E9020175
:103850000844A84207DD206900F05EF9606900F0C5
:103860005BF90220CCE72562E168206A401AE0613A
:1038700000206062012084F833002069A061A06903
:103880000168104802F0E2F9824602F0E7FA208669
:10389000A069001DA061204600F0D0F80020AFE72D
:1038A0006D616C6C6F63204143432025640D0A00F9
:1038B0006D616C6C6F6320444543202025640D0AC4
:1038C000000000000024744A10B50446A06A0028D5
:1038D00004DBD4E90A01884200DC10BDA06A00289C
:1038E00008DA0020A062042084F83300204600F0AB
:1038F000D5F80BE0D4E90A01884207DDE06AA0624E
:10390000042084F83300204600F0C8F8012005495F
:103910000870206900F000F9606900F0FDF800BF50
:10392000DBE700001800002070B5044614F8320FE1
:10393000401C207014F83209022868D1002084F855
:10394000320094F83300E0B194F83300042818D022
:1039500094F8350018B9A06A401CA06202E0A06A81
:10396000401EA0622046FFF7AFFF606A401C606205
:10397000294A616892FBF1F000EBD071C1F34F016D
:10398000218694F83300052840D2DFE800F03E039A
:103990002D183700A069001DA061A168606A8842E7
:1039A0000CDB206900F0B8F8FFF792FD05462946C8
:1039B0001AA0FCF731FC022084F8330026E0A0694D
:1039C000001DA061D4E9081088420CDB606900F09A
:1039D000A3F8FFF77DFD0546294614A0FCF71CFC63
:1039E000042084F8330011E0E169606A884204DB56
:1039F0006069A061032084F8330007E0204600F0EE
:103A00004DF8002084F8330000E000BF00BF2046DE
:103A100000F05EF870BD000000093D00667265654B
:103A2000204143432025640D0A000000667265654D
:103A3000204445432025640D0A00000010B50446CB
:103A400094F8340010B1012820D10FE00020114972
:103A500009684862208E00EBD07149100D4A126847
:103A6000516300210B48FEF71BFA10E000200A49C1
:103A700009684862208E00EBD0714910064A12682E
:103A8000D16308210448FEF70BFA00E000BF00BF35
:103A900010BD000018AB002040AA002010B504465D
:103AA00094F8340010B101280AD104E0002106483E
:103AB000FEF798FA05E008210448FEF793FA00E0C3
:103AC00000BF00BF10BD000018AB002040AA0020BE
:103AD0000021002290F8343013B1012B14D109E0F9
:103AE0000B4B1B68596A038E0B449AB2084B1B6838
:103AF0005A630AE0074B1B68596A038E0B449AB25B
:103B0000044B1B68DA6300E000BF00BF7047000091
:103B100018AB002040AA0020F0B50C4A831A00B967
:103B2000F0BDB3F5204F00D3FAE75909084A32F83F
:103B30001140002205E000258E18054F27F8165089
:103B4000521CA242F7DB00BFEAE700004000002061
:103B500040A00020F0B50146002200240846CD1701
:103B600001EBD5656B1109B90020F0BDCD1701EB54
:103B7000D5656D11A1EB451505B15B1C40F2FF4207
:103B800017E00E4830F8120008B1002410E0641C61
:103B90009C420CD1002004E01618084F27F816307C
:103BA000401C9842F8D3064800EB4210DDE700BF06
:103BB000521E002AE5DA0020D7E7000040A00020CE
:103BC0004000002030B5034601E003F8011B141E3D
:103BD000A2F10102F9D130BD2DE9FF4F93B00746A4
:103BE0009046994600201290C84505DD01211291AA
:103BF0004046C846814600BFC7F80080C7F8049019
:103C000000241499084602F095F90B90A9EB0800DE
:103C100002F044F90A900B9902F018F8064601F0F8
:103C200075FF21F00041CDE90C0101F0DDFB1190A1
:103C3000149801F06BFF0022A64BCDE9000100F0C3
:103C400053F9CDE90401119801F0FDFBCDE9020122
:103C5000DDE9042301F04AFC00229F4BCDE9060177
:103C600001F06AFACDE90A01404602F017F907901F
:103C7000149902F05FF9064601F048FFCDE908010A
:103C8000DDE90A2301F09CF9CDE90C0101F0ACFB60
:103C90008246504602F002F90C9009EB080002F04F
:103CA000FDF80B90149902F045F906460C9902F0C4
:103CB00017FA0D9002F08CF8109010980AEB00059E
:103CC000284605EBD0714910A5EB410101B16D1CEF
:103CD000691C4FF6FF7202EA8100FFF73BFF0446C2
:103CE0001CB9012017B0BDE8F08F119802F0D6F88A
:103CF00001460990794801F0A9FF064601F006FF48
:103D00004FF0C042764BCDE90A0100F0EDF8CDE965
:103D10000C0101F023F98346CDF83CB04FF080410F
:103D2000584600F0CDFD0B90119802F0B7F84FF017
:103D30007C510A9002F0FEF806460B9902F0FAF860
:103D40000D90404602F0AAF80C900D9901F00AFF80
:103D500020606449206802F0B9F801D2614820600F
:103D6000012690E0701E54F820104FF07E5001F0B4
:103D70006DFF834659460F9801F0F4FE0F905645AB
:103D800040DA0F9801F0C2FE00224FF08043CDE9E7
:103D9000020100F0A9F8CDE90601119802F07EF8C1
:103DA0004FF07C51029002F0C5F8039001F0AEFE96
:103DB000CDE90401DDE9062301F098FBCDE90A0114
:103DC000404601F040FBCDE90801DDE90A2301F09E
:103DD000F7F8CDE90C0101F0C1F844F82600AAF18A
:103DE0000100B0420DD114990F9802F079F90B90AF
:103DF00001F08CFE21F00041CDE90C0101F0AEF89C
:103E00000F903FE00F99149802F06AF9019001F0C9
:103E10007DFE21F0004100224FF08043CDE90201F8
:103E200000F062F8CDE90601119802F037F84FF082
:103E30007C51029002F07EF8039001F067FECDE91C
:103E40000401DDE9062301F051FBCDE90A014846F2
:103E500001F0F9FACDE90801DDE90A2301F06CFD72
:103E6000CDE90C0101F07AF844F82600484602F04A
:103E700015F80D9054F8261002F028F801D23546B6
:103E800004E000BF761CAE42FFF66CAF00BF129894
:103E900018B93C61BD60002024E700200E9000BFEF
:103EA0000EE054F820100E91291A491E54F82110E2
:103EB00044F82010291A491E0E9A44F82120401C6B
:103EC00005EBD572B0EB620FEBDB7C61FD6000208F
:103ED00008E7000000000840000018400000C04053
:103EE0005555D53F000074422DE9F04D1D460C4656
:103EF00098B0174621F0004123F00043002814BF7A
:103F00004FF0010C4FF0000C0CEB440CFE4A0CEB94
:103F100002064FEA620C66452BD33E0018BF01260D
:103F200006EB45061644F94A964222D3F84A53EA6C
:103F3000070C02D0944205D148B918B000201146B0
:103F4000BDE8F08D002808BF4FF0000C01D04FF005
:103F5000010C0CEB440212F5001F0AD8002F14BF0D
:103F60004FF0010C4FF0000C0CEB450212F5001F56
:103F700007D918B03A462B462146BDE8F04DFFF769
:103F800049BA0022DFF88CA3002CB8BF534526DACB
:103F9000DFF884C36345A8BF022220DADFF870C3CC
:103FA0009C451CDCDFF874C30CEB235CBCF1140FE4
:103FB00008DDCCF1340627FA06FC0CFA06F6BE4200
:103FC0000DD108E05FB9CCF1140623FA06FC0CFA17
:103FD00006F69E4203D10CF00102C2F1020251EA40
:103FE000000C19D1002D17DA002C18BF022A01D0BD
:103FF000012A07D00220FCF7BBF918B0BDE8F04D4C
:10400000FFF700BA0220FCF7B3F9FFF7FBF918B08D
:1040100081F00041BDE8F08DB7F1000C6CD1534543
:1040200025D104F1804212F5801201BF0028002042
:10403000B74918B008BFBDE8F08DB548884207DC25
:10404000002DA1BF6046294618B0BDE8F08D07E0FD
:10405000281E05DA80F0004118B06046BDE8F08DFA
:10406000AF497944D1E9000118B0BDE8F08DDFF81F
:10407000A0C2634525D1002D1FDA19B1514512D1D7
:10408000D8B909E0002840F0EC82A24A214618B0D5
:1040900062F31E01BDE8F08D0020214618B060F3E8
:1040A0001E01BDE8F08D08DA18B02346BDE8F04DDA
:1040B00002460020614601F03FB818B02146BDE835
:1040C000F08D514518DAB5F1804F0DD0A5F1005CA7
:1040D000BCF1FF5C10D1B4F1000C0DDB18B06146EF
:1040E000BDE8F04D00F014BF234618B00246BDE80D
:1040F000F04D194601F0FAB9060024F0004C3BD10E
:10410000D9B1514533D1002C06DD002DA1BF0020CF
:10411000514618B0BDE8F08D002C01DD002D1BDBF1
:10412000002C13DA002D11DB012A4FF0000014BF20
:1041300078497C4918B0BDE8F08D022A18BF002CE0
:104140000AD0012A08D1002C06DA0AE0002CB8BFF8
:10415000002D11DA012A04D0002018B00146BDE874
:10416000F08D18B000204FF00041BDE8F08DA1F1B6
:104170004050B0F17F601AD0012000EBE47050EAAB
:10418000020421D0624C521E4FF0000B104304BFBA
:104190004FF0000B644C654883427CDD644A6548FF
:1041A00093421FDD884217DB002D25DB37E0002C12
:1041B00000DA4AB1022A0CBF01204FF0FF3018B0DC
:1041C000BDE8F04D01F03FB90120FCF7D1F818B07F
:1041D000BDE8F04DFFF720B94D4A8A4202DC002DC0
:1041E0000ADC1CE0814202DA002D18DA04E0484BB8
:1041F000994220DD002D12DD0220FCF7B9F8FFF70F
:1042000011F905460E46002253465846214601F054
:104210006DF918B066F31E012846BDE8F08D022046
:10422000FCF7A6F8FFF706F90A46214618B062F334
:104230001E01BDE8F08D00223046614601F07CFB96
:1042400080460E466FF0010201F0F1FF4FF055324B
:10425000394B01F07FFA4246334601F047F900221C
:10426000364B01F077FA82464246334604911046B7
:10427000194601F03BF95246049B01F037F98A4692
:1042800000904FF0C0422E4B4046314601F02EF9CF
:104290002C4A2B4B00E027E0CDE90601514600985F
:1042A00001F024F982460191274A284B40463146C5
:1042B00001F01CF95246019B01F03EFB82460B4681
:1042C00002460591DDE9060100F07AFEDDE90623EC
:1042D00000268846304601F02FFB5246059B01F030
:1042E00039FA024600F07EB90020B1F5801F07DAE6
:1042F00035223046614601F09AFF06466FF03400E1
:1043000000EB215024E00000FFFF1F00FFFF0F0023
:104310000000F03F0000F07F0000404301FCFFFF81
:10432000922400000000F0FF0000F0BF0000E04118
:104330000000F043FFFFEF3F5555D53F0000E03F41
:104340004715F73FFE822B6544DF5DF80BAE543E08
:10435000A0F2FF300190C1F3130040F07F6141F003
:1043600040510291FE498842D8BF002004DDFD493A
:104370008142C8BF012001DD0D9008E000200D90B2
:104380000198401C01900298A0F5801002900299BB
:10439000F54878440B910D9900EBC100D0E900235A
:1043A0000F9330460A920B9901F0C6FACDE9060147
:1043B000DDE90A2130460F9B00F002FE02460B4663
:1043C0000020EA4900F0B8FE059102460B46009035
:1043D000DDE9060101F08AF81490E5488A464FF0BD
:1043E000000878440299006812904FF0005040EAAB
:1043F00061010D980F9B01EB804000F500210991B0
:104400000A9A129801F098FA32460B9B01F0A2F931
:104410004246534601F06AF806460291404651462C
:10442000099B129A01F062F8DDE9062301F092F986
:104430003246029B01F080FA059B009A01F056F883
:104440000091149A049053461046194601F04EF814
:1044500006460246C7480B46029106217844FEF7FD
:104460007BFFCDE90510029B32461046194601F04C
:104470003DF8DDE9053201F039F80591064653466D
:1044800040461946149A00F09BFD009B049A01F0E7
:104490002DF83246059B00F093FDCDE9051042460C
:1044A00053461046194601F021F80022B24B029102
:1044B0000A9000F085FDDDE9053200F081FD0E4631
:1044C0004246AD4B404601F037FA029B0A9A01F092
:1044D00033FADDE9053201F03DF9424602910A90D6
:1044E00033461046514601F001F8CDE90601534626
:1044F000149A02990A9800F0F9FF8A46029033460E
:1045000042460099049800F0F1FF5346029A00F0E9
:1045100057FD82460B4602460591DDE9060100F093
:104520004FFDDDE9062300208846064601F004FA27
:104530005246059B01F00EF9824609914FF0604208
:104540008E4B3046414600F0D1FF049006918C4AD4
:104550008A4B5046099900F0C9FF82460291894A68
:10456000894B3046414600F0C1FF5246029B00F0A5
:1045700027FD864B7B440D9A03EBC203D3E900234E
:1045800000F01EFD0E900791019800F05CFF059170
:10459000DDE9061382460E9A049800F011FD7C4A6C
:1045A0007A440D9B02EBC303D3E9002300930292EC
:1045B00000F006FD5246059B00F002FD00268846ED
:1045C00052463046059B01F0B7F9009B029A01F074
:1045D000B3F9069B049A01F0AFF9079B0E9A01F01C
:1045E000B9F8024600200B4602903846294600F0F2
:1045F0007DFF824601912B4638461946029A01F00A
:104600009BF93246434600F071FF5246019B00F091
:10461000D7FC07468A46324643462946029800F0B0
:1046200065FF05460E463A46534600F0C9FC594A16
:104630008846914221DBA8EB020353EA000210D125
:104640002A46334601F078F9CDE90401524A534B2A
:104650003846514600F0B4FCDDE9042301F044F88B
:1046600021D20220FBF784FEFEF7DCFE0A4621463B
:1046700018B062F31E01BDE8F08D494B28F00042EE
:104680009A4210D3474A08EB020353EA00027FF430
:10469000C6AD2A46334601F04FF93A46534601F07B
:1046A00023F87FF6BCAD0022019228F000403E497D
:1046B0003E4A01EB2051824223DA481C4FF480111C
:1046C00021FA00F040443A4AC0F30A517A44394B87
:1046D000A1F2FF31CB4020EA0303C0F3130040F402
:1046E0008010C1F11401C84012680190B8F1000FA8
:1046F000BCBF404201902846314601F01DF90546F5
:104700000E462A4633463846514600F059FC4FF0D3
:1047100000084246284B4046059100F0E7FECDE9EF
:104720000601264A264B4046059900F0DFFE00911F
:1047300002902A4633464046059901F0FDF83A4674
:10474000534601F007F81F4A1F4B00F0CFFE009BB5
:10475000029A00F035FC0746884602460B4635E0D3
:104760008E9803007AB60B009A1F00000000F03FFD
:1047700012210000001F00000000084009C7EE3FA2
:10478000FD033ADCF5015B14E02F3EBED81D0000AE
:104790009C1D000000009040FE822B654715973C51
:1047A00000CC904000346F3F01FCFFFF0000E03F71
:1047B000281E0000FFFF0F00432EE63F396CA80CB7
:1047C000615C20BEEF39FAFE422EE63FDDE90601CC
:1047D00000F0F6FBDDE9062305460E4601F0ACF8D5
:1047E0003A46434600F0B6FF0F462A46334600904D
:1047F0001046194600F07AFE824602462E48884648
:104800000B4605217844FEF7A7FD5246434600F0CB
:104810006DFE2A46334600F09DFF80468A463B46A1
:1048200028463146009A00F061FE3B46009A00F0AF
:10483000C7FB0691009000224FF08043404651464E
:1048400001F07AF80F460C9042465346284631460E
:1048500000F04CFE3B460C9A00F06EFC069B009A62
:1048600001F06AF82A46334601F066F80022134B3D
:1048700000F070FF054601980E4601EB0051081547
:10488000002810DC28463146019A01F0D0FCFEF7E2
:104890001FFD042808BFFEF7CDFD28463146019ACA
:1048A00001F0C5FC05460B4618B02A46584621467D
:1048B000BDE8F04D00F01ABE881B00000000F03F7C
:1048C0002DE9F04D0E460023A0F5000C4FF00071CD
:1048D000354684B002464FF07E5401EB45014FF05F
:1048E0007F48BCF1FE4F80F09F81B1F1804FC0F056
:1048F000DB81FE490144B1F5005F40F2A78200F57B
:104900008021C90C01F00F07C1F307117F39A2EB19
:10491000C15501EB030B384601F0C0FA6FF00301FB
:1049200001F0B3FC4FF07E5101F01CF901460290FA
:10493000284601F0D5FB01902846029901F012F9B2
:1049400000F5006A6FF30B0A00905146029801F0DF
:10495000C7FB294601F006F902904FF07E500099FE
:1049600001F074F901460090019801F0E3FA00F5B6
:1049700000656FF30B052846029901F0DBFA0290FF
:104980005146284601F0D6FA019901F09FFB0299A1
:1049900001F0A6FB009901F0CDFA014601902846EE
:1049A00001F0E0F80146029001F0C4FA8246D049D5
:1049B00001F0C0FACF4901F0D5F8514601F0BAFA3A
:1049C00082460021284601F060FC00905146029882
:1049D00001F0B0FA05460021019801F056FC294685
:1049E00001F0C0F882460146009801F0BBF800F5DE
:1049F00000656FF30B052946009801F071FB5146E5
:104A000001F0B0F88246BC49284601F093FA0090C4
:104A1000BA49504601F08EFA8246B949284601F05B
:104A200089FA514601F09EF882460146009801F04D
:104A300099F800F500656FF30B052946009801F021
:104A40004FFB514601F08EF88246AE48784450F84C
:104A5000371000EBC700019147684FEA0B1001F0D7
:104A60001DFA00903946504601F07CF8294601F0C5
:104A700079F8019901F076F8009901F073F800F5E2
:104A8000006B6FF30B0B5846009901F029FB01995D
:104A900001F026FB294601F023FB394601F020FBFB
:104AA000514601F013FB06F5006782466FF30B07D2
:104AB0003946304601F014FB0021009008464FF0C3
:104AC000000000F00C063946584601F033FA05465E
:104AD00020F00040B0F18B4F0ADDB8EB400F07D358
:104AE0004FF08B4060F31E052F464FF0000A1FE089
:104AF0003846009901F036F8514601F01BFA074696
:104B00005846009901F016FA394601F02BF8824612
:104B10000146284601F026F800F500676FF30B0701
:104B20003946284601F0DCFA514601F01BF882466E
:104B300031460C204FF000005146384601F012F883
:104B400001F062F90646051101F0A8F9394601F0B5
:104B5000BDFA514601F006F807466B4901F0EAF943
:104B60006A4900F0FFFF394601F0E4F9684900F0B6
:104B7000F9FF394601F0DEF90146664806F00F06F6
:104B8000784450F8260001F0D5F96349794451F88A
:104B9000261000F0E7FF6149794451F8261000F033
:104BA000E1FF05F17D01FC2908D2294601F06DFBEA
:104BB00004B02146BDE8F04D01F0BCB905F1BF01DC
:104BC000B1F5BF7F16D8294601F05FFB214601F001
:104BD000B1F90546B8EB450F1AD068000CD028464D
:104BE000FEF78AFB042808BFFEF73CFC284604B009
:104BF000BDE8F08D002D0BDA0220FBF7B9FBFEF7C4
:104C000031FC0146204604B061F31E00BDE8F08D82
:104C10000220FBF7ADFBFEF720FC0146204604B066
:104C200061F31E00BDE8F08DB1F1804F3CD300BFB1
:104C300000F1FF41B1F1FE4F21D200BF20F0004250
:104C4000C5F3C75110467F290DDB9729BFF651AE3A
:104C5000C1F196014FF0010C0CFA01F1A1F1010C28
:104C60001CEA050F07D00120FBF782FB04B0BDE86A
:104C7000F04DFEF7EEBB294218BF294C39E6410042
:104C80001CBF4FF08071B1EB400F09D91B2101F01F
:104C9000FCFA02466FF01A0310F0004FCED128E65E
:104CA000BCF1FE4F18D224E6B1F1007F0ED336F0EE
:104CB000004105D006F0004141F0FC552E46B7E713
:104CC000410018BFB8EB400F78D8B1E7B1F1807F51
:104CD00038BFA5F50006ABD320F000416FF0FF4CC4
:104CE000104C01EB0C03A3422FD31DE0001080C039
:104CF0007EE24C3EABAAAA3E00B038423BAA384204
:104D0000D49AB8BB68190000FC596337C9FF753ADB
:104D10001872313D34190000E81800009C1800009A
:104D2000000080BFFFFF3F0025F000439C44A445E6
:104D30000BD3B0F17E5F18BF5FEA450C3ED0B1F1F6
:104D4000FF4F98BFB3F1FF4F05D904B03146BDE81E
:104D5000F04DFEF77CBBB0F1FF4F0FD0C5F3C7514C
:104D60007F2909DB972911DAC1F19601012202FAA4
:104D700001F14A1E2A4205D0002108E015F0004F3B
:104D800055D128E0294218BF012100D1022110F598
:104D9000000F14D020B3B0F1004F27D010F1814F95
:104DA0004ED04FF0FE41B1EB400F94BF01200020E8
:104DB000012101EBE571884239D10CE040E015F0AA
:104DC000004F02D0012936D031E0012902BF3F480F
:104DD00004B0BDE8F08D4FF0FF4004B0BDE8F08DA9
:104DE00015F000400ED104B0BDE8F08DB5F1FF4FD5
:104DF0001DD015F5000F05D015F0004F14D009B1E6
:104E0000012907D00220FBF7B3FA04B0BDE8F04D4A
:104E1000FEF718BB0220FBF7ABFAFEF713FB04B05A
:104E200080F00040BDE8F08D09B1012903D004B045
:104E30000020BDE8F08D04B04FF00040BDE8F08DDB
:104E400004B04FF07E50BDE8F08D00BF4FF07E51B2
:104E500001F046F905466FF0010101F016FA1C4910
:104E600001F034F9294601F065F84FF07C5101F06A
:104E70002DF907462946084601F05CF880F000400D
:104E8000394601F057F882461249284601F052F897
:104E900007461149504601F04DF882460F49284611
:104EA00001F048F8514600F05DFE054601463846DF
:104EB00000F058FE00F5006B6FF30B0B59463846B7
:104EC00001F00EF9294600F04DFEECE5000080FFF0
:104ED000ABAAAA3E00B0B8413BAAB841D49A38BBAD
:104EE00010B50948FDF7A1FD00200AE0074901F8C7
:104EF000200040F2DC51054A02EB80025180411C47
:104F0000C8B20528F2DB10BD16AC002002AC0020B0
:104F10002DE9F04106460F4600F028FC041E0D4620
:104F200018BF0120284320F00040C0F17F6000F14D
:104F3000E040C00F0ED0301C18BF0120384320F0D5
:104F40000040C0F17F6000F1E040C00F04BF0120CD
:104F5000FBF70EFA20462946BDE8F08121F0004219
:104F6000A2F16052B2F5801F01F0004328BFD2F1D8
:104F70007F6C0BD95FEA001C43EAC20242EB50701F
:104F800018BF704728BF20F001007047B2F5801F9E
:104F9000BCBF184670474FEA410C1CF5001F02D2F7
:104FA000084601F08EB870B500F04AFB0000008999
:104FB000FFF7F6BF4FF00040A0F5800070470000FB
:104FC00010B591EA030F48BF83F0004300F1BC84A1
:104FD000841A71EB030C05D2121943EB0C03001B6E
:104FE00061EB0C01DFF824E14FEA1154A4EB135CF0
:104FF0001EEA430F18BF9EEA445F73D023EA0E03F4
:10500000DCF1200E21EA045143F4801332D322FA5A
:105010000CFE10EB0E0023FA0CFE41EB0E01CCF15E
:10502000200E03FA0EFE10EB0E0051F10001B1F557
:10503000801FCCF1200E32D201EB045112FA0EF295
:10504000BDE8104058BF7047401C38BF5FEA4202BD
:1050500018BF7047002814BF20F0010041F1000183
:105060004FEA410313F5001F38BF7047A1F1C0415B
:1050700000F034BB012A43EB0302ACF1200CDCF15D
:105080001F0E32BF4FF0000E23FA0CF310EB03009B
:1050900041EB0451B4EB115FD0D0A1EB045101F509
:1050A000801149085FEA300001EB04510ED350F142
:1050B000000038BF12FA0EFE08D1BDE81040C9E763
:1050C000401C38BF5FEA4202CAD1C3E7BDE81040C6
:1050D0004FEA410313F5001F38BF7047A1F1C041EB
:1050E00000F0FCBA9EEA445F08D011EA5E0FBDE80A
:1050F000104004BF01F0004100207047BDE810409F
:1051000070B500F09DFA00BF64FBBE3E0000E0FFFA
:1051100002494FF0000001F058B800BF0000F87FCE
:10512000491058BFC1F140415B1058BFC3F1404323
:105130008B42EFF3008070472DE9C04130B4DFF8B7
:10514000A0C23CEA111418BF3CEA131400F0EC8032
:1051500081EA03051CEA111444EAD57418BF1CEA5D
:10516000131500F0C780A4EB05044FF0004545EA95
:10517000C12145EAC32341EA505143EA525304F1A5
:105180007F74994204F500344FEAC0204FEAC222EE
:1051900008BF904200F09C804FEA13650FF2401662
:1051A000765D4FEA134506FB05F7C7F1807706FBEE
:1051B00007F74FEAD737A7FB03687642C8F5803870
:1051C000A7FB06CE38BFA8F1010807FB08E64FF0A1
:1051D000000EA6FB028CE6FB03CEDCF1000CCEF148
:1051E000004E38BFAEF1010EA6FB0C584FF0000781
:1051F0004FF00005E6FB0E87A1FB08C6A0FB07CE1B
:1052000016EB0E0645F10005E1FB076515F1E04ED2
:105210007EBFA4F580345FEA46066D4116F1800733
:1052200045F100054FEA17274FEA066647EA05678A
:10523000A6F1DE46B6F1805F4FEA15251FD9384644
:1052400024F0010C05EBC471BCF1FE6F01EB0C11F5
:1052500002D8F0BCBDE8008124425CBF01F5801E8D
:105260009EEAC47F02D4F0BCBDE80081244238D459
:10527000F0BCA1F1C041BDE8004100F02FBA4FEAF7
:10528000D22242EA43524FEAD323A7FB02864FEAD7
:10529000D02040EA415007FB03661EEA0E0F4FEA9A
:1052A000D12105FB026658BFA6EB0056B6EB0056AF
:1052B0004FEA520E4EEAC37E18EB0E0E56EB530E1B
:1052C000BDD518EB02085E417F1C55F10005B6E71D
:1052D0004FF480154FF000074FF000064FF0000824
:1052E000ADE7F0BC4FF0000001F1C04101F000411A
:1052F000BDE8008111EA0C1F0CEA131500D00CE088
:1053000013EA0C1F00F025804FF00000F0BC81EA8A
:10531000030101F00041BDE80081F0BCBDE800419F
:1053200081EA030100F0DAB9F0BCBDE8004170B5D4
:1053300000F086F9097EFC3E00F007B881EA03011F
:105340004FF0000001F00041704781EA030100F0D6
:10535000C5B9F0BCBDE800414FF0000021497047DD
:10536000FFFDFBF9F7F5F4F2F0EEEDEBE9E8E6E42A
:10537000E3E1E0DEDDDBDAD8D7D5D4D3D1D0CFCDB1
:10538000CCCBCAC8C7C6C5C4C2C1C0BFBEBDBCBBEA
:10539000BAB9B8B7B6B5B4B3B2B1B0AFAEADACABE5
:1053A000AAA9A8A8A7A6A5A4A3A3A2A1A09F9F9EBF
:1053B0009D9C9C9B9A999998979796959594939371
:1053C000929191908F8F8E8E8D8C8C8B8B8A898908
:1053D000888887878685858484838382828181808B
:1053E0000000FF070000F87F4FEA41034FEA5353E4
:1053F000A3F58063D3F11E03C8BFD3F1210C0CDDEC
:105400004FF0004242EAC12242EA505232FA03FC13
:105410008CEAE17CACEBE1707047102BC4BF00203C
:10542000704703F5787CBCF1FF3F04D06FF0004279
:1054300082EA2100704770B500F002F94992248099
:1054400000207047F2E710F0004248BF4042B0FA37
:1054500080F310FA03F10AD0C3F11D0303F5806352
:105460004FEA415002EB035202EBD12170474FF05B
:105470000000704751EA030C17D41CF5801F58BF79
:10548000BCF5801F00F10680994218BF704708BF25
:105490009042704707D711F5801F58BF13F5801F42
:1054A00019D499427047894270471CF5801F08D56E
:1054B000BCF5801FF7D58B4218BF704708BF8242EA
:1054C00070474FF4001C1CEB410F38BF1CEB430F1F
:1054D00001D28B42704770B500F0B2F892244900B7
:1054E0004FF000514FF08053FFF71ABEDFF848C16C
:1054F00070B51CEA111E1EBF1CEA13159EEA0C0FA4
:1055000095EA0C0F00F06F8081EA030423EA4C1344
:105510004EEAD47E21EA4C1141F4801143F4801309
:10552000AE44A1FB024CA0FB0365AEF17F7E3619B1
:1055300055EB0C05A1FB034C4CF10003A0FB021C36
:1055400016EB0C06654153F10003094218BF46F003
:10555000010613F4007F0BD14FEA03314FEA053007
:10556000340341EA155140EA16506FF003020AE095
:105570004FEAC3214FEAC520F40241EA555140EAFF
:1055800056506FF0020202EB2E4201EB025585EA03
:10559000CE710AD05FEA440C18BF24F0004450F1E9
:1055A000000041F1000120EAD47040F2FE7C624527
:1055B00000D270BDA84214BF4FF080444FF0404469
:1055C000002E08BF0024BEF1806FA8BFA1F1C0412A
:1055D000BDE8704080F282804FF0000001F1C041D0
:1055E00001F0004170479EEA0C0F0CEA131518BF3A
:1055F00095EA0C0F06D04FF0000081EA030E0EF082
:10560000004170BD00F01CF88900013E00F007B8B1
:1056100000F009B84FEA430C5FEA5C5C08D081EA0D
:10562000030100F05BB84FEA410C5FEA5C5CF6D125
:105630004FF00000014970470000FF070000F87FAD
:105640000EF1020E2EF0030E5EF8046B364205D406
:10565000012A43EB030515F5001F12D8012841EB81
:10566000010C1CF5001F0CD80ED14FEAD17C15F5AA
:10567000001F0CEB4C0C0CF1020C08BF4CEBD37C64
:1056800004E04FF0080C01E04FEAD37C0CEB4C0532
:1056900026FA05F606F00706B6F1040C06D20EEB64
:1056A000860CBDE870404CF0010C6047DFE80CF060
:1056B000090B02024FF000414FF00000A1F500215C
:1056C00070BD19461046012851EB010418BFD4F5EE
:1056D000001484BF002001F0004170BD0808A0F54F
:1056E00000114FEA3101704753EA010C17D41CF541
:1056F000801F58BFBCF5801F00F106808B4218BF89
:10570000704708BF8242704707D713F5801F58BF04
:1057100011F5801F19D48B4270479B4270471CF5CE
:10572000801F08D5BCF5801FF7D5994218BF704778
:1057300008BF904270474FF4001C1CEB430F38BF6A
:105740001CEB410F01D2994270470FB40CBC03BC53
:10575000FFF7C1BE91EA030F10B581F000413FF59C
:1057600037AC83F0004300F0EFB800002DE9F041C2
:1057700001F5801CBCF5001FC0F2C3804FEA115C2C
:1057800021EA0C510CF1FD0C41F480115FEA5C0C34
:105790000CF5C07C01D3400049413DA4890241EA97
:1057A000905187028E0E0A0CA45D04FB04F602FBE6
:1057B00006F6C6F14046A4FB0662F60D46EA42260E
:1057C00006FB06F4A4FB01235242C3F1404338BF59
:1057D0005B1EA6FB02420024E6FB0324D20B42EA36
:1057E0004446A6FB0623A1FB02E2A3FB07E4A418A0
:1057F0004FF0000252F10002E3FB01426442C2F1A9
:10580000404E38BFAEF1010EA6FB04234FF000025C
:10581000E6FB0E32A2FB03464FF00004B61954F12A
:105820000004E2FB0264A1FB06E6A4FB07E816EB1A
:1058300008064FF0000858F10008E4FB01687642C2
:10584000C8F1405838BFA8F10108A2FB06E4A3FB49
:1058500008E52D194FF0000454F10004E2FB085450
:10586000A1FB05E6A7FB04E818EB06084FF00006CD
:1058700056F10006E1FB048618F1200556F10006FA
:10588000A809A8F11B08B10908F03F08B8F10A0FF0
:1058900040EA86601CD901EB0C51BDE8F08100BFE5
:1058A000FCF5EEE8E2DDD8D3CFCBC7C3C0BDB9B6B7
:1058B000B4B1AEACA9A7A5A3A19F9D9B9A989695BC
:1058C0009392908F8D8C8B89888786858483828143
:1058D000A0FB006800FB01F208EB4208B8EB872848
:1058E00007D5341858EB0104D5D5401C51F10001FF
:1058F000D1E7341A78EB0104CDD4401E71F10001D8
:10590000C9E75FEA4C0C5FEA9C5C0DD105D34FF010
:10591000000001F00041BDE8F081BDE8F04170B544
:10592000FFF78EFE6DDBFFBEBDE8F0414FF00000DB
:10593000004970470000F87F10B591EA030F48BF97
:1059400083F000433FF544AB841A71EB030C07D29C
:1059500012198CF0004C43EB0C03001B61EB0C01A3
:10596000DFF8A4E14FEA1154A4EB135C1EEA430FE5
:1059700018BF9EEA445F00F0B08023EA6E035242F3
:1059800021EA0451C3EB6E0338BF5B1EDCF1200E2D
:1059900025D322FA0CFE10EB0E0043FA0CFE41EB6D
:1059A0000E01CCF1200E03FA0EFE10EB0E0051F1A9
:1059B0000001CCF1200E29D412FA0EF201EB0451B1
:1059C000BDE8104058BF7047401C1CBFB2F1004FEB
:1059D000704700280CBF491C20F00100704712EBF3
:1059E000020E43EB030218BF4FF0010E4EEA4202D3
:1059F000ACF1200CDCF11E0E54D943FA0CFE10EB76
:105A00000E0051F1FF31CCF11E0ED5D50EF1010E75
:105A100012FA0EFE404141EB010101EB445C5FEAEA
:105A20005C5C10D910EBDE7001EB045138BFBEF1A5
:105A3000004FBDE8104018BF704700280CBF491C3C
:105A400020F00100704730D24FEAD42C11F500113C
:105A500024F400641BD0B1FA81F20B3AA41AA41EFC
:105A6000D2F12003914030FA03F31943904001EB47
:105A7000CC71002C01EB0451BDE81040A8BF704769
:105A800001F1C0414FF0000001F000417047B0FA51
:105A900080F310FA03F100D110BDE41A173C480559
:105AA000C90AE4E701EB045110BD491001EB0451B0
:105AB000BDE810404FEA300002E04FF000017047AF
:105AC0004A0008BF0042F8D0B2F5001F28BF704757
:105AD00001F000414FF0000070479EEA445F07D09C
