:020000040800F2
:1000000060B40020D5010008C12E00084529000871
:10001000BD2E0008F904000849380008000000005F
:10002000000000000000000000000000F12E0008A9
:100030003905000800000000C52E00080D2F00083B
:10004000EF010008EF010008EF010008EF010008D0
:10005000EF010008EF010008EF010008EF010008C0
:10006000EF010008EF010008EF010008EF010008B0
:10007000EF010008EF010008EF010008FD0400088F
:10008000EF010008EF010008EF010008EF01000890
:10009000EF010008EF010008EF010008EF01000880
:1000A000EF010008EF010008EF0100087D2F0008B4
:1000B0008D2F0008EF010008EF010008EF01000894
:1000C000EF010008EF010008EF010008EF01000850
:1000D000EF010008C937000839380008EF010008AF
:1000E000EF010008EF010008EF010008EF01000830
:1000F000EF010008EF0100089D2F0008EF01000844
:10010000EF010008EF010008EF010008EF0100080F
:10011000EF010008EF010008EF010008EF010008FF
:10012000EF010008EF010008EF010008EF010008EF
:1001300000F002F800F03FF80AA090E8000C8244BA
:100140008344AAF10107DA4501D100F034F8AFF297
:10015000090EBAE80F0013F0010F18BFFB1A43F0A5
:10016000010318477C6D00009C6D0000103A24BF0D
:1001700078C878C1FAD8520724BF30C830C144BF0C
:1001800004680C607047000000230024002500264E
:10019000103A28BF78C1FBD8520728BF30C148BFEA
:1001A0000B607047642900F07780002070471FB50E
:1001B0001FBD10B510BD00F071F91146FFF7F7FF34
:1001C00003F026FD00F08FF903B4FFF7F2FF03BC44
:1001D00003F00BFC0948804709480047FEE7FEE7AB
:1001E000FEE7FEE7FEE7FEE7FEE7FEE7FEE7FEE7E7
:1001F00004480549054A064B704700007B2F00085C
:100200003101000860AE002060B4002060B0002022
:1002100060B00020704700000FB4044910B503AA75
:10022000029800F005F910BC5DF814FB1C000020DA
:100230002DE9F0410E460446002020622046E16888
:10024000884730B3252805D0D4E901219047206A9A
:10025000401CF2E7E168204600278847050018D0D7
:10026000A5F14100192802D820354FF40067324625
:10027000294620462760FFF795FF40B1012804D0AA
:10028000F61D26F007060836D8E7361DD6E72846BD
:10029000DAE7206ABDE8F0812DE9F0410646002446
:1002A00010687529314616A510D0AFF300800028DC
:1002B00002DA404213A507E031688A0701D512A58A
:1002C00002E0490704D511A5012401E0AFF3008045
:1002D00000210A2206F1240709E0B0FBF2FCB0FB82
:1002E000F2F302FB1C00303078541846491C0028F9
:1002F000F3D123462A463046BDE8F04100F03EB82F
:10030000000000002D0000002B0000002000000075
:100310004FF0000200B5134694469646203922BF9E
:10032000A0E80C50A0E80C50B1F12001BFF4F7AFE9
:10033000090728BFA0E80C5048BF0CC05DF804EBCB
:10034000890028BF40F8042B08BF704748BF20F839
:10035000022B11F0804F18BF00F8012B7047704737
:1003600070477047704710B500F074F8006810BD12
:1003700010B5044600F06EF8046010BD2DE9F0479A
:100380000D4699469246044600F124080168880605
:1003900004D5E06921F01001216000E00120A842AD
:1003A00001DD471B00E00027A1697A1902EB090073
:1003B000081AA0612078C00602D42046AFF300805E
:1003C000002608E0D4E901211AF806009047206AC7
:1003D000401C761C20624E45F4DB2078C0060AD50E
:1003E0002046AFF3008006E0D4E901213020904799
:1003F000206A401C2062381EA7F10107F4DC07E0E8
:10040000D4E9012118F805009047206A401C2062B9
:10041000281EA5F10105F3DC2046AFF3008020780B
:10042000000602D50220BDE8F0870120FBE70000AE
:10043000074B70B50D467B4400F015F8044628467E
:1004400000F024F810B14FF0FF3070BD204670BDB1
:100450003F36000000487047FCAD002001694A1C8F
:1004600002610878704700B58FB0CDE901310021F5
:10047000059105497944CDE9031011466846FFF717
:10048000D7FE0FB000BD0000E5FFFFFF007B00F0CE
:100490008000704700487047FCAD00207546FFF7AC
:1004A000F9FFAE4605006946534620F00700854631
:1004B00018B020B5FFF79CFEBDE820404FF00006C5
:1004C0004FF000074FF000084FF0000B21F007013C
:1004D000AC46ACE8C009ACE8C009ACE8C009ACE87F
:1004E000C0098D46704710B50446AFF30080204622
:1004F000BDE81040FFF768BE00BFFEE710B5024838
:1005000000F09CF910BD000038AC002030B590F828
:1005100040500124AC40C56B6C6004686360446863
:10052000102C04D10468A2600468E16003E0046850
:10053000A1600468E26030BD704772B600BFFEE79C
:1005400070B50446B3F5804F13D1D1E9000540EAF8
:1005500005108D6840EA05208D6928438D8940EAA1
:10056000054054F82250064E3540284344F82200F6
:1005700003E06FF0704044F82200002070BD0000DE
:100580000000F0CF70B50246086852F8200020F055
:1005900001000E6842F826008868082801D140232F
:1005A00000E00023486818438E683043CE6830432B
:1005B0000E6930434E693043CE6930430E6A304392
:1005C0004E6A30438E6A3043CE6A30430E6B40EA47
:1005D000060488690443486B0443074D45F480656D
:1005E00045F4E025086852F82000A84320430E682F
:1005F00042F82600002070BD7FFB080010B50346BE
:10060000D1E9000440EA04108C6840EA04208C8997
:1006100040EA0444088A401E44EA0054087D801ED3
:1006200044EA00608C692043541C53F8244004F0D1
:1006300040442043541C43F82400002010BD0146D0
:10064000002291F82100022808D00420886300BF0E
:10065000002081F8200000BF012070470868006872
:1006600020F00E000B6818600868006820F0010098
:100670000B68186091F8403001209840CB6B5860AF
:10068000012081F8210000BF002081F8200000BF78
:100690001046E2E770B50446002594F821000228D0
:1006A00003D00420A0630125C1E02068006820F089
:1006B0000E00216808602068006820F001002168B1
:1006C00008605C492068884252D95A4978392068C4
:1006D000884201D1012047E05649643920688842A8
:1006E00001D1102040E0534950392068884201D19F
:1006F000801539E04F493C392068884201D1801487
:1007000032E04C4928392068884202D14FF48030C9
:100710002AE0484914392068884202D14FF48010F9
:1007200022E044492068884201D140041CE042494B
:100730002068884201D1012016E03F491431206829
:10074000884201D110200FE03B49283120688842BF
:1007500001D1801508E038493C312068884201D138
:10076000801401E04FF480303349091F086051E0E4
:10077000304978392068884201D1012047E02D496D
:1007800064392068884201D1102040E0294950395D
:100790002068884201D1801539E026493C3920681B
:1007A000884201D1801432E02249283920688842E9
:1007B00002D14FF480302AE01E4914392068884263
:1007C00002D14FF4801022E01A492068884201D1FA
:1007D00040041CE018492068884201D1012016E03D
:1007E000154914312068884201D110200FE01249C8
:1007F00028312068884201D1801508E00E493C313B
:100800002068884201D1801401E04FF4803009490A
:1008100080394860012084F8210000BF002084F85E
:10082000200000BF606B10B12046616B88472846EE
:1008300070BD0000800002400804024070B504460C
:10084000E06B05682068066894F840100420884032
:100850002840002875D006F004000028FAD020684F
:10086000006800F0200028B92068006820F004002B
:1008700021680860D5492068884254D9D34978391D
:100880002068884201D1042049E0D04964392068B9
:10089000884201D1402042E0CC495039206888424A
:1008A00001D100153BE0C9493C392068884202D19A
:1008B0004FF4804033E0C54928392068884202D18E
:1008C0004FF480202BE0C14914392068884202D1BE
:1008D0004FF4800023E0BD492068884201D1C00464
:1008E0001DE0BB492068884201D1042017E0B849C7
:1008F00014312068884201D1402010E0B4492831E9
:100900002068884201D1001509E0B1493C312068D6
:10091000884202D14FF4804001E04FF48020AC497E
:10092000091F086054E0A94978392068884201D13C
:1009300004204AE0A54964392068884202D1402059
:1009400043E04CE0A14950392068884201D10015AC
:100950003BE09E493C392068884202D14FF48040F8
:1009600033E09A4928392068884202D14FF4802028
:100970002BE0964914392068884202D14FF4800058
:1009800023E092492068884201D1C0041DE09049CB
:100990002068884201D1042017E08D491431206875
:1009A000884201D1402010E08949283120688842DE
:1009B00001D1001509E086493C312068884202D106
:1009C0004FF4804001E04FF4802080498039486036
:1009D000E06A002802D02046E16A8847F4E094F8F3
:1009E0004010022088402840002871D006F0020004
:1009F0000028FAD02068006800F0200040B9206884
:100A0000006820F00A0021680860012084F82100B5
:100A10006E492068884254D96C49783920688842E8
:100A200001D1022049E0694964392068884201D136
:100A3000202042E0654950392068884201D14015A4
:100A40003BE062493C392068884202D14FF40050B3
:100A500033E05E4928392068884202D14FF40030E3
:100A60002BE05A4914392068884202D14FF4001013
:100A700023E056492068884201D180041DE0544992
:100A80002068884201D1022017E0514914312068C2
:100A9000884201D1202010E04D4928312068884249
:100AA00001D1401509E04A493C312068884202D111
:100AB0004FF4005001E04FF400304549091F086031
:100AC00054E0424978392068884202D102204AE045
:100AD00057E03E4964392068884201D1202042E035
:100AE0003A4950392068884201D140153BE03749E6
:100AF0003C392068884202D14FF4005033E033493A
:100B000028392068884202D14FF400302BE02F4969
:100B100014392068884202D14FF4001023E02B4999
:100B20002068884201D180041DE02949206888425C
:100B300001D1022017E0264914312068884201D1F2
:100B4000202010E0224928312068884201D1401538
:100B500009E01F493C312068884202D14FF400501F
:100B600001E04FF4003019498039486000BF00208F
:100B700084F8200000BFA06A30B32046A16A8847ED
:100B800022E094F84010082088402840E0B106F0A8
:100B90000800C8B12068006820F00E0021680860D5
:100BA00094F8401001208840E16B48600120A06368
:100BB00084F8210000BF002084F8200000BF206BD3
:100BC00010B12046216B884770BD000080000240B4
:100BD000080402400146002209B9012070471E4B5B
:100BE000086898420BD21D4B0868C01A1423B0FB4A
:100BF000F3F08000086419480838C8630AE0164B0F
:100C00000868C01A1423B0FBF3F08000086412488F
:100C10000838C863022081F821000868026843F69A
:100C2000F0708243D1E901031843CB6818430B6984
:100C300018434B6918438B691843CB691843024327
:100C40000868026000208863012081F821000020EC
:100C500081F8200000BFC1E70804024008000240FC
:100C60002DE9F04104460D4616461F464FF0000898
:100C700000BF94F82000012802D10220BDE8F081D5
:100C8000012084F8200000BF94F8210001282CD115
:100C9000022084F821000020A0632068006820F072
:100CA0000100216808603B46324629462046FFF78E
:100CB0002DFCE06A30B12068006840F00E00216829
:100CC00008600BE02068006820F0040021680860DC
:100CD0002068006840F00A00216808602068006809
:100CE00040F001002168086006E000BF002084F8A1
:100CF000200000BF4FF002084046BFE770B5044631
:100D000000F020FA06462546681C10B10448007819
:100D1000054400BF00F016FA801BA842FAD370BD4C
:100D20002800002000B585B00020019002900390BB
:100D300004902248006808B105B000BD01201F4999
:100D4000086000BF1E48406940F480701C4948613B
:100D50000846406900F48070009000BF00BF4FF269
:100D60003F000190022002900320049001A9154841
:100D700000F030F840F23F40019002200290032042
:100D8000049001A9104800F025F84FF683700190F7
:100D9000022002900320049001A90C4800F01AF8E8
:100DA0004FF633700190022002900320049001A9B5
:100DB000074800F00FF800BFBEE700001400002055
:100DC00000100240001C01400020014000180140BA
:100DD000001401402DE9F847024600239C467BE1C0
:100DE0004FF0010808FA03F4D1F8008008EA040083
:100DF000A0427DD1DFF8F4A2D1F80480A8EB0A0963
:100E0000D0453AD014DCB8F1030F50D009DCB8F16A
:100E1000000F31D0B8F1010F1CD0B8F1020F49D149
:100E200020E0B8F1110F18D0B8F1120F42D11EE036
:100E3000B9F5881F25D006DCB9F5803F20D0B9F57B
:100E4000801F37D11AE0B9F5001F18D0B9F5041F7B
:100E500030D117E0D1F80CC02DE0D1F80C8008F1AA
:100E6000040C28E0D1F80C8008F1080C23E0D1F83C
:100E70000C8008F10C0C1EE000BF00BF00BF00BFDB
:100E800000BF00BFD1F80880B8F1000F02D14FF0C9
:100E9000040C0BE0D1F80880B8F1010F03D14FF03A
:100EA000080C146102E04FF0080C546103E04FF0AD
:100EB000000C00E000BF00BFFF2801D8904601E011
:100EC00002F104084646FF2802D84FEA830803E0EF
:100ED000A3F108084FEA88084746D6F800804FF08B
:100EE0000F0909FA07F928EA09080CFA07F900E0DE
:100EF0007AE048EA0908C6F80080D1F8048008F0D2
:100F00008058B8F1805F6FD100BFDFF8E481D8F876
:100F1000188048F00108DFF8D891C9F81880C84651
:100F2000D8F8188008F00108CDF8008000BF00BF95
:100F30004FEAB9384FEA930958F829504FEA8378B5
:100F40004FEA18794FF00F0808FA09F825EA080562
:100F5000DFF8A081424502D14FF0000824E0DFF81D
:100F60009881424502D14FF001081DE0DFF88C81E5
:100F7000424502D14FF0020816E0DFF88481424575
:100F800002D14FF003080FE0DFF87881424502D12B
:100F90004FF0040808E0DFF87081424502D14FF0BD
:100FA000050801E04FF006084FEA83794FEA197906
:100FB00008FA09F848EA0505DFF850814FEA930975
:100FC00048F82950D1F8048008F48018B8F5801F3B
:100FD0000BD1DFF83C81D8F8008048EA0008DFF840
:100FE0003091C9F800800AE075E0DFF82481D8F874
:100FF000008028EA0008DFF81891C9F80080D1F8CD
:10100000048008F40018B8F5001F0ED1DFF8008145
:1010100008F10408D8F8008048EA0008DFF8F090EA
:1010200009F10409C9F800800DE0DFF8E48008F157
:101030000408D8F8008028EA0008DFF8D49009F105
:101040000409C9F80080D1F8048008F40038B8F524
:10105000003F0ED1DFF8B880A8F10408D8F800806E
:1010600048EA0008DFF8A890A9F10409C9F800804F
:101070000DE0DFF89C80A8F10408D8F8008028EA89
:101080000008DFF88C90A9F10409C9F80080D1F8B4
:10109000048008F48038B8F5803F0ED1DFF8708006
:1010A000A8F10808D8F8008048EA0008DFF8609046
:1010B000A9F10809C9F800800DE0DFF85480A8F113
:1010C0000808D8F8008028EA0008DFF84490A9F161
:1010D0000809C9F800805B1CD1F8008028FA03F8E1
:1010E000B8F1000F7FF47CAEBDE8F8870000111066
:1010F0000010024000080140000C014000100140B7
:101100000014014000180140001C0140080001408B
:1011100008040140024693680B400BB1012000E037
:101120000020704710B5C26821EA020302EA0104F8
:1011300043EA0443036110BD0AB1016101E00B04FD
:1011400003617047014800687047000020000020DC
:10115000034800680349097808440149086070475A
:10116000200000202800002010B50848006840F04A
:10117000100006490860032000F0A8F80F2000F0D6
:1011800007F800F02BF8002010BD000000200240FE
:1011900070B504460E4800784FF47A71B1FBF0F058
:1011A0000C490968B1FBF0F5284600F031FC08B1A4
:1011B000012070BD102C07D200222146501E00F0E5
:1011C00047F80548046001E00120F2E70020F0E75D
:1011D000280000202C0000202400002008B500BFBB
:1011E0001148806940F001000F4988610846806914
:1011F00000F00100009000BF00BF00BF0846C069BA
:1012000040F08050C8610846C06900F080500090EE
:1012100000BF00BF00BF0549486820F0E06040F013
:101220000070486000BF08BD00100240000001408F
:1012300001460846002809DB00F01F0301229A40FE
:1012400043099B0003F1E023C3F8002100BF70476E
:101250002DE9F05F80460D461646002702F01EFB82
:10126000074639462A46334601F00700C0F1070A0F
:10127000BAF1040F02D94FF0040A01E0C0F1070AE5
:10128000D14600F1040ABAF1070F02D24FF0000A6A
:1012900001E0A0F1030AD4464FF0010A0AFA09FA64
:1012A000AAF1010A0AEA020A0AFA0CFA4FF0010B43
:1012B0000BFA0CFBABF1010B0BEA030B4AEA0B0434
:1012C0002146404602F0F2FABDE8F09F00BF00F070
:1012D0000702064B19684FF6FF031940044B0B43F6
:1012E00043EA0221014B196000BF70470CED00E09A
:1012F0000000FA0570B504460D460CB9012070BD1A
:101300005A48006800F00700A8420ED2574800680B
:1013100020F007002843554908600846006800F09F
:101320000700A84201D00120E9E7207800F0020080
:1013300002281DD1207800F00400042805D14C4873
:10134000406840F4E0604A494860207800F00800B6
:10135000082805D14648406840F460504449486038
:101360004348406820F0F000A168084340494860C5
:10137000207800F0010078B36068012806D13C486D
:10138000006800F4003090B90120B8E760680228D6
:1013900006D13748006800F0007040B90120AEE780
:1013A0003348006800F0020008B90120A7E7304880
:1013B000406820F00300616808432D494860FFF74A
:1013C000C1FE064609E0FFF7BDFE801B41F28831F1
:1013D000884202D9032092E707E02548406800F0E0
:1013E0000C006168B0EB810FEDD12048006800F07F
:1013F0000700A8420ED91D48006820F007002843C6
:101400001A4908600846006800F00700A84201D0A9
:10141000012074E7207800F00400042807D1144864
:10142000406820F4E060E168084311494860207892
:1014300000F00800082808D10D48406820F46050EA
:10144000216940EAC1000A49486000F03FF80849B4
:101450004968C1F30311074A515CC8400649086056
:1014600006480068FFF794FE002048E7002002408D
:1014700000100240F26C00082C0000202400002024
:1014800001480068704700002C00002000B5FFF7FD
:10149000F7FF04494968C1F30221034A515CC8407F
:1014A00000BD000000100240026D000800B5FFF70B
:1014B000E7FF04494968C1F3C221034A515CC840AF
:1014C00000BD000000100240026D000870B5002150
:1014D0000022002400230020134D696801F00C0550
:1014E000F5B1042D02D0082D19D101E00F4819E003
:1014F0000F4DC1F38346AB5D01F4803555B10A4D04
:101500006D68C5F340450B4E725D084D5D43B5FBFC
:10151000F2F402E0084D03FB05F4204602E000BFB0
:10152000024800BF00BF70BD0010024000127A00E8
:10153000E06C0008F06C000800093D00F8B50446B6
:101540000CB90120F8BD207800F00100002878D007
:10155000F848406800F00C0004280CD0F5484068BA
:1015600000F00C00082811D1F248406800F48030E7
:10157000B0F5803F0AD1EF48006800F40030002841
:101580005FD0606800285CD10120DBE700BF6068A5
:10159000B0F5803F06D1E748006840F48030E54967
:1015A000086028E0606858B9E248006820F480309C
:1015B000E04908600846006820F4802008601AE0CE
:1015C0006068B0F5A02F0BD1DA48006840F48020A5
:1015D000D84908600846006840F4803008600AE096
:1015E000D448006820F48030D2490860084600687A
:1015F00020F48020086000BF606888B1FFF7A2FD7A
:10160000054606E0FFF79EFD401B642801D9032034
:1016100098E7C848006800F400300028F2D010E0D5
:10162000FFF790FD054606E0FFF78CFD401B6428A0
:1016300001D9032086E7BF48006800F40030002885
:10164000F2D1207800F00200022857D1B948406852
:1016500000F00C0050B1B748406800F00C000828BA
:1016600018D1B448406800F4803098B9B148006897
:1016700000F0020020B12069012801D0012061E7BB
:10168000AC48006820F0F800616940EAC100A9494F
:10169000086033E02069E8B10120A7490860FFF73E
:1016A00051FD054606E0FFF74DFD401B022801D91C
:1016B000032047E79F48006800F002000028F2D0AE
:1016C0009C48006820F0F800616940EAC10099492F
:1016D000086013E0002098490860FFF733FD0546D5
:1016E00006E0FFF72FFD401B022801D9032029E760
:1016F0009048006800F002000028F2D1207800F045
:10170000080008282DD1A069B8B101208B490860D4
:10171000FFF718FD054606E0FFF714FD401B022801
:1017200001D903200EE78348406A00F00200002838
:10173000F2D0012001F0C8FB13E000207F490860CF
:10174000FFF700FD054606E0FFF7FCFC401B022802
:1017500001D90320F6E67748406A00F0020000282D
:10176000F2D1207800F00400042873D100277148DA
:10177000C06900F0805070B900BF6E48C06940F089
:1017800080506C49C8610846C06900F080500090E4
:1017900000BF00BF01276A48006800F48070B0B93C
:1017A0006748006840F4807065490860FFF7CAFC2C
:1017B000054606E0FFF7C6FC401B642801D903205C
:1017C000C0E65F48006800F480700028F2D000BFD7
:1017D000E068012806D15748006A40F001005549E9
:1017E000086227E0E06858B95248006A20F001001A
:1017F000504908620846006A20F00400086219E0B7
:10180000E06805280BD14B48006A40F004004949C4
:1018100008620846006A40F0010008620AE0454894
:10182000006A20F00100434908620846006A20F07F
:101830000400086200BFE068A0B1FFF783FC054622
:1018400009E0FFF77FFC401B41F28831884202D952
:10185000032077E622E03748006A00F00200002803
:10186000EFD012E0FFF76EFC054608E0FFF76AFCD8
:10187000401B41F28831884201D9032062E62D489D
:10188000006A00F002000028F0D1012F05D129489C
:10189000C06920F080502749C86100BFE069C8B323
:1018A0002448406800F00C00082860D0E069022855
:1018B00048D1002020490866FFF744FC054606E0B1
:1018C000FFF740FC401B022801D903203AE61948E3
:1018D000006800F000700028F2D1206AB0F5803F67
:1018E00007D11448406820F40030A168084311492A
:1018F0004860D4E9080108430E49496821F474118D
:1019000008430C49486001200B490866FFF71AFCA0
:10191000054607E03DE0FFF715FC401B022801D912
:1019200003200FE60348006800F000700028F2D0A2
:101930002FE00000001002400000424280044242BA
:1019400000700040002014490866FFF7FBFB0546C5
:1019500006E0FFF7F7FB401B022801D90320F1E561
:101960000E48006800F000700028F2D111E0E06934
:10197000012800D1E6E50948466806F48031206A6E
:10198000814204D106F47011606A814201D00120C5
:10199000D8E50020D6E500000000424200100240D9
:1019A00070B504460E4615461CB1A069B0F5807F9F
:1019B00001D1012070BD94F8410028B9002084F8BD
:1019C0004000204600F01FF804F108012068FEF7EF
:1019D000D9FD3146A2682068FEF710FE2946236B28
:1019E000D4E90102FEF7ACFDA168206850F821009F
:1019F00040F00100A268216841F82200012084F82B
:101A000041000020D6E710B50446FFF78BF910BD62
:101A100070B504462546681EB0F1807F01D30120D1
:101A20000FE0681E4FF0E02148610F214FF0FF30BA
:101A300001F03CFF00204FF0E021886107200861A1
:101A4000002070BD7047704710B50346002200BFEC
:101A500093F83C00012801D1022010BD012083F839
:101A60003C0000BF22F0FF00CC6840EA040222F4F0
:101A700040708C6840EA040222F480604C6840EABE
:101A8000040222F400600C6840EA040222F4805050
:101A90000C6940EA040222F400504C6940EA040256
:101AA00022F48040CC6940EA04021868426400BF16
:101AB000002083F83C0000BF00BFCEE730B50246EF
:101AC0000B4600BF92F83C00012801D1022030BD36
:101AD000012082F83C0000BF022082F83D0010681F
:101AE00044681068816824F0700418680443106822
:101AF0004460144D1068A84213D0134D1068A842DA
:101B00000FD01068B0F1804F0BD0104D1068A84274
:101B100007D00F4D1068A84203D00E4D1068A842A0
:101B200005D121F0800158680143106881600120CF
:101B300082F83D0000BF002082F83C0000BF00BFDB
:101B4000C5E70000002C01400034014000040040C3
:101B500000080040000C004010B504460CB90120FC
:101B600010BD94F83D0028B9002084F83C002046C0
:101B700000F026F8022084F83D00211D206801F0C5
:101B800015FA012084F8460000BF84F83E000121C8
:101B90003F200155402001554120015500BF00BFA5
:101BA000012084F84200432001554420015545207E
:101BB000015500BF012084F83D000020D0E700005F
:101BC00008B5094A016891420DD100BF0749C969AA
:101BD00041F01001054AD1611146C96901F01001B7
:101BE000009100BF00BF08BD00100040001002407F
:101BF000014691F83D00012801D0012070470220E4
:101C000081F83D00164B0868984213D0154B0868C0
:101C100098420FD00868B0F1804F0BD0124B086883
:101C2000984207D0114B0868984203D0104B0868BF
:101C300098420CD10868806800F00702062A0CD090
:101C40000868006840F001000B68186005E008684B
:101C5000006840F001000B6818600020CEE700002B
:101C6000002C014000340140000400400008004006
:101C7000000C0040704710B5044620680069C0F3AE
:101C80004000D8B12068C068C0F34000B0B16FF028
:101C9000020021680861012020772068806900F037
:101CA000030018B12046FFF7E5FF05E0204600F0ED
:101CB0005BF9204600F036FB0020207720680069A1
:101CC000C0F38000D8B12068C068C0F38000B0B114
:101CD0006FF0040021680861022020772068806985
:101CE00000F4407018B12046FFF7C4FF05E020461D
:101CF00000F03AF9204600F015FB0020207720681C
:101D00000069C0F3C000D8B12068C068C0F3C0004B
:101D1000B0B16FF0080021680861042020772068C6
:101D2000C06900F0030018B12046FFF7A3FF05E0EB
:101D3000204600F019F9204600F0F4FA0020207740
:101D400020680069C0F30010D8B12068C068C0F3F3
:101D50000010B0B16FF010002168086108202077F2
:101D60002068C06900F4407018B12046FFF782FF78
:101D700005E0204600F0F8F8204600F0D3FA0020F5
:101D800020772068006900F0010058B12068C06821
:101D900000F0010030B16FF00100216808612046B9
:101DA00000F0C1FA20680069C0F3C01058B1206883
:101DB000C068C0F3C01030B16FF0800021680861C6
:101DC0002046FFF73FFE20680069C0F3801058B13D
:101DD0002068C068C0F3801030B16FF04000216807
:101DE0000861204600F0A0FA20680069C0F34010A6
:101DF00058B12068C068C0F3401030B16FF02000C7
:101E0000216808612046FFF71EFE10BD10B586B0A0
:101E10000446002002900390049005903049206809
:101E2000884218D100BF2F48806940F004002D4936
:101E300088610846806900F00400019000BF00BF7F
:101E400088150290022003900320059002A92648DD
:101E5000FEF7C0FF42E02068B0F1804F22D100BF02
:101E60002048806940F004001E4988610846806966
:101E700000F00400019000BF00BF4FF4004002904A
:101E800002200390059002A91748FEF7A3FF00BFA8
:101E90001649486820F4407040F0E06040F48070DB
:101EA00048601BE012492068884217D100BF0D48E6
:101EB000806940F010000B4988610846806900F095
:101EC0001000019000BF00BF40200290022003904C
:101ED0000320059002A90748FEF77CFF06B010BD5D
:101EE000002C0140001002400008014000000140A9
:101EF00000340140001001402DE9F04104460E4637
:101F00001546002700BF94F83C00012802D10220AA
:101F1000BDE8F081012084F83C0000BF35B1042DFC
:101F200009D0082D0CD00C2D14D10EE031462068BC
:101F300001F09CF810E03146206801F0CFF80BE08A
:101F40003146206801F008F906E03146206801F0CA
:101F50003FF901E0012700BF00BF00BF002084F867
:101F60003C0000BF3846D3E710B504460F4920684F
:101F7000884203D10E4802F029F816E00D49206886
:101F8000884203D10C4802F021F80EE00B4920688A
:101F9000884203D10A4802F019F806E02068B0F13F
:101FA000804F02D1074802F011F810BD0034014003
:101FB000ACAC0020002C014000AD0020000400402B
:101FC00054AD0020A8AD002010B504460CB9012086
:101FD00010BD94F83D0028B9002084F83C0020464C
:101FE00000F026F8022084F83D00211D206800F052
:101FF000DDFF012084F8460000BF84F83E00012187
:102000003F200155402001554120015500BF00BF30
:10201000012084F842004320015544200155452009
:10202000015500BF012084F83D000020D0E70000EA
:1020300038B5044628492068884216D100BF274891
:10204000806940F40060254988610846806900F491
:102050000060009000BF00BF002202211B20FFF79C
:10206000F7F81B20FFF7E4F834E02068B0F1804F68
:1020700016D100BF1948C06940F001001749C86176
:102080000846C06900F00100009000BF00BF0022B8
:1020900002211C20FFF7DCF81C20FFF7C9F819E02B
:1020A0000F492068884215D100BF0C48806940F470
:1020B00000500A4988610846806900F40050009089
:1020C00000BF00BF002202212E20FFF7C1F82E2002
:1020D000FFF7AEF838BD0000002C014000100240B0
:1020E00000340140F0B504460D46002615B994F8B9
:1020F0003E000BE0042D02D13F20005D06E0082DDC
:1021000002D14020005D01E04120005D012801D0A6
:102110000120F0BD1DB9022084F83E000EE0042D20
:1021200003D102213F20015508E0082D03D10221EF
:102130004020015502E002214120015535B1042D16
:102140000BD0082D10D00C2D1CD114E02068C068D5
:1021500040F002002168C86016E02068C06840F0C6
:1021600004002168C8600FE02068C06840F00800E3
:102170002168C86008E02068C06840F0100021684D
:10218000C86001E0012600BF00BFD6BB012229467E
:10219000206800F059FF1F492068884203D01E497B
:1021A0002068884201D1012000E0002028B1206889
:1021B000406C40F400402168486416492068884219
:1021C00013D01549206888420FD02068B0F1804FA5
:1021D0000BD012492068884207D0114920688842F4
:1021E00003D01049206888420CD12068806800F034
:1021F0000707062F0CD02068006840F00100216816
:10220000086005E02068006840F00100216808606F
:1022100030467EE7002C01400034014000040040BD
:1022200000080040000C004070B504460D46002632
:1022300035B1042D0BD0082D10D00C2D1CD114E07D
:102240002068C06820F002002168C86016E020689D
:10225000C06820F004002168C8600FE02068C068F2
:1022600020F008002168C86008E02068C06820F0FD
:1022700010002168C86001E0012600BF00BF002EE9
:102280004AD100222946206800F0DEFE234920685A
:10229000884203D022492068884201D1012000E011
:1022A000002090B100BF2068006A41F2111108407F
:1022B00050B92068006A8910084028B92068406C2D
:1022C00020F400402168486400BF00BF2068006A15
:1022D00041F21111084050B92068006A8910084085
:1022E00028B92068006820F001002168086000BF5C
:1022F0001DB9012084F83E000EE0042D03D1012118
:102300003F20015508E0082D03D10121402001554F
:1023100002E0012141200155304670BD002C0140F2
:1023200000340140704770477047704770B50446ED
:10233000002520684069C0F3C01594F841002128A9
:1023400017D1B5B100BF00BF2168143151E8001F9B
:1023500021F080002168143141E80002002AF3D105
:1023600000BFA06B10B1A06BFEF769F9204601F029
:102370003DF820684069C0F3801594F84200222897
:1023800017D1B5B100BF00BF2168143151E8001F5B
:1023900021F040002168143141E80002002AF3D105
:1023A00000BFE06B10B1E06BFEF749F9204600F08A
:1023B000D7FF002070BD70472DE9F84F0446206814
:1023C00005682068C668206847694FF00009CA465A
:1023D00005F00F09B9F1000F0AD105F0200038B15E
:1023E00006F0200020B1204601F013F8BDE8F88F78
:1023F000B9F1000F7BD007F0010018B906F4907016
:10240000002874D005F0010030B106F4807018B1D6
:10241000606C40F00100606405F0040030B107F02A
:10242000010018B1606C40F00200606405F0020029
:1024300030B107F0010018B1606C40F00400606436
:1024400005F0080048B106F0200010B907F00100BF
:1024500018B1606C40F008006064606C002845D0E2
:1024600005F0200028B106F0200010B1204600F051
:10247000D0FF20684069C0F3801A606C00F008004B
:1024800010B9BAF1000F2CD0204600F069FF206887
:10249000406900F0400000B300BF00BF2168143164
:1024A00051E8001F21F040002168143141E800028A
:1024B000002AF3D100BFE06B50B17748E16B48636D
:1024C000E06BFEF7E7F888B1E06B416B88470DE001
:1024D0002046FFF770FF09E009E02046FFF76BFF99
:1024E00004E02046FFF767FF002060647EE7206B72
:1024F000012877D105F01000002873D006F01000F5
:102500000028FAD000BF00200090206800680090EA
:1025100020684068009000BF00BF2068406900F05C
:10252000400000285FD0E06B006840681FFA80F828
:10253000B8F1000F55D0A08D404552DDA4F82E8093
:10254000E06B8069202843D000BF00BF21680C31B8
:1025500051E8001F21F4807021680C3141E800022D
:10256000002AF3D100BF00BF00BF2168143151E839
:10257000001F21F001002168143141E80002002A07
:10258000F3D100BF00BF00BF2168143151E8001F24
:1025900021F040002168143141E80002002AF3D103
:1025A00000BF202084F842000020206300BF00BF4D
:1025B00021680C3151E8001F21F0100021680C3116
:1025C00041E80002002AF3D100BFE06BFEF737F8C4
:1025D00002206063A08DE28D801A81B22046FFF751
:1025E000A4FE03E742E0A08DE18D401A1FFA80F8B7
:1025F000E08DD0B3B8F1000F37D000BF00BF216825
:102600000C3151E8001F21F4907021680C3141E831
:102610000002002AF3D100BF00BF00BF21681431BF
:1026200051E8001F21F001002168143141E8000247
:10263000002AF3D100BF202084F84200002020634C
:1026400000BF00BF21680C3151E8001F21F01000CD
:1026500021680C3141E80002002AF3D100BF0220BA
:10266000606341462046FFF760FEBFE605F080004C
:1026700030B106F0800018B1204601F02BF8B5E625
:1026800005F0400030B106F0400018B1204600F0DF
:102690009DFEABE600BFA9E62532000810B5044652
:1026A0000CB9012010BDA06900B100E000BF94F892
:1026B000410028B9002084F84000204600F02AF8A4
:1026C000242084F841002068C06820F4005021686C
:1026D000C860204600F01CFF2068006920F490408C
:1026E000216808612068406920F02A00216848615B
:1026F0002068C06840F400502168C8600020606411
:10270000202084F8410084F842000020606300BF6C
:10271000C8E7000010B586B0044600200290039080
:102720000490059048492068884250D100BF47482E
:10273000806940F48040454988610846806900F41A
:102740008040019000BF00BF00BF0846806940F094
:10275000040088610846806900F00400019000BF11
:1027600000BF48150290022003900320059002A9A3
:102770003748FEF72FFB4FF4806002900020039053
:10278000049002A93248FEF725FB3248324908601E
:10279000002048600021304881608021C160002114
:1027A000016141618161C161FEF714FA08B1FDF771
:1027B000C4FE00BF2848E063446200BF0022114607
:1027C0002520FEF745FD2520FEF732FD39E023499F
:1027D0002068884235D100BF1C48C06940F40030F1
:1027E0001A49C8610846C06900F40030019000BF72
:1027F00000BF00BF0846806940F0040088610846B9
:10280000806900F00400019000BF00BF0420029026
:10281000022003900320059002A90D48FEF7DAFA82
:102820000820029000200390049002A90848FEF7B7
:10283000D1FA002211462620FEF70AFD2620FEF7D7
:10284000F7FC06B010BD0000003801400010024047
:10285000000801405800024038AC0020004400400D
:1028600070B504460D46164694F8420020280BD158
:1028700005B10EB9012070BD002020633246294603
:10288000204600F0C3FEF6E70220F4E770477047E9
:102890002DE9F84F04460E46174699464FF0000AB8
:1028A00094F8410020284AD106B117B90120BDE8AB
:1028B000F88F00206064212084F84100FEF742FC7C
:1028C0008246A784E784A068B0F5805F04D12069C0
:1028D00010B90025B04602E035464FF000081BE075
:1028E0005346002280212046CDF8009000F022FFC0
:1028F00008B10320DBE745B9B8F80000C0F30800D1
:102900002168486008F1020803E0287821684860DF
:102910006D1CE08C401EE084E08C0028E0D1534622
:10292000002240212046CDF8009000F003FF08B1BE
:102930000320BCE7202084F841000020B7E70220F4
:10294000B5E7704700BFFEE708B500BF0A48406919
:1029500040F00100084948610846406900F0010064
:10296000009000BF00BF002211460F20FEF770FC50
:102970000F20FEF75DFC08BD0010024000B587B0D7
:102980001C216846FDF7C4FC4FF020401B4908603D
:102990001B4848600420886000211848C16001611C
:1029A0001021416100218161C161016241624FF4E6
:1029B000805181620021C162016341638163002013
:1029C00000900F200190032002900020039010201F
:1029D00004901120059000200690002269460748C7
:1029E000FEF7DEFF08B1FDF7A8FD0648C06940F418
:1029F00080600449C86107B000BD000040AA002003
:102A0000040100A00000014000B585B00020019045
:102A100002900390049000BF6F48806940F040002E
:102A20006D4988610846806900F04000009000BF51
:102A300000BF00BF0846806940F0800088610846FA
:102A4000806900F08000009000BF00BF00BF084612
:102A5000806940F0040088610846806900F0040045
:102A6000009000BF00BF00BF0846806940F008002A
:102A700088610846806900F00800009000BF00BF30
:102A800000BF0846806940F480708861084680690C
:102A900000F48070009000BF00BF00BF084680694E
:102AA00040F0200088610846806900F02000009016
:102AB00000BF00BF00BF0846806940F01000886179
:102AC0000846806900F01000009000BF00BF01229E
:102AD00020214248FEF730FB00224FF4A07140480D
:102AE000FEF72AFB01224FF420713D48FEF724FB3C
:102AF00000224FF481713B48FEF71EFB0122282182
:102B00003848FEF719FB4C2001900020029001206C
:102B1000039001A93148FEF75DF9102001900020D3
:102B200002900220039001A92C48FEF753F92020BF
:102B300001900120029003900320049001A92748EE
:102B4000FEF748F94FF4A070019001200290002098
:102B500003900220049001A92148FEF73BF94FF4AD
:102B60002070019001200290002003900320049027
:102B700001A91B48FEF72EF90120019000200290C8
:102B80000220039001A91848FEF724F902200190C1
:102B900001200290002003900220049001A9114816
:102BA000FEF718F908200190012002900020039000
:102BB0000320049001A90B48FEF70CF94FF4907024
:102BC00001900120029003900320049001A9054880
:102BD000FEF700F905B000BD0010024000180140EA
:102BE000001C0140000C01400008014000B591B0FC
:102BF00000200F9010901C2108A8FDF789FB2021D0
:102C00006846FDF785FB2548254908601120486086
:102C10000021234881604FF6FE71C16000210161EF
:102C200041618161FFF7D0F908B1FDF786FC002012
:102C30000F9010900FA91A48FEF740FF08B1FDF75A
:102C40007CFC302008904FF4FA70099000200A9024
:102C50000B900C900D900E90002208A91048FFF7E1
:102C60004BF908B1FDF769FC00200090019002903B
:102C7000039004904FF4005005900020079069469F
:102C80000748FEF7E1FE08B1FDF757FC0448FEF7E0
:102C9000AFFF0348FFF7BAF811B000BD002C0140A8
:102CA00088AA002000B589B00020079008901C2158
:102CB0006846FDF72DFB4FF080401A49086011204F
:102CC00048600021174881604FF6FE71C160002105
:102CD00001618161FFF778F908B1FDF72EFC002052
:102CE0000790089007A90F48FEF7E8FE08B1FDF726
:102CF00024FC302000904FF4FA70019000200290E4
:102D00000490002269460748FFF7F6F808B1FDF77E
:102D100014FC0448FEF76CFF0248FFF777F809B08F
:102D200000BD0000D0AA00201CB50020009001903A
:102D30000F48104908604720486000210D48816015
:102D400042F21071C16000218161FEF705FF08B1F8
:102D5000FDF7F3FB00200090019069460548FEF75F
:102D6000ADFE08B1FDF7E9FB0248FEF741FF1CBDCF
:102D70000010004018AB002000B591B000200F906B
:102D800010901C2108A8FDF7C3FA20216846FDF722
:102D9000BFFA2548254908601120486000212348D2
:102DA00081604FF6FE71C160002101614161816166
:102DB000FFF70AF908B1FDF7C0FB00200F90109053
:102DC0000FA91A48FEF77AFE08B1FDF7B6FB3020CE
:102DD00008904FF4FA70099000200A900B900C9024
:102DE0000D900E90002208A91048FFF785F808B151
:102DF000FDF7A3FB00200090019002900390049047
:102E00004FF4005005900020079069460748FEF7F0
:102E10001BFE08B1FDF791FB0448FEF7E9FE0348ED
:102E2000FEF7F4FF11B000BD0034014060AB00209C
:102E300010B51148114908604FF416504860002140
:102E40000E488160C16001610C21416100218161F6
:102E5000C161FFF723FC08B1FDF76FFB074800686D
:102E6000C06840F0100005490968C8600A2204499A
:102E70000248FFF7F5FC10BD00380140A8AB002068
:102E8000A1AC002010B50B480B4908604FF4E130AD
:102E90004860002108488160C16001610C214161E6
:102EA00000218161C161FFF7F9FB08B1FDF745FB26
:102EB00010BD000000440040F0AB002000BFFEE762
:102EC00000BFFEE77047000008B508490968C90857
:102ED0004FF47A72B1FBF2F14143009100BF00BFA1
:102EE00000994A1E00920029F9D108BD2C0000204B
:102EF0007047002104E00023821C53544A1CD1B2C5
:102F00000A29F8DB002101704170704710B5FEF707
:102F10001FF910BD00B58FB0282105A8FDF7F8F9FD
:102F200014216846FDF7F4F901200590000406908D
:102F3000002007900120099002200C90C1030D9100
:102F40004FF4E0110E9105A8FEF7F8FA08B1FDF76D
:102F5000F4FA0F20009002200190002002904FF41C
:102F6000806003900020049002216846FEF7C2F9B9
:102F700008B1FDF7E2FA0FB000BD704710B5024886
:102F8000FEF779FE10BD000088AA002010B50248A7
:102F9000FEF771FE10BD0000D0AA002010B5024857
:102FA000FEF769FE10BD000060AB002010B502689E
:102FB000204B98420ED0204B98420BD0B0F1804F5E
:102FC00008D01E4B984205D01D4B984202D01D4B95
:102FD000984203D122F070024B681A43154B984275
:102FE0000ED0154B98420BD0B0F1804F08D0134B48
:102FF000984205D0124B984202D0124B984203D10E
:1030000022F44072CB681A4322F080034C6943EAF1
:10301000040202608B68C3620B688362054B9842AE
:1030200002D0054B984201D10B6903630123436130
:1030300010BD0000002C014000340140000400409D
:1030400000080040000C004030B501F01F050124CD
:1030500004FA05F3046A9C430462046A01F01F0544
:1030600002FA05F52C43046230BD000030B5026A57
:10307000056A25F0010505624368846924F070043F
:1030800024F003040D682C4322F002028D682A43C9
:10309000104DA84200D103E00F4DA84206D100BF59
:1030A00022F00802CD682A4322F00402094DA8420A
:1030B00002D0094DA84207D123F4807323F4007392
:1030C0004D692B438D692B43436084614D68456393
:1030D000026230BD002C01400034014030B5026A6C
:1030E000056A25F0100505624368846924F4E0440C
:1030F00024F440740D6844EA052422F020028D680F
:1031000042EA0512124DA84200D103E0114DA84237
:1031100007D100BF22F08002CD6842EA051222F0FA
:1031200040020B4DA84202D00A4DA84209D123F417
:10313000806323F400634D6943EA85038D6943EAA4
:103140008503436084614D688563026230BD000081
:10315000002C01400034014030B5026A056A25F4B4
:10316000807505624368C46924F0700424F0030488
:103170000D682C4322F400728D6842EA0522124D3C
:10318000A84200D103E0114DA84207D100BF22F4AC
:103190000062CD6842EA052222F480620A4DA8420C
:1031A00002D00A4DA84209D123F4805323F40053DE
:1031B0004D6943EA05138D6943EA05134360C46111
:1031C0004D68C563026230BD002C014000340140EF
:1031D00030B5036A056A25F4805505624468C26902
:1031E00022F4E04222F440720D6842EA052223F400
:1031F00000538D6843EA0533084DA84202D0084DBC
:10320000A84204D124F480444D6944EA8514446002
:10321000C2614D680564036230BD0000002C0140AE
:103220000034014070B505466C6A0020E085E084FA
:103230002046FFF7C0F870BD70B506460025746AD9
:1032400020684069C0F3C01594F84100212805D1D9
:1032500025B10020E084204600F0C8F820684069CD
:10326000C0F3801594F84200222805D125B1002032
:10327000E085204600F074F8606C40F01000606457
:103280002046FFF798F870BD70B505466C6A28684F
:10329000006800F02000002842D1E08500BF00BF98
:1032A00021680C3151E8001F21F4807021680C3135
:1032B00041E80002002AF3D100BF00BF00BF21682F
:1032C000143151E8001F21F001002168143141E858
:1032D0000002002AF3D100BF00BF00BF21681431F3
:1032E00051E8001F21F040002168143141E800023C
:1032F000002AF3D100BF202084F84200206B01286F
:103300000ED100BF00BF21680C3151E8001F21F031
:10331000100021680C3141E80002002AF3D100BFFF
:1033200000206063206B012804D1A18D2046FEF7A8
:10333000FCFF02E02046FFF7A9FA70BD70B5054614
:103340006C6A01206063206B012805D1A08D4108C3
:103350002046FEF7EAFF02E02046FFF798FA70BD2C
:1033600000BF00BF02680C3252E8002F22F49071B7
:1033700002680C3242E80013002BF3D100BF00BFFB
:1033800000BF0268143252E8002F22F001010268E7
:10339000143242E80013002BF3D100BF016B012966
:1033A0000ED100BF00BF02680C3252E8002F22F09D
:1033B000100102680C3242E80013002BF3D100BF69
:1033C000202180F8421000210163704710B50446A7
:1033D0002068C06820F040002168C860202084F880
:1033E00041002046FFF7ADFA002010BD00BF00BF2E
:1033F00002680C3252E8002F22F0C00102680C3241
:1034000042E80013002BF3D100BF202180F84110C7
:103410007047F8B5044694F84200222875D1A06898
:10342000B0F5805F0CD1206950B90025A66A2068EC
:103430004068C0F308003080A06A801CA06215E0DC
:10344000A56A0026A068B0F5805F03D0A06828B9FF
:10345000206918B920684068287004E02068406836
:1034600000F07F002870A06A401CA062E08D401E22
:1034700080B2E085002846D12068C06820F0200096
:103480002168C8602068C06820F480702168C86026
:103490002068406920F0010021684861202084F8FC
:1034A000420000206063206B012826D100202063A9
:1034B00000BF00BF21680C3151E8001F21F010004F
:1034C00021680C3141E80002002AF3D100BF2068D6
:1034D000006800F0100010280AD100BF0020009002
:1034E00020680068009020684068009000BF00BF1E
:1034F000A18D2046FEF719FF02E02046FFF7C6F92E
:103500000020F8BD01E00020FBE70220F9E7000001
:1035100070B504462168096921F44051E2681143FD
:10352000226811612269A1681143626941EA0205BA
:103530002168C96841F20C62914329432268D16035
:103540002168496921F44071A269114322685161DF
:103550002D4A2168914202D1FDF7A8FF01E0FDF755
:1035600095FF00EBC00101EB001162689200B1FB16
:10357000F2F100EBC00202EB001263689B00B2FBA9
:10358000F3F26423B2FBF3F202EBC20303EB021289
:10359000A1EB8201322202EB01116422B1FBF2F1B4
:1035A00001F0F00100EBC00202EB001263689B0027
:1035B000B2FBF3F26423B2FBF3F201EB021200EB75
:1035C000C00101EB001163689B00B1FBF3F100EB5C
:1035D000C00303EB00136668B600B3FBF6F3642682
:1035E000B3FBF6F303EBC30606EB0313A1EB830176
:1035F000322303EB01116423B1FBF3F101F00F015E
:1036000011442268916070BD0038014077B581B0E7
:10361000044615460298A062A58500206064222019
:1036200084F842002848E16B88622848E16BC86250
:103630002748E16B08630020E16B486302AE326803
:103640002368191D2B46E06BFDF70AFB00BF002025
:10365000009020680068009020684068009000BFDB
:1036600000BF206970B100BF00BF21680C3151E874
:10367000001F41F4807021680C3141E80002002AEB
:10368000F3D100BF00BF00BF2168143151E8001F13
:1036900041F001002168143141E80002002AF3D111
:1036A00000BF00BF00BF2168143151E8001F41F086
:1036B00040002168143141E80002002AF3D100BF24
:1036C000002004B070BD0000893200083D330008BE
:1036D00039320008014691F84100212828D1886834
:1036E000B0F5805F0BD1086948B90A6A1088C0F349
:1036F00008000B685860086A801C086205E00B6AC5
:10370000581C086218780B685860C88C401E80B23C
:10371000C88458B90868C06820F080000B68D86079
:103720000868C06840F040000B68D860002070470F
:103730000220FCE72DE9F04104460D461746984665
:10374000069E34E0701C88B32EB1FDF7FBFCA0EBA5
:103750000800B0422BD900BF00BF21680C3151E8EE
:10376000001F21F4D07021680C3141E80002002ACA
:10377000F3D100BF00BF00BF2168143151E8001F22
:1037800021F001002168143141E80002002AF3D140
:1037900000BF202084F8410084F8420000BF0020D0
:1037A00084F8400000BF0320BDE8F081FFE72068F7
:1037B00000682840A84201D1012000E00020B84262
:1037C000C0D00020F0E7000038B50024174800689A
:1037D0000068C0F30014F4B100BF0020009013484B
:1037E000006800680090114800684068009000BFC1
:1037F00000BF0E48006805680C48006845680B4823
:10380000FEF794FD0A4800684568C5F10A000949B9
:103810004870012008700A220649891C0348FFF7F6
:103820001FF80248FEF7C8FD38BD0000A8AB002015
:1038300038AC00209FAC002010B50248FEF7BCFD5C
:1038400010BD0000F0AB002000BFFEE7490050EAC9
:10385000C12018BF04204A0D18BF40F0010040F2FB
:10386000FF72B2EB515F08BF40F00200012808BFB1
:10387000052070474100080218BF04200A0E18BF37
:1038800040F001004FF07F4232EA010108BF40F0F2
:103890000200012808BF05207047000002480068A8
:1038A000C0F30220704700000CED00E010B50028C6
:1038B00004DB0A07130E054A135406E00A07140E28
:1038C000034A00F00F031B1FD45410BD00E400E0B6
:1038D00018ED00E02DE9F0414F1E00EBC701044652
:1038E000D1E9000115461E4637F006020DD02A46E2
:1038F000334602F0DBFA7F1E04EBC703D3E9002353
:1039000002F03EF837F00602F1D1022F25D0042F45
:1039100013D0062F18BFBDE8F0812A46334602F0C7
:10392000C5FAD4E90A2302F02BF82A46334602F0FE
:10393000BDFAD4E9082302F023F82A46334602F000
:10394000B5FAD4E9062302F01BF82A46334602F002
:10395000ADFAD4E9042302F013F82A46334602F004
:10396000A5FAD4E9022302F00BF82A46334602F006
:103970009DFAD4E90023BDE8F04102F001B800004F
:10398000002213461046014902F0B6B80000F03F8D
:1039900001F0F6BF002213461046114602F0ACB803
:1039A00040F2013200204FF0E04103F020B9000066
:1039B000024A0020110703F01AB9000001FDFFFFC1
:1039C00000214FF07E5002F021BE02F0ABBD00217D
:1039D000084602F01BBE61214FF0E04003F035B90C
:1039E0006FF05E01080703F030B900BF70470000B8
:1039F00038B5044694B1012C04D0042C19D0052C00
:103A00002FD122E042F210704FF07C531A464FF44F
:103A1000C8510090164800F09BFA23E000204FF0B8
:103A20007C531A464FF496510090114800F090FADA
:103A300018E04FF4FA604FF07C531A464FF4965159
:103A400000900B4800F084FA0CE040F2DC504FF09C
:103A50007C531A464FF4C8510090054800F078FA9C
:103A600000E000BF00BF03480470002038BD000024
:103A7000A8AD00203100002000BF054A126802F006
:103A80004002002AF9D0C2B2014B1B1D1A607047D8
:103A90000044004001460022002007E00A4B53F892
:103AA000213033F8103003B1521C401C074B53F83F
:103AB00021308342F2D864205043044B53F8213024
:103AC000B0FBF3F080B2704708000020D06C000813
:103AD00070B50546002433480078002841D01021F5
:103AE0003148FDF717FB012814D008212E48FDF7B7
:103AF00011FB78B104212C48FDF70CFB50B140219B
:103B00002948FDF707FB28B101212848FDF702FBF2
:103B1000012826D10920FDF7F1F80020214908707D
:103B200010212148FDF7F6FA012800D101240821CF
:103B30001D48FDF7EFFA00B9022404211A48FDF7E9
:103B4000E9FA00B9032440211748FDF7E3FA00B968
:103B5000042401211548FDF7DDFA012820D10524B0
:103B60001EE010211048FDF7D5FAC8B908210E480B
:103B7000FDF7D0FA012813D104210B48FDF7CAFA4A
:103B800001280DD140210848FDF7C4FA012807D1CA
:103B900001210648FDF7BEFA10B90120014908705D
:103BA000204670BD3200002000180140000801408E
:103BB00070B504460D4623E000BF2CB10022202141
:103BC0001148FDF7B9FA04E0002220210F48FDF763
:103BD000B3FA00BFFA20FDF791F800BF2CB1012223
:103BE00020210948FDF7A8FA04E001222021074816
:103BF000FDF7A2FA00BFFA20FDF780F8681EC5B2F3
:103C0000002DD9DC70BD0000000C014000180140FF
:103C100008B5FDF7A9FAFFF77DF9FEF7F5FEFEF707
:103C200093FEFFF705F9FFF7A7F8FFF77DF8FEF71A
:103C3000DDFFFEF7A3FEFFF735F8FFF723F901F0EC
:103C400055FD00F067F800F0D5F803210120FFF7DB
:103C5000AFFF52E00020FFF73BFF284908700846FD
:103C6000007880B308460078062830D2DFE800F0FC
:103C70002F060A1B2C0301F0CDFC28E00020FFF7E3
:103C8000B7FE24E04FF4FA701D4B1A464FF4C8619A
:103C900000901C4800F0C8F800BF1A4890F82B00AC
:103CA0000028FAD113E01848154B1A464FF4C861A2
:103CB0000090144800F0B8F800BF124890F82B00AC
:103CC0000028FAD103E003E001F064FD00BF14E036
:103CD0000E480078401C0D4908700A20FDF70EF8C8
:103CE0000A480078322808D100200849087000BF2F
:103CF00020210748FDF716FA00BFABE710000020AF
:103D0000CDCCCC3DA8AD00200CFEFFFF1200002062
:103D10000018014000B50F4909684A000E4988683B
:103D2000002100F005FB0D490A680B4908680021D5
:103D300000F0FEFA074949684A000749C8680021AF
:103D400000F0F6FA05494A6803494868002100F086
:103D5000EFFA00BDD06C000800000020D86C00080D
:103D600010B5044694F82C00012806D0022815D07E
:103D7000032825D0042835D123E000BF94F82D0076
:103D800028B1002280211948FDF7D6F904E001226C
:103D900080211648FDF7D0F900BF24E000BF94F859
:103DA0002D0030B100224FF400711048FDF7C4F926
:103DB00004E0012251020D48FDF7BEF900BF12E0F8
:103DC00011E000BF94F82D0028B100220821084816
:103DD000FDF7B2F904E0012208210548FDF7ACF92E
:103DE00000BF00E000BF00BF10BD0000001C01408C
:103DF000000C01400120084981F82C0002200749ED
:103E000081F82C000320064981F82C000420054984
:103E100081F82C0070470000ACAC002000AD002001
:103E200054AD0020A8AD00202DE9F04704460E4611
:103E300017469846089D334600223946204600F032
:103E400081FA012801D1BDE8F0870120FFF722FEA9
:103E5000814694F82C104A462BA0FCF7DDF900238C
:103E600032464146204600F06DFA012800D1EAE7CB
:103E70000120FFF70FFE814694F82C104A4628A037
:103E8000FCF7CAF9002D03DD002084F82D0003E0C3
:103E9000012084F82D006D422046FFF761FFD4E930
:103EA00001010844A84211DD0120E16800F0CAF9CF
:103EB0000120216900F0C6F90120FFF7EBFD8146E2
:103EC00049461DA0FCF7A8F90220BCE7E561A168FE
:103ED000E069401AA06100202062012084F82B00D4
:103EE000E068606160690168184802F08FFB8146F4
:103EF00002F094FC20856069001D6061204600F09E
:103F0000FDF800209FE700006D6F746F722564203C
:103F10006D616C6C6F63204143432025640D0A0082
:103F20006D6F746F722564206D616C6C6F632044DB
:103F300045432025640D0A005374657020746F6F2B
:103F4000204C6F7721202564000000000024744A73
:103F50002DE9FE4F05460E4690469946DDF830A005
:103F6000686AAAEB00044B46424631462846009454
:103F7000FFF75AFF8346304602F070FC019020465E
:103F800002F06CFC0090019902F040FB084902909D
:103F900002F086FD20F00047BBF1020F06D13B4640
:103FA0003A46314628460094FFF73EFFBDE8FE8FB3
:103FB0000AD7233C90F82D1019B9416A491C416277
:103FC00002E0416A491E41627047000070B5044634
:103FD00014F82A0F401C207014F82A0902287AD1FC
:103FE000002084F82A0094F82B0048B194F82B00A4
:103FF000042805D02046FFF7DDFF206A401C206220
:1040000094F82B00052864D2DFE800F062033D201D
:10401000500060690168324802F0F8FA06464FF035
:10402000804102F0F3FA054602F0F8FB2085606952
:10403000001D60616168206A884206DB0120E1683A
:1040400000F000F9022084F82B0043E06069016869
:10405000234802F0DBFA06464FF0804102F0D6FA20
:10406000054602F0DBFB20856069001D6061D4E934
:104070000710884206DB0120216900F0E3F80420E4
:1040800084F82B0026E0174A216892FBF1F000EB40
:10409000D071C1F34F012185A169206A884204DBF8
:1040A00020696061032084F82B0013E0204600F0B3
:1040B0006DF80120FFF7EEFC054694F82C102A4617
:1040C00009A0FCF7A9F8002084F82B0002E002E028
:1040D00000E000BF00BF204600F07EF870BD000089
:1040E0000024744A00093D006D6F746F72256420CE
:1040F000667265652025640D0A00000010B504464F
:1041000094F82C00012806D0022814D0032822D0CD
:10411000042831D120E00020194909684862208D27
:1041200000EBD0714910164A1268516300211448FF
:10413000FDF7D8FF21E00020124909684862208D70
:1041400000EBD07149100F4A1268516300210D48ED
:10415000FDF7C8FF11E010E000200B490968486234
:10416000208D00EBD0714910074A1268516300217D
:104170000548FDF7B7FF00E000BF00BF10BD00001D
:1041800060AB002088AA0020D0AA002010B5044609
:1041900094F82C00012806D0022809D003280CD05E
:1041A000042810D10AE000210848FEF73DF80BE092
:1041B00000210748FEF738F806E005E00021054831
:1041C000FEF732F800E000BF00BF10BD60AB00207A
:1041D00088AA0020D0AA00200021002290F82C30CC
:1041E000012B06D0022B0ED0032B16D0042B1FD18F
:1041F00014E0114B1B68596A038D0B449AB20E4BA5
:104200001B685A6315E00D4B1B68596A038D0B44FC
:104210009AB20A4B1B685A630BE00AE0084B1B6812
:10422000596A038D0B449AB2054B1B685A6300BF51
:1042300000BF00BF7047000060AB002088AA0020CC
:10424000D0AA0020F0B5134B53F82030CC1A01B996
:10425000F0BD114B53F82030A34200D8F8E70F4BC4
:1042600053F82030B4FBF3F20A4B083353F82030F4
:1042700033F81250002309E00027064E083656F89E
:10428000206002EB030C26F81C705B1CAB42F3DBD6
:1042900000BFDDE700000020D86C0008C86C0008F3
:1042A000F0B502460B46002100251E4850F82200BA
:1042B000B3FBF0F40BB90020F0BD1A4850F822000F
:1042C000B3FBF0F600FB163000B1641C164850F842
:1042D0002200411E22E0154850F8220030F811005B
:1042E00008B1002519E06D1CA54215D1002007E09A
:1042F0000E4E56F8226001EB000C26F81C40401CC4
:10430000A042F5D30948083850F82200054E56F867
:10431000226001FB0600CFE700BF491E0029DADA60
:104320000020C9E7C86C0008D06C00080800002015
:1043300030B5034601E003F8011B141EA2F101028F
:10434000F9D130BD2DE9FF4F93B0074693460020C9
:104350001190BBF1000F03D001201190CDF858B09F
:104360001698386000241499084602F0C3FA0B909E
:10437000169802F073FA4FF08141099002F0BAFAF0
:104380000A900B9902F042F9064602F09FF821F0DC
:104390000041CDE90C0101F007FD1090149802F0E6
:1043A00095F80022984BCDE9040100F037F9CDE9EA
:1043B0000801109801F027FDCDE90601DDE9082389
:1043C00001F074FD0022914BCDE90A0101F094FB4C
:1043D000CDE90C0101F0E8FC8046404602F03EFACF
:1043E0000C90169802F03AFA0A90149902F082FAA8
:1043F00006464FF0804102F009F90B900C9902F04B
:104400004FFB0D9002F0C4F90F900F9808EB0005D8
:10441000284605EBD0714910A5EB410101B16D1C97
:10442000681C81000120FFF73BFF04461CB90120F6
:1044300017B0BDE8F08F109802F010FA014609900D
:10444000734802F0E3F8064602F040F84FF0C0422D
:10445000704BCDE90A0100F0E1F8CDE90C0101F063
:104460005DFA8146CA46484602F030F800224FF015
:104470008043CDE9040100F0D1F8CDE9080110989E
:1044800001F0C1FCCDE90601DDE9082301F00EFDD4
:1044900000224FF08043CDE90A0101F02DFBCDE968
:1044A0000C0101F03BFA20605B49206802F0EEF954
:1044B00001D259482060012680E0701E54F8201077
:1044C0004FF07E5002F0A2F881464946504602F075
:1044D00029F8824646452BDA4FF08041504600F0DD
:1044E00089FD0D90109802F0B9F94FF07C510B90B6
:1044F00002F000FA0C900D9902F0FCF944F8260045
:10450000A8F10100B04212D14FF08041149802F09E
:104510007DF851460A9002F0B9FA0B9001F0D6FFEF
:1045200021F00041CDE90C0101F0F8F9824644E0A8
:104530004FF08041149802F069F85146009002F063
:10454000AFFA019001F0C2FF21F0004100224FF0CC
:104550008043CDE9020100F061F8CDE90601109831
:1045600002F07CF94FF07C51029002F0C3F9039005
:1045700001F0ACFFCDE90401DDE9062301F096FC72
:10458000CDE90A01169801F03EFCCDE90801DDE90C
:104590000A2301F0B1FECDE90C0101F0BFF944F8A6
:1045A0002600169802F05AF90D9054F8261002F0E1
:1045B0006DF901D8354604E000BF761CAE42FFF627
:1045C0007CAF00BF119818B9FC607D6000202FE718
:1045D00000200E9000BF0EE054F820100E91291A12
:1045E000491E54F8211044F820102A1A521E0E9920
:1045F00044F82210401C05EBD572B0EB620FEBDBE8
:104600003C61BD60002013E7000008400000484006
:104610000000C0405555D53F000074422DE9F04DD3
:104620001D460C4698B0174621F0004123F0004388
:10463000002814BF4FF0010C4FF0000C0CEB440CA1
:10464000FE4A0CEB02064FEA620C66452BD33E0095
:1046500018BF012606EB45061644F94A964222D3B6
:10466000F84A53EA070C02D0944205D148B918B071
:1046700000201146BDE8F08D002808BF4FF0000C67
:1046800001D04FF0010C0CEB440212F5001F0AD8C8
:10469000002F14BF4FF0010C4FF0000C0CEB450243
:1046A00012F5001F07D918B03A462B462146BDE83F
:1046B000F04DFFF76DB90022DFF88CA3002CB8BFD6
:1046C000534526DADFF884C36345A8BF022220DA07
:1046D000DFF870C39C451CDCDFF874C30CEB235C73
:1046E000BCF1140F08DDCCF1340627FA06FC0CFAF5
:1046F00006F6BE420DD108E05FB9CCF1140623FAEC
:1047000006FC0CFA06F69E4203D10CF00102C2F13F
:10471000020251EA000C19D1002D17DA002C18BF43
:10472000022A01D0012A07D00220FBF721FE18B08F
:10473000BDE8F04DFFF724B90220FBF719FEFFF7A3
:104740001FF918B081F00041BDE8F08DB7F1000C01
:104750006CD1534525D104F1804212F5801201BF7E
:1047600000280020B74918B008BFBDE8F08DB54853
:10477000884207DC002DA1BF6046294618B0BDE87D
:10478000F08D07E0281E05DA80F0004118B0604681
:10479000BDE8F08DAF497944D1E9000118B0BDE81A
:1047A000F08DDFF8A0C2634525D1002D1FDA19B1C5
:1047B000514512D1D8B909E0002840F0EC82A24A54
:1047C000214618B062F31E01BDE8F08D002021469D
:1047D00018B060F31E01BDE8F08D08DA18B023466A
:1047E000BDE8F04D02460020614601F085B918B0E1
:1047F0002146BDE8F08D514518DAB5F1804F0DD056
:10480000A5F1005CBCF1FF5C10D1B4F1000C0DDB34
:1048100018B06146BDE8F04D00F096BF234618B0D1
:104820000246BDE8F04D194601F040BB060024F0F9
:10483000004C3BD1D9B1514533D1002C06DD002DC0
:10484000A1BF0020514618B0BDE8F08D002C01DD5D
:10485000002D1BDB002C13DA002D11DB012A4FF099
:10486000000014BF78497C4918B0BDE8F08D022AD9
:1048700018BF002C0AD0012A08D1002C06DA0AE061
:10488000002CB8BF002D11DA012A04D0002018B086
:104890000146BDE8F08D18B000204FF00041BDE8A2
:1048A000F08DA1F14050B0F17F601AD0012000EBF3
:1048B000E47050EA020421D0624C521E4FF0000B0B
:1048C000104304BF4FF0000B644C654883427CDD0D
:1048D000644A654893421FDD884217DB002D25DBC3
:1048E00037E0002C00DA4AB1022A0CBF01204FF059
:1048F000FF3018B0BDE8F04D01F085BA0120FBF79C
:1049000037FD18B0BDE8F04DFFF744B84D4A8A4274
:1049100002DC002D0ADC1CE0814202DA002D18DAEC
:1049200004E0484B994220DD002D12DD0220FBF708
:104930001FFDFFF735F805460E4600225346584640
:10494000214601F0B3FA18B066F31E012846BDE80F
:10495000F08D0220FBF70CFDFFF72AF80A462146EE
:1049600018B062F31E01BDE8F08D002230466146AA
:1049700001F0C2FC80460E466FF0010202F037F9EA
:104980004FF05532394B01F0C5FB4246334601F03A
:104990008DFA0022364B01F0BDFB8246424633467B
:1049A00004911046194601F081FA5246049B01F029
:1049B0007DFA8A4600904FF0C0422E4B4046314669
:1049C00001F074FA2C4A2B4B00E027E0CDE90601F8
:1049D0005146009801F06AFA82460191274A284B15
:1049E0004046314601F062FA5246019B01F084FCD8
:1049F00082460B4602460591DDE9060100F0C0FF44
:104A0000DDE9062300268846304601F075FC524653
:104A1000059B01F07FFB024600F07EB90020B1F556
:104A2000801F07DA35223046614602F0E0F806467C
:104A30006FF0340000EB215024E00000FFFF1F0066
:104A4000FFFF0F000000F03F0000F07F0000404338
:104A500001FCFFFF3E2700000000F0FF0000F0BF58
:104A60000000E0410000F043FFFFEF3F5555D53F08
:104A70000000E03F4715F73FFE822B6544DF5DF8FD
:104A80000BAE543EA0F2FF300190C1F3130040F092
:104A90007F6141F040510291FE498842D8BF002019
:104AA00004DDFD498142C8BF012001DD0D9008E011
:104AB00000200D900198401C01900298A0F58010F4
:104AC00002900299F54878440B910D9900EBC100D2
:104AD000D0E900230F9330460A920B9901F00CFCA9
:104AE000CDE90601DDE90A2130460F9B00F048FFC1
:104AF00002460B460020EA4900F0FEFF05910246FF
:104B00000B460090DDE9060101F0D0F91490E5486C
:104B10008A464FF0000878440299006812904FF0DE
:104B2000005040EA61010D980F9B01EB804000F5B9
:104B3000002109910A9A129801F0DEFB32460B9B84
:104B400001F0E8FA4246534601F0B0F906460291F8
:104B500040465146099B129A01F0A8F9DDE9062367
:104B600001F0D8FA3246029B01F0C6FB059B009A81
:104B700001F09CF90091149A04905346104619468E
:104B800001F094F906460246C7480B4602910621F9
:104B90007844FEF79FFECDE90510029B3246104691
:104BA000194601F083F9DDE9053201F07FF905913D
:104BB0000646534640461946149A00F0E1FE009B13
:104BC000049A01F073F93246059B00F0D9FECDE955
:104BD0000510424653461046194601F067F9002277
:104BE000B24B02910A9000F0CBFEDDE9053200F0F5
:104BF000C7FE0E464246AD4B404601F07DFB029B90
:104C00000A9A01F079FBDDE9053201F083FA4246A8
:104C100002910A9033461046514601F047F9CDE91A
:104C200006015346149A02990A9801F03FF98A4600
:104C30000290334642460099049801F037F95346F2
:104C4000029A00F09DFE82460B4602460591DDE980
:104C5000060100F095FEDDE90623002088460646A1
:104C600001F04AFB5246059B01F054FA8246099135
:104C70004FF060428E4B3046414601F017F90490E8
:104C800006918C4A8A4B5046099901F00FF98246E9
:104C90000291894A894B3046414601F007F9524654
:104CA000029B00F06DFE864B7B440D9A03EBC20322
:104CB000D3E9002300F064FE0E900791019801F003
:104CC000A2F80591DDE9061382460E9A049800F0D9
:104CD00057FE7C4A7A440D9B02EBC303D3E90023C1
:104CE0000093029200F04CFE5246059B00F048FEF5
:104CF0000026884652463046059B01F0FDFA009B8F
:104D0000029A01F0F9FA069B049A01F0F5FA079B62
:104D10000E9A01F0FFF9024600200B460290384639
:104D2000294601F0C3F8824601912B4638461946C0
:104D3000029A01F0E1FA3246434601F0B7F85246D2
:104D4000019B00F01DFE07468A463246434629462F
:104D5000029801F0ABF805460E463A46534600F07D
:104D60000FFE594A8846914221DBA8EB020353EA21
:104D7000000210D12A46334601F0BEFACDE9040103
:104D8000524A534B3846514600F0FAFDDDE9042300
:104D900001F08AF921D20220FBF7EAFAFEF700FEC1
:104DA0000A46214618B062F31E01BDE8F08D494B5A
:104DB00028F000429A4210D3474A08EB020353EA14
:104DC00000027FF4C6AD2A46334601F095FA3A4612
:104DD000534601F069F97FF6BCAD0022019228F03C
:104DE00000403E493E4A01EB2051824223DA481CF2
:104DF0004FF4801121FA00F040443A4AC0F30A51BE
:104E00007A44394BA1F2FF31CB4020EA0303C0F3CF
:104E1000130040F48010C1F11401C84012680190E1
:104E2000B8F1000FBCBF404201902846314601F066
:104E300063FA05460E462A4633463846514600F088
:104E40009FFD4FF000084246284B4046059101F077
:104E50002DF8CDE90601264A264B4046059901F07A
:104E600025F8009102902A4633464046059901F004
:104E700043FA3A46534601F04DF91F4A1F4B01F0E1
:104E800015F8009B029A00F07BFD07468846024613
:104E90000B4635E08E9803007AB60B0046220000E0
:104EA0000000F03FBE230000AC21000000000840DD
:104EB00009C7EE3FFD033ADCF5015B14E02F3EBE6F
:104EC000842000004820000000009040FE822B65F6
:104ED0004715973C00CC904000346F3F01FCFFFF2A
:104EE0000000E03FD4200000FFFF0F00432EE63F0C
:104EF000396CA80C615C20BEEF39FAFE422EE63F09
:104F0000DDE9060100F03CFDDDE9062305460E461D
:104F100001F0F2F93A46434601F0FCF80F462A4602
:104F2000334600901046194600F0C0FF8246024604
:104F30002E4888460B4605217844FEF7CBFC5246A6
:104F4000434600F0B3FF2A46334601F0E3F88046BB
:104F50008A463B4628463146009A00F0A7FF3B466A
:104F6000009A00F00DFD0691009000224FF0804362
:104F70004046514601F0C0F90F460C904246534658
:104F80002846314600F092FF3B460C9A00F0B4FDF3
:104F9000069B009A01F0B0F92A46334601F0ACF9BD
:104FA0000022134B01F0B6F8054601980E4601EBBE
:104FB00000510815002810DC28463146019A01F0FE
:104FC00016FEFEF743FC042808BFFEF7F1FC284656
:104FD0003146019A01F00BFE05460B4618B02A46F1
:104FE00058462146BDE8F04D00F060BF341E000079
:104FF0000000F03F2DE9F04D0E460023A0F5000C17
:105000004FF00071354684B002464FF07E5401EBFC
:1050100045014FF07F48BCF1FE4F80F09F81B1F118
:10502000804FC0F0DB81FE490144B1F5005F40F2E2
:10503000A78200F58021C90C01F00F07C1F3071109
:105040007F39A2EBC15501EB030B384601F006FC9A
:105050006FF0030101F0F9FD4FF07E5101F062FAAB
:1050600001460290284601F01BFD01902846029956
:1050700001F058FA00F5006A6FF30B0A00905146F0
:10508000029801F00DFD294601F04CFA02904FF014
:105090007E50009901F0BAFA01460090019801F0A3
:1050A00029FC00F500656FF30B052846029901F015
:1050B00021FC02905146284601F01CFC019901F0A8
:1050C000E5FC029901F0ECFC009901F013FC0146AB
:1050D0000190284601F026FA0146029001F00AFCF0
:1050E0008246D04901F006FCCF4901F01BFA514637
:1050F00001F000FC82460021284601F0A6FD009048
:105100005146029801F0F6FB05460021019801F096
:105110009CFD294601F006FA82460146009801F0FE
:1051200001FA00F500656FF30B052946009801F0C0
:10513000B7FC514601F0F6F98246BC49284601F019
:10514000D9FB0090BA49504601F0D4FB8246B949D8
:10515000284601F0CFFB514601F0E4F982460146B2
:10516000009801F0DFF900F500656FF30B052946A3
:10517000009801F095FC514601F0D4F98246AE4802
:10518000784450F8371000EBC700019147684FEAA8
:105190000B1001F063FB00903946504601F0C2F954
:1051A000294601F0BFF9019901F0BCF9009901F01D
:1051B000B9F900F5006B6FF30B0B5846009901F03D
:1051C0006FFC019901F06CFC294601F069FC39463D
:1051D00001F066FC514601F059FC06F50067824675
:1051E0006FF30B073946304601F05AFC002100905E
:1051F00008464FF0000000F00C063946584601F012
:1052000079FB054620F00040B0F18B4F0ADDB8EB8A
:10521000400F07D34FF08B4060F31E052F464FF031
:10522000000A1FE03846009901F07CF9514601F070
:1052300061FB07465846009901F05CFB394601F0D6
:1052400071F982460146284601F06CF900F50067C5
:105250006FF30B073946284601F022FC514601F056
:1052600061F9824631460C204FF000005146384625
:1052700001F058F901F0A8FA0646051101F0EEFA1E
:10528000394601F003FC514601F04CF907466B49E1
:1052900001F030FB6A4901F045F9394601F02AFB7B
:1052A000684901F03FF9394601F024FB01466648A0
:1052B00006F00F06784450F8260001F01BFB634906
:1052C000794451F8261001F02DF96149794451F8DB
:1052D000261001F027F905F17D01FC2908D22946A5
:1052E00001F0B3FC04B02146BDE8F04D01F002BB73
:1052F00005F1BF01B1F5BF7F16D8294601F0A5FC25
:10530000214601F0F7FA0546B8EB450F1AD06800C0
:105310000CD02846FEF7AEFA042808BFFEF760FB63
:10532000284604B0BDE8F08D002D0BDA0220FBF713
:105330001FF8FEF755FB0146204604B061F31E003E
:10534000BDE8F08D0220FBF713F8FEF744FB0146A1
:10535000204604B061F31E00BDE8F08DB1F1804F2E
:105360003CD300BF00F1FF41B1F1FE4F21D200BF9D
:1053700020F00042C5F3C75110467F290DDB972965
:10538000BFF651AEC1F196014FF0010C0CFA01F1DC
:10539000A1F1010C1CEA050F07D00120FAF7E8FF84
:1053A00004B0BDE8F04DFEF712BB294218BF294CEE
:1053B00039E641001CBF4FF08071B1EB400F09D9B5
:1053C0001B2101F042FC02466FF01A0310F0004F5F
:1053D000CED128E6BCF1FE4F18D224E6B1F1007F11
:1053E0000ED336F0004105D006F0004141F0FC55E7
:1053F0002E46B7E7410018BFB8EB400F78D8B1E7A9
:10540000B1F1807F38BFA5F50006ABD320F0004195
:105410006FF0FF4C104C01EB0C03A3422FD31DE0A7
:10542000001080C07EE24C3EABAAAA3E00B03842DB
:105430003BAA3842D49AB8BB141C0000FC5963370D
:10544000C9FF753A1872313DE01B0000941B000043
:10545000481B0000000080BFFFFF3F0025F0004315
:105460009C44A4450BD3B0F17E5F18BF5FEA450CA6
:105470003ED0B1F1FF4F98BFB3F1FF4F05D904B053
:105480003146BDE8F04DFEF7A0BAB0F1FF4F0FD0A6
:10549000C5F3C7517F2909DB972911DAC1F19601BC
:1054A000012202FA01F14A1E2A4205D0002108E039
:1054B00015F0004F55D128E0294218BF012100D135
:1054C000022110F5000F14D020B3B0F1004F27D007
:1054D00010F1814F4ED04FF0FE41B1EB400F94BF21
:1054E00001200020012101EBE571884239D10CE057
:1054F00040E015F0004F02D0012936D031E00129FB
:1055000002BF3F4804B0BDE8F08D4FF0FF4004B04B
:10551000BDE8F08D15F000400ED104B0BDE8F08D6F
:10552000B5F1FF4F1DD015F5000F05D015F0004F58
:1055300014D009B1012907D00220FAF719FF04B0ED
:10554000BDE8F04DFEF73CBA0220FAF711FFFEF776
:1055500037FA04B080F00040BDE8F08D09B10129B0
:1055600003D004B00020BDE8F08D04B04FF000403F
:10557000BDE8F08D04B04FF07E50BDE8F08D00BF67
:105580004FF07E5101F08CFA05466FF0010101F0F9
:105590005CFB1C4901F07AFA294601F0ABF94FF0A7
:1055A0007C5101F073FA07462946084601F0A2F93A
:1055B00080F00040394601F09DF9824612492846A4
:1055C00001F098F907461149504601F093F98246D7
:1055D0000F49284601F08EF9514600F0A3FF054619
:1055E0000146384600F09EFF00F5006B6FF30B0B91
:1055F0005946384601F054FA294600F093FFECE58D
:10560000000080FFABAAAA3E00B0B8413BAAB84157
:10561000D49A38BB08B500204FF07C531A464FF49B
:10562000486100900848FEF793FC00204FF07C533F
:105630001A464FF4486100900448FEF789FC0020A8
:10564000FEF7D6F908BD0000ACAC002000AD00208C
:1056500070B505460C46164655200E494870087030
:10566000082088700320C870012008714E71301224
:1056700088710846C5710C72201248724FF6FF738C
:105680000A220548FDF704F9044800EB8500448030
:1056900070BD00008CAC0020A8AB00207CAC0020CA
:1056A00070B504460D46164624B1012C16D0022CC6
:1056B0001AD10DE0324629460020FFF7C9FF40F617
:1056C000B830401B81B232460120FFF7C1FF0BE02A
:1056D000324629460220FFF7BBFF05E03246294645
:1056E0000320FFF7B5FF00BF00BF70BD10B5144821
:1056F000FDF7FFFB00200AE0124901F8200040F20C
:10570000DC51104A02EB80025180411CC8B20428CF
:10571000F2DB41F288324FF496610020FFF7C0FFC0
:1057200041F288324FF411710220FFF7B9FF41F2C4
:1057300088324FF4A5610120FFF7B2FF10BD0000D1
:105740009FAC00207CAC00202DE9F04106460F46BE
:1057500000F0ECFC041E0D4618BF0120284320F089
:105760000040C0F17F6000F1E040C00F0ED0301C5F
:1057700018BF0120384320F00040C0F17F6000F1E5
:10578000E040C00F04BF0120FAF7F2FD2046294691
:10579000BDE8F08108B541F2883240F6660100208C
:1057A000FFF77EFF0120FEF723F946F29C304FF011
:1057B00080431A464FF4165100905348FEF734FBCD
:1057C00000BF514890F82B000028FAD146F640203F
:1057D0004FF07F531A464FF4485100904B48FEF764
:1057E00023FB00BF494890F82B000028FAD1052080
:1057F000FEF7FEF800BF464890F82B000028FAD1CB
:1058000044484FF07F531A464FF4485100903F48A8
:10581000FEF70AFB00BF3D4890F82B000028FAD1A4
:1058200041F2883240F226710220FFF739FF41F23F
:105830008830FBF763FA384803071A464FF41651CD
:1058400000903148FEF7F0FA00BF2F4890F82B0087
:105850000028FAD144F2C0404FF07F531A464FF46B
:10586000165100902948FEF7DFFA00BF274890F84C
:105870002B000028FAD14FF4FA60FBF73FFA4FF4FF
:1058800016504FF07C531A464FF4486100901F4861
:10589000FEF7CAFA00BF1D4890F82B000028FAD185
:1058A0000120FEF7A5F800BF194890F82B0000284A
:1058B000FAD118484FF07F531A464FF448510090E0
:1058C0001248FEF7B1FA0020FEF792F800BF0F4829
:1058D00090F82B000028FAD141F288324FF4117170
:1058E0000220FFF7DDFE41F28830FBF707FA41F2B4
:1058F00088324FF496610020FFF7D2FE41F28830E3
:10590000FBF7FCF908BD0000ACAC002000AD0020A6
:10591000A8AD0020C095FFFF649CFFFF21F000426E
:10592000A2F16052B2F5801F01F0004328BFD2F10E
:105930007F6C0BD95FEA001C43EAC20242EB507055
:1059400018BF704728BF20F001007047B2F5801FD4
:10595000BCBF184670474FEA410C1CF5001F02D22D
:10596000084601F08EB870B500F04AFB00000089CF
:10597000FFF7F6BF4FF00040A0F580007047000031
:1059800010B591EA030F48BF83F0004300F1BC84D7
:10599000841A71EB030C05D2121943EB0C03001BA4
:1059A00061EB0C01DFF824E14FEA1154A4EB135C26
:1059B0001EEA430F18BF9EEA445F73D023EA0E032A
:1059C000DCF1200E21EA045143F4801332D322FA91
:1059D0000CFE10EB0E0023FA0CFE41EB0E01CCF195
:1059E000200E03FA0EFE10EB0E0051F10001B1F58E
:1059F000801FCCF1200E32D201EB045112FA0EF2CC
:105A0000BDE8104058BF7047401C38BF5FEA4202F3
:105A100018BF7047002814BF20F0010041F10001B9
:105A20004FEA410313F5001F38BF7047A1F1C04191
:105A300000F034BB012A43EB0302ACF1200CDCF193
:105A40001F0E32BF4FF0000E23FA0CF310EB0300D1
:105A500041EB0451B4EB115FD0D0A1EB045101F53F
:105A6000801149085FEA300001EB04510ED350F178
:105A7000000038BF12FA0EFE08D1BDE81040C9E799
:105A8000401C38BF5FEA4202CAD1C3E7BDE81040FC
:105A90004FEA410313F5001F38BF7047A1F1C04121
:105AA00000F0FCBA9EEA445F08D011EA5E0FBDE840
:105AB000104004BF01F0004100207047BDE81040D5
:105AC00070B500F09DFA00BF64FBBE3E0000E0FF31
:105AD00002494FF0000001F058B800BF0000F87F05
