:020000040800F2
:1000000068B30020D5010008792A0008E725000818
:10001000752A0008D90400083D33000800000000DC
:10002000000000000000000000000000A92A0008F5
:1000300019050008000000007D2A0008B52A000804
:10004000EF010008EF010008EF010008EF010008D0
:10005000EF010008EF010008EF010008EF010008C0
:10006000EF010008EF010008EF010008EF010008B0
:10007000EF010008EF010008EF010008DD040008AF
:10008000EF010008EF010008EF010008EF01000890
:10009000EF010008EF010008EF010008EF01000880
:1000A000EF010008EF010008EF010008252B000810
:1000B000EF010008EF010008EF010008EF01000860
:1000C000EF010008EF010008EF010008EF01000850
:1000D000EF010008CD320008EF010008EF01000831
:1000E000EF010008EF010008EF010008EF01000830
:1000F000EF010008EF010008352B0008EF010008B0
:10010000EF010008EF010008EF010008EF0100080F
:10011000EF010008EF010008EF010008EF010008FF
:10012000EF010008EF010008EF010008EF010008EF
:1001300000F002F800F03FF80AA090E8000C8244BA
:100140008344AAF10107DA4501D100F034F8AFF297
:10015000090EBAE80F0013F0010F18BFFB1A43F0A5
:10016000010318474438000064380000103A24BFE7
:1001700078C878C1FAD8520724BF30C830C144BF0C
:1001800004680C607047000000230024002500264E
:10019000103A28BF78C1FBD8520728BF30C148BFEA
:1001A0000B607047642900F07780002070471FB50E
:1001B0001FBD10B510BD00F061F91146FFF7F7FF44
:1001C00003F0ACF900F07FF903B4FFF7F2FF03BCD2
:1001D00003F0D2F80948804709480047FEE7FEE7E8
:1001E000FEE7FEE7FEE7FEE7FEE7FEE7FEE7FEE7E7
:1001F00004480549054A064B70470000232B0008B8
:100200003101000868AD002068B3002068AF00200D
:1002100068AF0020704700000FB4044910B503AA6E
:10022000029800F0F9F810BC5DF814FB1C000020E7
:100230002DE9F0410E460446002020622046E16888
:10024000884730B3252805D0D4E901219047206A9A
:10025000401CF2E7E168204600278847050018D0D7
:10026000A5F14100192802D820354FF40067324625
:10027000294620462760FFF795FF40B1012804D0AA
:10028000F61D26F007060836D8E7361DD6E72846BD
:10029000DAE7206ABDE8F0812DE9F0410646002446
:1002A00010687529314616A510D0AFF300800028DC
:1002B00002DA404213A507E031688A0701D512A58A
:1002C00002E0490704D511A5012401E0AFF3008045
:1002D00000210A2206F1240709E0B0FBF2FCB0FB82
:1002E000F2F302FB1C00303078541846491C0028F9
:1002F000F3D123462A463046BDE8F04100F033B83A
:10030000000000002D0000002B0000002000000075
:100310004FF0000200B5134694469646203922BF9E
:10032000A0E80C50A0E80C50B1F12001BFF4F7AFE9
:10033000090728BFA0E80C5048BF0CC05DF804EBCB
:10034000890028BF40F8042B08BF704748BF20F839
:10035000022B11F0804F18BF00F8012B7047704737
:100360007047704770472DE9F0470D469946924611
:10037000044600F124080168880604D5E06921F0EC
:100380001001216000E00120A84201DD471B00E0D0
:100390000027A1697A1902EB0900081AA0612078E8
:1003A000C00602D42046AFF30080002608E0D4E95E
:1003B00001211AF806009047206A401C761C206232
:1003C0004E45F4DB2078C0060AD52046AFF3008006
:1003D00006E0D4E9012130209047206A401C2062C9
:1003E000381EA7F10107F4DC07E0D4E9012118F871
:1003F00005009047206A401C2062281EA5F10105D7
:10040000F3DC2046AFF300802078000602D50220FE
:10041000BDE8F0870120FBE7074B70B50D467B4434
:1004200000F011F80446284600F020F810B14FF013
:10043000FF3070BD204670BD5B2F000001694A1C73
:1004400002610878704700B58FB0CDE90131002115
:10045000059105497944CDE9031011466846FFF737
:10046000E7FE0FB000BD0000E5FFFFFF007B00F0DE
:10047000800070470048704704AD00207546FFF7C4
:10048000F9FFAE4605006946534620F00700854651
:1004900018B020B5FFF7ACFEBDE820404FF00006D5
:1004A0004FF000074FF000084FF0000B21F007015C
:1004B000AC46ACE8C009ACE8C009ACE8C009ACE89F
:1004C000C0098D46704710B50446AFF30080204642
:1004D000BDE81040FFF778BE00BFFEE710B5024848
:1004E00000F09CF910BD0000A8AB002030B590F8DA
:1004F00040500124AC40C56B6C6004686360446884
:10050000102C04D10468A2600468E16003E0046870
:10051000A1600468E26030BD704772B600BFFEE7BC
:1005200070B50446B3F5804F13D1D1E9000540EA18
:1005300005108D6840EA05208D6928438D8940EAC1
:10054000054054F82250064E3540284344F8220016
:1005500003E06FF0704044F82200002070BD0000FE
:100560000000F0CF70B50246086852F8200020F075
:1005700001000E6842F826008868082801D140234F
:1005800000E00023486818438E683043CE6830434B
:100590000E6930434E693043CE6930430E6A3043B2
:1005A0004E6A30438E6A3043CE6A30430E6B40EA67
:1005B000060488690443486B0443074D45F480658D
:1005C00045F4E025086852F82000A84320430E684F
:1005D00042F82600002070BD7FFB080010B50346DE
:1005E000D1E9000440EA04108C6840EA04208C89B8
:1005F00040EA0444088A401E44EA0054087D801EF4
:1006000044EA00608C692043541C53F8244004F0F1
:1006100040442043541C43F82400002010BD0146F0
:10062000002291F82100022808D00420886300BF2E
:10063000002081F8200000BF012070470868006892
:1006400020F00E000B6818600868006820F00100B8
:100650000B68186091F8403001209840CB6B5860CF
:10066000012081F8210000BF002081F8200000BF98
:100670001046E2E770B50446002594F821000228F0
:1006800003D00420A0630125C1E02068006820F0A9
:100690000E00216808602068006820F001002168D1
:1006A00008605C492068884252D95A4978392068E4
:1006B000884201D1012047E05649643920688842C8
:1006C00001D1102040E0534950392068884201D1BF
:1006D000801539E04F493C392068884201D18014A7
:1006E00032E04C4928392068884202D14FF48030EA
:1006F0002AE0484914392068884202D14FF480101A
:1007000022E044492068884201D140041CE042496B
:100710002068884201D1012016E03F491431206849
:10072000884201D110200FE03B49283120688842DF
:1007300001D1801508E038493C312068884201D158
:10074000801401E04FF480303349091F086051E004
:10075000304978392068884201D1012047E02D498D
:1007600064392068884201D1102040E0294950397D
:100770002068884201D1801539E026493C3920683B
:10078000884201D1801432E0224928392068884209
:1007900002D14FF480302AE01E4914392068884283
:1007A00002D14FF4801022E01A492068884201D11A
:1007B00040041CE018492068884201D1012016E05D
:1007C000154914312068884201D110200FE01249E8
:1007D00028312068884201D1801508E00E493C315B
:1007E0002068884201D1801401E04FF4803009492B
:1007F00080394860012084F8210000BF002084F87F
:10080000200000BF606B10B12046616B884728460E
:1008100070BD0000800002400804024070B504462C
:10082000E06B05682068066894F840100420884052
:100830002840002875D006F004000028FAD020686F
:10084000006800F0200028B92068006820F004004B
:1008500021680860D5492068884254D9D34978393D
:100860002068884201D1042049E0D04964392068D9
:10087000884201D1402042E0CC495039206888426A
:1008800001D100153BE0C9493C392068884202D1BA
:100890004FF4804033E0C54928392068884202D1AE
:1008A0004FF480202BE0C14914392068884202D1DE
:1008B0004FF4800023E0BD492068884201D1C00484
:1008C0001DE0BB492068884201D1042017E0B849E7
:1008D00014312068884201D1402010E0B449283109
:1008E0002068884201D1001509E0B1493C312068F7
:1008F000884202D14FF4804001E04FF48020AC499F
:10090000091F086054E0A94978392068884201D15C
:1009100004204AE0A54964392068884202D1402079
:1009200043E04CE0A14950392068884201D10015CC
:100930003BE09E493C392068884202D14FF4804018
:1009400033E09A4928392068884202D14FF4802048
:100950002BE0964914392068884202D14FF4800078
:1009600023E092492068884201D1C0041DE09049EB
:100970002068884201D1042017E08D491431206895
:10098000884201D1402010E08949283120688842FE
:1009900001D1001509E086493C312068884202D126
:1009A0004FF4804001E04FF4802080498039486056
:1009B000E06A002802D02046E16A8847F4E094F813
:1009C0004010022088402840002871D006F0020024
:1009D0000028FAD02068006800F0200040B92068A4
:1009E000006820F00A0021680860012084F82100D6
:1009F0006E492068884254D96C4978392068884209
:100A000001D1022049E0694964392068884201D156
:100A1000202042E0654950392068884201D14015C4
:100A20003BE062493C392068884202D14FF40050D3
:100A300033E05E4928392068884202D14FF4003003
:100A40002BE05A4914392068884202D14FF4001033
:100A500023E056492068884201D180041DE05449B2
:100A60002068884201D1022017E0514914312068E2
:100A7000884201D1202010E04D4928312068884269
:100A800001D1401509E04A493C312068884202D131
:100A90004FF4005001E04FF400304549091F086051
:100AA00054E0424978392068884202D102204AE065
:100AB00057E03E4964392068884201D1202042E055
:100AC0003A4950392068884201D140153BE0374906
:100AD0003C392068884202D14FF4005033E033495A
:100AE00028392068884202D14FF400302BE02F498A
:100AF00014392068884202D14FF4001023E02B49BA
:100B00002068884201D180041DE02949206888427C
:100B100001D1022017E0264914312068884201D112
:100B2000202010E0224928312068884201D1401558
:100B300009E01F493C312068884202D14FF400503F
:100B400001E04FF4003019498039486000BF0020AF
:100B500084F8200000BFA06A30B32046A16A88470D
:100B600022E094F84010082088402840E0B106F0C8
:100B70000800C8B12068006820F00E0021680860F5
:100B800094F8401001208840E16B48600120A06388
:100B900084F8210000BF002084F8200000BF206BF3
:100BA00010B12046216B884770BD000080000240D4
:100BB000080402400146002209B9012070471E4B7B
:100BC000086898420BD21D4B0868C01A1423B0FB6A
:100BD000F3F08000086419480838C8630AE0164B2F
:100BE0000868C01A1423B0FBF3F0800008641248B0
:100BF0000838C863022081F821000868026843F6BB
:100C0000F0708243D1E901031843CB6818430B69A4
:100C100018434B6918438B691843CB691843024347
:100C20000868026000208863012081F8210000200C
:100C300081F8200000BFC1E708040240080002401C
:100C40002DE9F04104460D4616461F464FF00008B8
:100C500000BF94F82000012802D10220BDE8F081F5
:100C6000012084F8200000BF94F8210001282CD135
:100C7000022084F821000020A0632068006820F092
:100C80000100216808603B46324629462046FFF7AE
:100C90002DFCE06A30B12068006840F00E00216849
:100CA00008600BE02068006820F0040021680860FC
:100CB0002068006840F00A00216808602068006829
:100CC00040F001002168086006E000BF002084F8C1
:100CD000200000BF4FF002084046BFE770B5044651
:100CE00000F016FA06462546681C10B10448007844
:100CF000054400BF00F00CFA801BA842FAD370BD77
:100D00002800002000B585B00020019002900390DB
:100D100004902248006808B105B000BD01201F49B9
:100D2000086000BF1E48406940F480701C4948615B
:100D30000846406900F48070009000BF00BF4FF289
:100D40003F000190022002900320049001A9154861
:100D500000F030F840F23F40019002200290032062
:100D6000049001A9104800F025F84FF68370019017
:100D7000022002900320049001A90C4800F01AF808
:100D80004FF633700190022002900320049001A9D5
:100D9000074800F00FF800BFBEE700001400002075
:100DA00000100240001C01400020014000180140DA
:100DB000001401402DE9F847024600239C467BE1E0
:100DC0004FF0010808FA03F4D1F8008008EA0400A3
:100DD000A0427DD1DFF8F4A2D1F80480A8EB0A0983
:100DE000D0453AD014DCB8F1030F50D009DCB8F18B
:100DF000000F31D0B8F1010F1CD0B8F1020F49D16A
:100E000020E0B8F1110F18D0B8F1120F42D11EE056
:100E1000B9F5881F25D006DCB9F5803F20D0B9F59B
:100E2000801F37D11AE0B9F5001F18D0B9F5041F9B
:100E300030D117E0D1F80CC02DE0D1F80C8008F1CA
:100E4000040C28E0D1F80C8008F1080C23E0D1F85C
:100E50000C8008F10C0C1EE000BF00BF00BF00BFFB
:100E600000BF00BFD1F80880B8F1000F02D14FF0E9
:100E7000040C0BE0D1F80880B8F1010F03D14FF05A
:100E8000080C146102E04FF0080C546103E04FF0CD
:100E9000000C00E000BF00BFFF2801D8904601E031
:100EA00002F104084646FF2802D84FEA830803E00F
:100EB000A3F108084FEA88084746D6F800804FF0AB
:100EC0000F0909FA07F928EA09080CFA07F900E0FE
:100ED0007AE048EA0908C6F80080D1F8048008F0F2
:100EE0008058B8F1805F6FD100BFDFF8E481D8F897
:100EF000188048F00108DFF8D891C9F81880C84672
:100F0000D8F8188008F00108CDF8008000BF00BFB5
:100F10004FEAB9384FEA930958F829504FEA8378D5
:100F20004FEA18794FF00F0808FA09F825EA080582
:100F3000DFF8A081424502D14FF0000824E0DFF83D
:100F40009881424502D14FF001081DE0DFF88C8105
:100F5000424502D14FF0020816E0DFF88481424595
:100F600002D14FF003080FE0DFF87881424502D14B
:100F70004FF0040808E0DFF87081424502D14FF0DD
:100F8000050801E04FF006084FEA83794FEA197926
:100F900008FA09F848EA0505DFF850814FEA930995
:100FA00048F82950D1F8048008F48018B8F5801F5B
:100FB0000BD1DFF83C81D8F8008048EA0008DFF860
:100FC0003091C9F800800AE075E0DFF82481D8F894
:100FD000008028EA0008DFF81891C9F80080D1F8ED
:100FE000048008F40018B8F5001F0ED1DFF8008166
:100FF00008F10408D8F8008048EA0008DFF8F0900B
:1010000009F10409C9F800800DE0DFF8E48008F177
:101010000408D8F8008028EA0008DFF8D49009F125
:101020000409C9F80080D1F8048008F40038B8F544
:10103000003F0ED1DFF8B880A8F10408D8F800808E
:1010400048EA0008DFF8A890A9F10409C9F800806F
:101050000DE0DFF89C80A8F10408D8F8008028EAA9
:101060000008DFF88C90A9F10409C9F80080D1F8D4
:10107000048008F48038B8F5803F0ED1DFF8708026
:10108000A8F10808D8F8008048EA0008DFF8609066
:10109000A9F10809C9F800800DE0DFF85480A8F133
:1010A0000808D8F8008028EA0008DFF84490A9F181
:1010B0000809C9F800805B1CD1F8008028FA03F801
:1010C000B8F1000F7FF47CAEBDE8F8870000111086
:1010D0000010024000080140000C014000100140D7
:1010E0000014014000180140001C014008000140AC
:1010F00008040140024693680B400BB1012000E058
:10110000002070470AB1016101E00B0403617047E0
:101110000148006870470000200000200348006874
:1011200003490978084401490860704720000020FD
:101130002800002010B50848006840F0100006495B
:101140000860032000F0A8F80F2000F007F800F076
:101150002BF8002010BD00000020024070B50446AE
:101160000E4800784FF47A71B1FBF0F00C49096831
:10117000B1FBF0F5284600F031FC08B1012070BD4C
:10118000102C07D200222146501E00F047F80548D7
:10119000046001E00120F2E70020F0E728000020D1
:1011A0002C0000202400002008B500BF11488069F1
:1011B00040F001000F4988610846806900F0010095
:1011C000009000BF00BF00BF0846C06940F08050DB
:1011D000C8610846C06900F08050009000BF00BFA1
:1011E00000BF0549486820F0E06040F000704860AA
:1011F00000BF08BD00100240000001400146084643
:10120000002809DB00F01F0301229A4043099B00DC
:1012100003F1E023C3F8002100BF70472DE9F05F20
:1012200080460D461646002702F08AF807463946E2
:101230002A46334601F00700C0F1070ABAF1040F4D
:1012400002D94FF0040A01E0C0F1070AD14600F1CB
:10125000040ABAF1070F02D24FF0000A01E0A0F130
:10126000030AD4464FF0010A0AFA09FAAAF1010A60
:101270000AEA020A0AFA0CFA4FF0010B0BFA0CFB0D
:10128000ABF1010B0BEA030B4AEA0B042146404683
:1012900002F05EF8BDE8F09F00BF00F00702064BC9
:1012A00019684FF6FF031940044B0B4343EA022130
:1012B000014B196000BF70470CED00E00000FA051B
:1012C00070B504460D460CB9012070BD5A4800683F
:1012D00000F00700A8420ED25748006820F007002F
:1012E0002843554908600846006800F00700A842F6
:1012F00001D00120E9E7207800F0020002281DD18A
:10130000207800F00400042805D14C48406840F4DF
:10131000E0604A494860207800F00800082805D1BC
:101320004648406840F4605044494860434840683B
:1013300020F0F000A168084340494860207800F0A0
:10134000010078B36068012806D13C48006800F4C9
:10135000003090B90120B8E76068022806D137480C
:10136000006800F0007040B90120AEE73348006823
:1013700000F0020008B90120A7E73048406820F0DB
:101380000300616808432D494860FFF7C1FE064627
:1013900009E0FFF7BDFE801B41F28831884202D987
:1013A000032092E707E02548406800F00C006168E0
:1013B000B0EB810FEDD12048006800F00700A84293
:1013C0000ED91D48006820F0070028431A4908601C
:1013D0000846006800F00700A84201D0012074E729
:1013E000207800F00400042807D11448406820F455
:1013F000E060E168084311494860207800F0080087
:10140000082808D10D48406820F46050216940EA5E
:10141000C1000A49486000F03FF808494968C1F333
:101420000311074A515CC840064908600648006835
:10143000FFF794FE002048E7002002400010024021
:101440008E3900082C00002024000020014800688C
:10145000704700002C00002000B5FFF7F7FF04499B
:101460004968C1F30221034A515CC84000BD000035
:10147000001002409E39000800B5FFF7E7FF04495D
:101480004968C1F3C221034A515CC84000BD000055
:10149000001002409E39000870B50021002200248F
:1014A00000230020134D696801F00C05F5B1042DEF
:1014B00002D0082D19D101E00F4819E00F4DC1F3FA
:1014C0008346AB5D01F4803555B10A4D6D68C5F3B7
:1014D00040450B4E725D084D5D43B5FBF2F402E0F2
:1014E000084D03FB05F4204602E000BF024800BFA0
:1014F00000BF70BD0010024000127A007C39000865
:101500008C39000800093D00F8B504460CB90120EB
:10151000F8BD207800F00100002878D0F848406835
:1015200000F00C0004280CD0F548406800F00C00D6
:10153000082811D1F248406800F48030B0F5803FAF
:101540000AD1EF48006800F4003000285FD06068DE
:1015500000285CD10120DBE700BF6068B0F5803F68
:1015600006D1E748006840F48030E549086028E08B
:10157000606858B9E248006820F48030E0490860AB
:101580000846006820F4802008601AE06068B0F522
:10159000A02F0BD1DA48006840F48020D8490860B9
:1015A0000846006840F4803008600AE0D4480068CB
:1015B00020F48030D24908600846006820F480207A
:1015C000086000BF606888B1FFF7A2FD054606E02D
:1015D000FFF79EFD401B642801D9032098E7C84807
:1015E000006800F400300028F2D010E0FFF790FD12
:1015F000054606E0FFF78CFD401B642801D9032057
:1016000086E7BF48006800F400300028F2D1207857
:1016100000F00200022857D1B948406800F00C00E1
:1016200050B1B748406800F00C00082818D1B44801
:10163000406800F4803098B9B148006800F00200BA
:1016400020B12069012801D0012061E7AC48006881
:1016500020F0F800616940EAC100A949086033E060
:101660002069E8B10120A7490860FFF751FD054650
:1016700006E0FFF74DFD401B022801D9032047E794
:101680009F48006800F002000028F2D09C480068E3
:1016900020F0F800616940EAC1009949086013E050
:1016A000002098490860FFF733FD054606E0FFF784
:1016B0002FFD401B022801D9032029E7904800682C
:1016C00000F002000028F2D1207800F0080008287D
:1016D0002DD1A069B8B101208B490860FFF718FD32
:1016E000054606E0FFF714FD401B022801D9032040
:1016F0000EE78348406A00F002000028F2D0012083
:1017000001F0BEF913E000207F490860FFF700FDFB
:10171000054606E0FFF7FCFC401B022801D9032028
:10172000F6E67748406A00F002000028F2D12078FF
:1017300000F00400042873D100277148C06900F04C
:10174000805070B900BF6E48C06940F080506C494D
:10175000C8610846C06900F08050009000BF00BF1B
:1017600001276A48006800F48070B0B967480068D3
:1017700040F4807065490860FFF7CAFC054606E042
:10178000FFF7C6FC401B642801D90320C0E65F4870
:10179000006800F480700028F2D000BFE0680128E3
:1017A00006D15748006A40F001005549086227E019
:1017B000E06858B95248006A20F0010050490862B8
:1017C0000846006A20F00400086219E0E068052875
:1017D0000BD14B48006A40F00400494908620846B2
:1017E000006A40F0010008620AE04548006A20F003
:1017F0000100434908620846006A20F004000862BC
:1018000000BFE068A0B1FFF783FC054609E0FFF7E1
:101810007FFC401B41F28831884202D9032077E6E1
:1018200022E03748006A00F002000028EFD012E002
:10183000FFF76EFC054608E0FFF76AFC401B41F22B
:101840008831884201D9032062E62D48006A00F001
:1018500002000028F0D1012F05D12948C06920F0ED
:1018600080502749C86100BFE069C8B32448406878
:1018700000F00C00082860D0E069022848D1002060
:1018800020490866FFF744FC054606E0FFF740FCE8
:10189000401B022801D903203AE61948006800F0ED
:1018A00000700028F2D1206AB0F5803F07D11448BB
:1018B000406820F40030A168084311494860D4E929
:1018C000080108430E49496821F4741108430C4982
:1018D000486001200B490866FFF71AFC054607E03F
:1018E0003DE0FFF715FC401B022801D903200FE65D
:1018F0000348006800F000700028F2D02FE00000DC
:101900000010024000004242800442420070004049
:10191000002014490866FFF7FBFB054606E0FFF7C9
:10192000F7FB401B022801D90320F1E50E480068AF
:1019300000F000700028F2D111E0E069012800D128
:10194000E6E50948466806F48031206A814204D100
:1019500006F47011606A814201D00120D8E50020B0
:10196000D6E50000000042420010024070B5044677
:101970000E4615461CB1A069B0F5807F01D101204B
:1019800070BD94F8410028B9002084F8400020463A
:1019900000F01FF804F108012068FEF7E3FD31466E
:1019A000A2682068FEF71AFE2946236BD4E90102DB
:1019B000FEF7B6FDA168206850F8210040F0010054
:1019C000A268216841F82200012084F8410000202B
:1019D000D6E710B50446FFF795F910BD70B504467B
:1019E0002546681EB0F1807F01D301200FE0681EFC
:1019F0004FF0E02148610F214FF0FF3001F0A8FCCB
:101A000000204FF0E021886107200861002070BDB0
:101A10007047704710B50346002200BF93F83C00A2
:101A2000012801D1022010BD012083F83C0000BF35
:101A300022F0FF00CC6840EA040222F440708C6877
:101A400040EA040222F480604C6840EA040222F476
:101A500000600C6840EA040222F480500C6940EAFD
:101A6000040222F400504C6940EA040222F480404F
:101A7000CC6940EA04021868426400BF002083F881
:101A80003C0000BF00BFCEE730B502460B4600BFAA
:101A900092F83C00012801D1022030BD012082F8DB
:101AA0003C0000BF022082F83D00106844681068C6
:101AB000816824F070041868044310684460144D71
:101AC0001068A84213D0134D1068A8420FD01068B8
:101AD000B0F1804F0BD0104D1068A84207D00F4DC9
:101AE0001068A84203D00E4D1068A84205D121F01D
:101AF00080015868014310688160012082F83D0030
:101B000000BF002082F83C0000BF00BFC5E7000016
:101B1000002C014000340140000400400008004057
:101B2000000C004010B504460CB9012010BD94F81B
:101B30003D0028B9002084F83C00204600F026F83B
:101B4000022084F83D00211D206800F0FBFF0120E9
:101B500084F8460000BF84F83E0001213F20015573
:101B6000402001554120015500BF00BF012084F8ED
:101B7000420043200155442001554520015500BF36
:101B8000012084F83D000020D0E7000008B5094A94
:101B9000016891420DD100BF0749C96941F01001A8
:101BA000054AD1611146C96901F01001009100BFD9
:101BB00000BF08BD0010004000100240014691F82F
:101BC0003D00012801D001207047022081F83D002E
:101BD000164B0868984213D0154B086898420FD0EE
:101BE0000868B0F1804F0BD0124B0868984207D0BC
:101BF000114B0868984203D0104B086898420CD1EA
:101C00000868806800F00702062A0CD0086800689F
:101C100040F001000B68186005E00868006840F0BB
:101C200001000B6818600020CEE70000002C014086
:101C3000003401400004004000080040000C004057
:101C4000704710B5044620680069C0F34000D8B161
:101C50002068C068C0F34000B0B16FF00200216896
:101C60000861012020772068806900F0030018B126
:101C70002046FFF7E5FF05E0204600F031F9204659
:101C800000F038FA0020207720680069C0F3800057
:101C9000D8B12068C068C0F38000B0B16FF0040014
:101CA00021680861022020772068806900F4407074
:101CB00018B12046FFF7C4FF05E0204600F010F9F8
:101CC000204600F017FA0020207720680069C0F352
:101CD000C000D8B12068C068C0F3C000B0B16FF0D8
:101CE000080021680861042020772068C06900F09E
:101CF000030018B12046FFF7A3FF05E0204600F0DF
:101D0000EFF8204600F0F6F90020207720680069FF
:101D1000C0F30010D8B12068C068C0F30010B0B1A3
:101D20006FF0100021680861082020772068C069E2
:101D300000F4407018B12046FFF782FF05E020460E
:101D400000F0CEF8204600F0D5F90020207720687A
:101D5000006900F0010058B12068C06800F001007F
:101D600030B16FF0010021680861204600F0C3F92E
:101D700020680069C0F3C01058B12068C068C0F383
:101D8000C01030B16FF08000216808612046FFF775
:101D90003FFE20680069C0F3801058B12068C06819
:101DA000C0F3801030B16FF0400021680861204618
:101DB00000F0A2F920680069C0F3401058B1206813
:101DC000C068C0F3401030B16FF020002168086196
:101DD0002046FFF71EFE10BD10B586B00446002059
:101DE00002900390049005901C492068884217D106
:101DF00000BF1B48806940F004001949886108460B
:101E0000806900F00400019000BF00BF88150290B7
:101E100002200390059002A91248FEF7CBFF1BE0B9
:101E200011492068884217D100BF0D48806940F0F1
:101E300010000B4988610846806900F0100001908D
:101E400000BF00BF402002900220039003200590B5
:101E500002A90648FEF7AEFF06B010BD002C0140F7
:101E60000010024000080140003401400010014011
:101E70002DE9F04104460E461546002700BF94F8B0
:101E80003C00012802D10220BDE8F081012084F845
:101E90003C0000BF35B1042D09D0082D0CD00C2D0D
:101EA00014D10EE03146206800F0ACFE10E031465F
:101EB000206800F0DFFE0BE03146206800F018FFDC
:101EC00006E03146206800F04FFF01E0012700BF27
:101ED00000BF00BF002084F83C0000BF3846D3E7B5
:101EE00010B5044607492068884203D1064801F02E
:101EF0001BFC06E005492068884202D1044801F035
:101F000013FC10BD0034014024AC0020002C014023
:101F10005CAC002010B504460CB9012010BD94F84B
:101F20003D0028B9002084F83C00204600F026F847
:101F3000022084F83D00211D206800F003FE0120EE
:101F400084F8460000BF84F83E0001213F2001557F
:101F5000402001554120015500BF00BF012084F8F9
:101F6000420043200155442001554520015500BF42
:101F7000012084F83D000020D0E7000038B5044679
:101F80001A492068884216D100BF1948806940F478
:101F90000060174988610846806900F4006000907D
:101FA00000BF00BF002202211B20FFF737F91B20D2
:101FB000FFF724F919E00F492068884215D100BFC6
:101FC0000B48806940F400500949886108468069DF
:101FD00000F40050009000BF00BF002202212E201C
:101FE000FFF71CF92E20FFF709F938BD002C01403E
:101FF000001002400034014070B504460D46002632
:1020000035B1042D0BD0082D10D00C2D1CD114E0AF
:102010002068C06820F002002168C86016E02068CF
:10202000C06820F004002168C8600FE02068C06824
:1020300020F008002168C86008E02068C06820F02F
:1020400010002168C86001E0012600BF00BF002E1B
:102050004AD100222946206800F0C2FD23492068A9
:10206000884203D022492068884201D1012000E043
:10207000002090B100BF2068006A41F211110840B1
:1020800050B92068006A8910084028B92068406C5F
:1020900020F400402168486400BF00BF2068006A47
:1020A00041F21111084050B92068006A89100840B7
:1020B00028B92068006820F001002168086000BF8E
:1020C0001DB9012084F83E000EE0042D03D101214A
:1020D0003F20015508E0082D03D101214020015582
:1020E00002E0012141200155304670BD002C014025
:1020F00000340140704770477047704770B5044620
:10210000002520684069C0F3C01594F841002128DB
:1021100017D1B5B100BF00BF2168143151E8001FCD
:1021200021F080002168143141E80002002AF3D137
:1021300000BFA06B10B1A06BFEF771FA204600F053
:1021400021FF20684069C0F3801594F842002228DE
:1021500017D1B5B100BF00BF2168143151E8001F8D
:1021600021F040002168143141E80002002AF3D137
:1021700000BFE06B10B1E06BFEF751FA204600F0B3
:10218000BBFE002070BD70472DE9F84F0446206863
:1021900005682068C668206847694FF00009CA468C
:1021A00005F00F09B9F1000F0AD105F0200038B190
:1021B00006F0200020B1204600F0F7FEBDE8F88FC1
:1021C000B9F1000F7BD007F0010018B906F4907048
:1021D000002874D005F0010030B106F4807018B109
:1021E000606C40F00100606405F0040030B107F05D
:1021F000010018B1606C40F00200606405F002005C
:1022000030B107F0010018B1606C40F00400606468
:1022100005F0080048B106F0200010B907F00100F1
:1022200018B1606C40F008006064606C002845D014
:1022300005F0200028B106F0200010B1204600F083
:10224000B4FE20684069C0F3801A606C00F008009A
:1022500010B9BAF1000F2CD0204600F04DFE2068D6
:10226000406900F0400000B300BF00BF2168143196
:1022700051E8001F21F040002168143141E80002BC
:10228000002AF3D100BFE06B50B17748E16B48639F
:10229000E06BFEF7EFF988B1E06B416B88470DE02A
:1022A0002046FFF770FF09E009E02046FFF76BFFCB
:1022B00004E02046FFF767FF002060647EE7206BA4
:1022C000012877D105F01000002873D006F0100027
:1022D0000028FAD000BF002000902068006800901D
:1022E00020684068009000BF00BF2068406900F08F
:1022F000400000285FD0E06B006840681FFA80F85B
:10230000B8F1000F55D0A08D404552DDA4F82E80C5
:10231000E06B8069202843D000BF00BF21680C31EA
:1023200051E8001F21F4807021680C3141E800025F
:10233000002AF3D100BF00BF00BF2168143151E86B
:10234000001F21F001002168143141E80002002A39
:10235000F3D100BF00BF00BF2168143151E8001F56
:1023600021F040002168143141E80002002AF3D135
:1023700000BF202084F842000020206300BF00BF7F
:1023800021680C3151E8001F21F0100021680C3148
:1023900041E80002002AF3D100BFE06BFEF73FF9ED
:1023A00002206063A08DE28D801A81B22046FFF783
:1023B000A4FE03E742E0A08DE18D401A1FFA80F8E9
:1023C000E08DD0B3B8F1000F37D000BF00BF216857
:1023D0000C3151E8001F21F4907021680C3141E864
:1023E0000002002AF3D100BF00BF00BF21681431F2
:1023F00051E8001F21F001002168143141E800027A
:10240000002AF3D100BF202084F84200002020637E
:1024100000BF00BF21680C3151E8001F21F01000FF
:1024200021680C3141E80002002AF3D100BF0220EC
:10243000606341462046FFF760FEBFE605F080007E
:1024400030B106F0800018B1204600F00FFFB5E66D
:1024500005F0400030B106F0400018B1204600F011
:1024600081FDABE600BFA9E6BD2D000810B504460E
:102470000CB9012010BDA06900B100E000BF94F8C4
:10248000410028B9002084F84000204600F02AF8D6
:10249000242084F841002068C06820F4005021689E
:1024A000C860204600F000FE2068006920F49040DB
:1024B000216808612068406920F02A00216848618D
:1024C0002068C06840F400502168C8600020606443
:1024D000202084F8410084F842000020606300BF9F
:1024E000C8E7000010B586B00446002002900390B3
:1024F000049005902A49206888424FD100BF29489E
:10250000806940F48040274988610846806900F46A
:102510008040019000BF00BF00BF0846806940F0C6
:10252000040088610846806900F00400019000BF43
:1025300000BF48150290022003900320059002A9D5
:102540001948FEF737FC4FF480600290002003909A
:10255000049002A91448FEF72DFC144814490860A1
:10256000002048600021124881608021C160002164
:10257000016141618161C161FEF71CFB08B1FDF79A
:10258000CCFF00BF0A48E063446200BF002211464E
:102590002520FEF743FE2520FEF730FE06B010BDD5
:1025A000003801400010024000080140580002407D
:1025B000A8AB002070B504460D46164694F84200BC
:1025C00020280BD105B10EB9012070BD0020206379
:1025D00032462946204600F0E5FDF6E70220F4E702
:1025E00070477047704700BFFEE7000008B500BFA6
:1025F0000A48406940F001000849486108464069BE
:1026000000F00100009000BF00BF002211460F2023
:10261000FEF704FE0F20FEF7F1FD08BD001002409A
:1026200000B587B01C216846FDF772FE4FF02040D0
:102630001B4908601B484860042088600021184836
:10264000C16001611021416100218161C1610162AC
:1026500041624FF4805181620021C1620163416394
:102660008163002000900F20019003200290002041
:102670000390102004901120059000200690002265
:1026800069460748FFF772F908B1FDF746FF0648AB
:10269000C06940F480600449C86107B000BD000013
:1026A00040AA0020040100A00000014000B585B050
:1026B0000020019002900390049000BF634880695D
:1026C00040F04000614988610846806900F04000A0
:1026D000009000BF00BF00BF0846806940F0800046
:1026E00088610846806900F08000009000BF00BF4C
:1026F00000BF0846806940F0040088610846806990
:1027000000F00400009000BF00BF00BF08468069D1
:1027100040F4807088610846806900F48070009001
:1027200000BF00BF00BF0846806940F020008861FC
:102730000846806900F02000009000BF00BF00BF85
:102740000846806940F0100088610846806900F002
:102750001000009000BF00BF00BF0846806940F035
:10276000080088610846806900F00800009000BFFA
:1027700000BF012220213648FEF7C4FC00224FF49E
:10278000A0713448FEF7BEFC01224FF4207131489D
:10279000FEF7B8FC012220212F48FEF7B3FC0022EF
:1027A0004FF480712C48FEF7ADFC4C2001900020C6
:1027B00002900120039001A92548FEF7FBFA1020A2
:1027C0000190002002900220039001A92048FEF70A
:1027D000F1FA202001900120029003900320049040
:1027E00001A91B48FEF7E6FA4FF4A0700190012002
:1027F0000290002003900220049001A91548FEF7E2
:10280000D9FA4FF42070019001200290002003902B
:102810000320049001A90F48FEF7CCFA0120019093
:10282000002002900220039001A90C48FEF7C2FA92
:102830004FF49070019001200290039003200490C7
:1028400001A90548FEF7B6FA05B000BD0010024028
:1028500000180140001C0140000C0140000801402C
:1028600000B591B000200F9010901C2108A8FDF732
:102870004FFD20216846FDF74BFD2548254908609E
:10288000112048600021234881604FF6FE71C1602D
:102890000021016141618161FFF73CFB08B1FDF757
:1028A0003CFE00200F9010900FA91A48FFF7ECF89B
:1028B00008B1FDF732FE302008904FF4FA7009900D
:1028C00000200A900B900C900D900E90002208A909
:1028D0001048FFF7CDFA08B1FDF71FFE0020009069
:1028E00001900290039004904FF400500590002056
:1028F000079069460748FFF78DF808B1FDF70DFE10
:102900000448FFF75BF90348FFF766FA11B000BD12
:10291000002C014088AA00201CB5002000900190E6
:102920000F48104908604720486000210D48816029
:1029300042F21071C16000218161FFF7F3F808B124
:10294000FDF7EBFD00200090019069460548FFF778
:102950009BF808B1FDF7E1FD0248FFF72FF91CBD18
:1029600000100040D0AA002000B591B000200F90C8
:1029700010901C2108A8FDF7CBFC20216846FDF72C
:10298000C7FC2548254908601120486000212348DC
:1029900081604FF6FE71C16000210161416181617A
:1029A000FFF7B8FA08B1FDF7B8FD00200F901090BE
:1029B0000FA91A48FFF768F808B1FDF7AEFD3020FF
:1029C00008904FF4FA70099000200A900B900C9038
:1029D0000D900E90002208A91048FFF749FA08B19F
:1029E000FDF79BFD00200090019002900390049061
:1029F0004FF4005005900020079069460748FFF704
:102A000009F808B1FDF789FD0448FFF7D7F8034836
:102A1000FFF7E2F911B000BD0034014018AB00200F
:102A200010B51148114908604FF416504860002154
:102A30000E488160C16001610C214161002181610A
:102A4000C161FFF713FD08B1FDF767FD0748006896
:102A5000C06840F0100005490968C8600A220449AE
:102A60000248FFF7A7FD10BD0038014060AB002011
:102A700018AC002000BFFEE700BFFEE77047000073
:102A800008B508490968C9084FF47A72B1FBF2F138
:102A90004143009100BF00BF00994A1E00920029E7
:102AA000F9D108BD2C000020704700210160416071
:102AB0008160704710B5FEF731FB10BD00B58FB0D7
:102AC000282105A8FDF724FC14216846FDF720FC09
:102AD0000120059000040690002007900120099035
:102AE00002200C90C1030D914FF4E0110E9105A846
:102AF000FEF70AFD08B1FDF710FD0F20009002203F
:102B00000190002002904FF4806003900020049018
:102B100002216846FEF7D4FB08B1FDF7FEFC0FB0BA
:102B200000BD704710B50248FFF78BF810BD0000DC
:102B300088AA002010B50248FFF783F810BD0000F6
:102B400018AB002010B50268204B98420ED0204BE5
:102B500098420BD0B0F1804F08D01E4B984205D060
:102B60001D4B984202D01D4B984203D122F07002B7
:102B70004B681A43154B98420ED0154B98420BD018
:102B8000B0F1804F08D0134B984205D0124B9842B9
:102B900002D0124B984203D122F44072CB681A4300
:102BA00022F080034C6943EA040202608B68C3622E
:102BB0000B688362054B984202D0054B984201D1C5
:102BC0000B6903630123436110BD0000002C014029
:102BD000003401400004004000080040000C0040A8
:102BE00030B501F01F05012404FA05F3046A9C4383
:102BF0000462046A01F01F0502FA05F52C43046221
:102C000030BD000030B5026A056A25F00105056295
:102C10004368846924F0700424F003040D682C4395
:102C200022F002028D682A43104DA84200D103E031
:102C30000F4DA84206D100BF22F00802CD682A43FA
:102C400022F00402094DA84202D0094DA84207D142
:102C500023F4807323F400734D692B438D692B4358
:102C6000436084614D684563026230BD002C0140C1
:102C70000034014030B5026A056A25F0100505628E
:102C80004368846924F4E04424F440740D6844EA01
:102C9000052422F020028D6842EA0512124DA84256
:102CA00000D103E0114DA84207D100BF22F08002FD
:102CB000CD6842EA051222F040020B4DA84202D034
:102CC0000A4DA84209D123F4806323F400634D69BF
:102CD00043EA85038D6943EA8503436084614D6857
:102CE0008563026230BD0000002C014000340140C9
:102CF00030B5026A056A25F4807505624368C469C7
:102D000024F0700424F003040D682C4322F40072B4
:102D10008D6842EA0522124DA84200D103E0114D10
:102D2000A84207D100BF22F40062CD6842EA052222
:102D300022F480620A4DA84202D00A4DA84209D16D
:102D400023F4805323F400534D6943EA05138D693E
:102D500043EA05134360C4614D68C563026230BD38
:102D6000002C01400034014030B5036A056A25F4A7
:102D7000805505624468C26922F4E04222F4407240
:102D80000D6842EA052223F400538D6843EA0533B7
:102D9000084DA84202D0084DA84204D124F4804432
:102DA0004D6944EA85144460C2614D68056403625C
:102DB00030BD0000002C01400034014070B50546D4
:102DC0006C6A0020E085E0842046FFF7DCF970BDE6
:102DD00070B506460025746A20684069C0F3C015C6
:102DE00094F84100212805D125B10020E084204637
:102DF00000F0C8F820684069C0F3801594F84200DC
:102E0000222805D125B10020E085204600F074F885
:102E1000606C40F0100060642046FFF7B4F970BDAC
:102E200070B505466C6A2868006800F0200000282C
:102E300042D1E08500BF00BF21680C3151E8001F7E
:102E400021F4807021680C3141E80002002AF3D19E
:102E500000BF00BF00BF2168143151E8001F21F0FE
:102E600001002168143141E80002002AF3D100BFBB
:102E700000BF00BF2168143151E8001F21F040005D
:102E80002168143141E80002002AF3D100BF20205C
:102E900084F84200206B01280ED100BF00BF2168DA
:102EA0000C3151E8001F21F0100021680C3141E87D
:102EB0000002002AF3D100BF00206063206B0128CC
:102EC00004D1A18D2046FFF718F902E02046FFF754
:102ED00087FB70BD70B505466C6A01206063206B8E
:102EE000012805D1A08D41082046FFF706F902E030
:102EF0002046FFF776FB70BD00BF00BF02680C32B2
:102F000052E8002F22F4907102680C3242E800135C
:102F1000002BF3D100BF00BF00BF0268143252E89B
:102F2000002F22F001010268143242E80013002B46
:102F3000F3D100BF016B01290ED100BF00BF0268B1
:102F40000C3252E8002F22F0100102680C3242E8E5
:102F50000013002BF3D100BF202180F84210002184
:102F60000163704710B504462068C06820F0400037
:102F70002168C860202084F841002046FFF732FB1A
:102F8000002010BD00BF00BF02680C3252E8002FC5
:102F900022F0C00102680C3242E80013002BF3D18A
:102FA00000BF202180F841107047F8B5044694F81E
:102FB0004200222875D1A068B0F5805F0CD120694D
:102FC00050B90025A66A20684068C0F30800308028
:102FD000A06A801CA06215E0A56A0026A068B0F572
:102FE000805F03D0A06828B9206918B920684068BC
:102FF000287004E02068406800F07F002870A06A14
:10300000401CA062E08D401E80B2E085002846D1C1
:103010002068C06820F020002168C8602068C0686F
:1030200020F480702168C8602068406920F00100A9
:1030300021684861202084F8420000206063206BF2
:10304000012826D10020206300BF00BF21680C3179
:1030500051E8001F21F0100021680C3141E8000206
:10306000002AF3D100BF2068006800F0100010288B
:103070000AD100BF002000902068006800902068FE
:103080004068009000BF00BFA18D2046FFF735F8D3
:1030900002E02046FFF7A4FA0020F8BD01E000207E
:1030A000FBE70220F9E7000070B5044621680969D2
:1030B00021F44051E2681143226811612269A1683C
:1030C0001143626941EA02052168C96841F20C6254
:1030D000914329432268D1602168496921F44071F4
:1030E000A2691143226851612D4A2168914202D19F
:1030F000FEF7C2F901E0FEF7AFF900EBC00101EB0A
:10310000001162689200B1FBF2F100EBC00202EB29
:10311000001263689B00B2FBF3F26423B2FBF3F28C
:1031200002EBC20303EB0212A1EB8201322202EB9B
:1031300001116422B1FBF2F101F0F00100EBC002D9
:1031400002EB001263689B00B2FBF3F26423B2FB54
:10315000F3F201EB021200EBC00101EB0011636816
:103160009B00B1FBF3F100EBC00303EB00136668B7
:10317000B600B3FBF6F36426B3FBF6F303EBC3062A
:1031800006EB0313A1EB8301322303EB011164234C
:10319000B1FBF3F101F00F0111442268916070BDA1
:1031A0000038014077B581B0044615460298A06208
:1031B000A58500206064222084F842002848E16B45
:1031C00088622848E16BC8622748E16B08630020E9
:1031D000E16B486302AE32682368191D2B46E06B31
:1031E000FDF72EFD00BF00200090206800680090D1
:1031F00020684068009000BF00BF206970B100BF28
:1032000000BF21680C3151E8001F41F48070216833
:103210000C3141E80002002AF3D100BF00BF00BF1B
:103220002168143151E8001F41F001002168143178
:1032300041E80002002AF3D100BF00BF00BF2168AF
:10324000143151E8001F41F040002168143141E879
:103250000002002AF3D100BF002004B070BD0000BE
:10326000212E0008D52E0008D12D0008014691F826
:103270004100212828D18868B0F5805F0BD108690A
:1032800048B90A6A1088C0F308000B685860086AD9
:10329000801C086205E00B6A581C086218780B68ED
:1032A0005860C88C401E80B2C88458B90868C0688D
:1032B00020F080000B68D8600868C06840F04000CB
:1032C0000B68D860002070470220FCE738B5002466
:1032D000174800680068C0F30014F4B100BF002074
:1032E000009013480068006800901148006840682A
:1032F000009000BF00BF0E48006805680C480068D9
:1033000045680B48FEF7FAFE0A4800684568C5F1B3
:103310000A0009494870012008700A220649891CE0
:103320000348FFF747F90248FEF72EFF38BD0000BB
:1033300060AB0020A8AB002016AC002000BFFEE769
:1033400002480068C0F30220704700000CED00E066
:1033500010B5002804DB0A07130E054A135406E0D3
:103360000A07140E034A00F00F031B1FD45410BDAC
:1033700000E400E018ED00E000BF704700BF054A20
:10338000126802F04002002AF9D0C2B2014B1B1DA4
:103390001A6070470038014001460022002007E013
:1033A0000A4B53F8213033F8103003B1521C401C43
:1033B000074B53F821308342F2D864205043044B2A
:1033C00053F82130B0FBF3F080B2704708000020C2
:1033D0006C39000870B50446002514B10120344949
:1033E000087033480078002841D010213148FDF79B
:1033F00081FE012814D008212E48FDF77BFE78B10C
:1034000004212C48FDF776FE50B140212948FDF7F4
:1034100071FE28B101212848FDF76CFE012826D154
:103420000920FDF75BFC002021490870102121488C
:10343000FDF760FE012800D1012508211D48FDF798
:1034400059FE00B9022504211A48FDF753FE00B9C0
:10345000032540211748FDF74DFE00B90425012141
:103460001548FDF747FE012820D105251EE0102153
:103470001048FDF73FFEC8B908210E48FDF73AFE97
:10348000012813D104210B48FDF734FE01280DD18A
:1034900040210848FDF72EFE012807D101210648EA
:1034A000FDF728FE10B9012001490870284670BDBB
:1034B00031000020001801400008014070B50446AA
:1034C0000D4623E000BF2CB1002220211148FDF75A
:1034D00019FE04E0002220210F48FDF713FE00BF73
:1034E000FA20FDF7FBFB00BF2CB101222021094887
:1034F000FDF708FE04E0012220210748FDF702FE47
:1035000000BFFA20FDF7EAFB681EC5B2002DD9DC2A
:1035100070BD0000000C014000180140FDF70AFEDC
:10352000FFF7CCFAFFF7C2F8FFF760F8FFF778FA79
:10353000FFF71AFAFFF7F0F9FFF792F9FFF770F8C3
:1035400000F0F8F900F07CF800F090F854E000206A
:10355000FFF740FF2949087008460078002848D046
:1035600008460078062843D2DFE800F0420B133A01
:103570003E0323A0FCF750FE01210846FFF79EFF03
:1035800036E021A0FCF748FE01210020FFF796FF5E
:103590002EE01FA0FCF740FE04201F4981F83300F5
:1035A0001E4981F833001C480169012000F08AF9A6
:1035B00019484169012000F085F918480169012086
:1035C00000F080F915484169012000F07BF90120E5
:1035D000FFF7E2FE0446214611A0FCF71DFE07E0BE
:1035E00013A0FCF719FE03E013A0FCF715FE00BFC3
:1035F00002E00A20FDF772FBA9E70000100000209E
:103600006B657975700D0A006B6579300D0A0000E5
:103610006B6579310D0A000024AC00205CAC002001
:10362000667265652053544F502025640D0A0000D2
:103630006B6579320D0A00006B6579330D0A000065
:1036400000B5084909684A0007498868002100F068
:1036500067F9044949684A000349C868002100F035
:103660005FF900BD6C3900080000002001200D4901
:1036700081F8340002200C4981F8340003200B4902
:1036800081F8340004200A4981F8340042F21070B5
:103690000449C8620449C8620449C8620449C8624E
:1036A0007047000024AC00205CAC002094AC0020EB
:1036B000CCAC002010B5044694F8350018B9A06AC7
:1036C000401CA06202E0A06A401EA062A06A00281E
:1036D00004DBD4E90A01884200DC10BDA06A00289E
:1036E00008DA0020A062042084F83300204600F0AD
:1036F000ABF80BE0D4E90A01884207DDE06AA0627A
:10370000042084F83300204600F09EF8012005498B
:103710000870216900F0D6F80120616900F0D2F844
:1037200000BFDAE73000002070B5044614F8320F0D
:10373000401C207014F83209022866D1002084F859
:10374000320094F8330090B194F8330004280ED07E
:103750002046FFF7AFFF606A401C60622D4A616837
:1037600092FBF1F000EBD071C1F34F01218694F888
:103770003300052848D2DFE800F04603351C3F003F
:10378000A069001DA061A168606A884210DB012069
:10379000216900F097F80120FFF7FEFD054694F837
:1037A00034102A461CA0FCF737FD022084F83300B1
:1037B0002AE0A069001DA061D4E90810884210DB4E
:1037C0000120616900F07EF80120FFF7E5FD054664
:1037D00094F834102A4616A0FCF71EFD042084F845
:1037E000330011E0E169606A884204DB6069A0612E
:1037F000032084F8330007E0204600F025F800207D
:1038000084F8330000E000BF00BF204600F036F827
:1038100070BD000000093D006D6F746F722564205B
:1038200066726565204143432025640D0A0000004F
:103830006D6F746F72256420667265652044454320
:103840002025640D0A00000010B5044694F83400E9
:10385000012802D002280AD104E000210548FEF721
:10386000CBFB05E000210448FEF7C6FB00E000BFEB
:1038700000BF10BD18AB002088AA00200021002244
:1038800090F83430012B02D0022B14D109E00B4BFD
:103890001B68596A038E0B449AB2084B1B685A6323
:1038A0000AE0074B1B68596A038E0B449AB2044B1B
:1038B0001B685A6300E000BF00BF704718AB0020D0
:1038C00088AA0020F0B5134B53F82030CC1A01B968
:1038D000F0BD114B53F82030A34200D8F8E70F4B4E
:1038E00053F82030B4FBF3F20A4B083353F820307E
:1038F00033F81250002309E00027064E083656F828
:10390000206002EB030C26F81C705B1CAB42F3DB5F
:1039100000BFDDE7000000207439000864390008AA
:1039200030B5034601E003F8011B141EA2F10102A9
:10393000F9D130BD10B50948FFF7B7F800200AE00B
:10394000074901F8200040F2DC51054A02EB8002F1
:103950005180411CC8B20528F2DB10BD16AC002016
:1039600002AC002020000000200000000005000044
:103970008075000000A0000000B00E0002030405E6
:10398000060708090A0B0C0D0E0F101001020000AB
:1039900000000000000001020304060708090000FF
:1039A0000000010203040000C839000800000020E4
:1039B000340000006C010008FC39000834000020CD
:1039C00034B30000880100084000002000000068B7
:1039D00040A0002000B00E680000000000000000C1
:1039E00000000000000000000000000010000000C7
:0C39F000010000000024F40000010000B1
:0400000508000131BD
:00000001FF
