:020000040800F2
:1000000080070020CD0100089B190008EB170008AD
:1000100099190008C9020008F11F0008000000003B
:100020000000000000000000000000009F19000810
:1000300003030008000000009D190008AB19000828
:10004000E7010008E7010008E7010008E7010008F0
:10005000E7010008E7010008E7010008E7010008E0
:10006000E7010008E7010008E7010008E7010008D0
:10007000E7010008E7010008E7010008CD020008D9
:10008000E7010008E7010008E7010008E7010008B0
:10009000E7010008E7010008E7010008E7010008A0
:1000A000E7010008E7010008E7010008E701000890
:1000B000E7010008E7010008E7010008E701000880
:1000C000E7010008E7010008E7010008E701000870
:1000D000E7010008A11F0008E7010008E701000888
:1000E000E7010008E7010008E7010008E701000850
:1000F000E7010008E7010008111A0008E7010008FD
:10010000E7010008E7010008E7010008E70100082F
:10011000E7010008E7010008E7010008E70100081F
:10012000E7010008E7010008E7010008E70100080F
:1001300000F002F800F03AF80AA090E8000C8244BF
:100140008344AAF10107DA4501D100F02FF8AFF29C
:10015000090EBAE80F0013F0010F18BFFB1A43F0A5
:1001600001031847281F0000481F0000103A24BF51
:1001700078C878C1FAD8520724BF30C830C144BF0C
:1001800004680C607047000000230024002500264E
:10019000103A28BF78C1FBD8520728BF30C148BFEA
:1001A0000B6070471FB51FBD10B510BD00F05AF8A9
:1001B0001146FFF7F7FF01F02DFF00F078F803B4C8
:1001C000FFF7F2FF03BC01F024FF0000094880475D
:1001D00009480047FEE7FEE7FEE7FEE7FEE7FEE729
:1001E000FEE7FEE7FEE7FEE704480549054A064B41
:1001F000704700000D1A000831010008800100203E
:1002000080070020800300208003002070474FF00B
:10021000000200B5134694469646203922BFA0E856
:100220000C50A0E80C50B1F12001BFF4F7AF090762
:1002300028BFA0E80C5048BF0CC05DF804EB890053
:1002400028BF40F8042B08BF704748BF20F8022B96
:1002500011F0804F18BF00F8012B704770477047AE
:1002600070477047754600F02BF8AE4605006946AA
:10027000534620F00700854618B020B5FFF7B4FFBD
:10028000BDE820404FF000064FF000074FF0000897
:100290004FF0000B21F00701AC46ACE8C009ACE818
:1002A000C009ACE8C009ACE8C0098D46704710B57C
:1002B0000446AFF300802046BDE81040FFF77FBF43
:1002C000004870471C010020FEE70000014800F0D4
:1002D000D7B80000A000002030B590F840500124AD
:1002E000AC40C56B6C60046863604368102B0368A6
:1002F00003D099600068C26030BD9A600068C16038
:1003000030BD704772B6FEE710B590F8211000229C
:10031000022905D00421816380F82020012010BD2E
:1003200001680B6823F00E030B6001680B6823F073
:1003300001030B6090F84030C46B012101FA03F314
:10034000636080F8211080F82020104610BD000066
:100350002DE9F05F90F821100024022903D0042138
:100360008163012485E001680A6822F00E020A60B8
:1003700001680A6822F001020A603F4E3E4FB21542
:10038000DFF8F4C0DFF8F090DFF8ECA0DFF8E8B0B9
:10039000DFF8E4E00168783F13011502ACF1640C6A
:1003A000A9F15009AAF13C0AABF1280BAEF1140EE9
:1003B0004FF48018B14227D9B9420ED0614512D00E
:1003C00049451DD0514518D0594518D0714501D126
:1003D000424615E0294EB14201D1012210E0274EDC
:1003E0001436B14201D110220AE0244E2836B1421F
:1003F00006D0224A3C32914201D11A4600E02A46F8
:100400001E49091F0A602BE0B94213D0614517D07D
:10041000494522D051451DD059451DD0714501D1C6
:1004200042461AE0B14202D14FF0807215E0134EFD
:10043000B14201D1012210E0104E1436B14201D177
:1004400010220AE00D4E2836B14206D00B4A3C324B
:10045000914201D11A4600E02A46074980394A6094
:10046000012180F82110002180F82010416B01B19A
:1004700088472046BDE8F09F800002400804024003
:100480002DE9F05FC16B0A6801680B68046C4FF0DE
:10049000040808FA04F8844D844E854FDFF814C22E
:1004A000DFF81492DFF814A2DFF814B2DFF814E2D8
:1004B00018EA020F65D05FEA437862D50A689206AF
:1004C00003D40A6822F004020A60DFF8F0814FF4D6
:1004D0008062016808F1140813011402414524D90F
:1004E000A9420DD0B1420FD0B9421AD0614515D002
:1004F000494515D0514501D1120312E0594501D1AA
:1005000004220EE0714501D140220AE06D4D143500
:10051000A94206D06B4A2832914201D11A4600E026
:1005200022466749091F0A6029E0A94213D0B14257
:1005300015D0B94220D061451BD049451BD051454B
:1005400002D14FF4800217E0414502D14FF08062A2
:1005500012E0594501D104220EE0714501D140223B
:100560000AE0584D1435A94206D0564A2832914225
:1005700001D11A4600E022464B4908394A60C16A57
:1005800071E04FF0020808FA04F818EA020F70D080
:100590005FEA83786DD50A68920606D40A6822F06D
:1005A0000A020A60012180F82110DFF810814FF45F
:1005B0000072016808F1140813011402414524D99E
:1005C000A9420DD0B1420FD0B9421AD0614515D021
:1005D000494515D0514501D1120312E0594501D1C9
:1005E00002220EE0714501D120220AE0354D14357A
:1005F000A94206D0334A2832914201D11A4600E07E
:1006000022462F49091F0A6029E0A94213D0B142AE
:1006100015D0B94220D061451BD049451BD051456A
:1006200002D14FF4001217E0414502D14FF00072A1
:1006300012E0594501D102220EE0714501D120227C
:100640000AE0204D1435A94206D01E4A28329142B4
:1006500001D11A4600E02246134908394A600021B8
:1006600080F82010816A00291CD0BDE8F05F08479F
:10067000FFE70825A540154214D01A0712D50A68CD
:1006800022F00E020A6090F84020C36B012101FAAB
:1006900002F25A60816380F82110002180F8201056
:1006A000016BE0E7BDE8F09F080002401C0002403B
:1006B0003000024044000240580002406C000240FA
:1006C000080402401C04024030B560B11A4B0268B5
:1006D00014219A4209D2194B1344B3FBF1F189005A
:1006E000016417490AE0012030BD134B5B421344FB
:1006F000B3FBF1F1890001640F490839C16302219C
:1007000080F82110136843F6F0718B43F0E901146F
:100710002143D0E902452C43214304692143446924
:10072000214384692143194311600021416301225F
:1007300042770177084630BD08040240F8FFFDBF4C
:100740000000024070B5044690F820000025012802
:100750000CD0012084F8200094F821600020012EA4
:1007600006D084F820000225284670BD022070BD06
:10077000022684F82160A0632068066826F001063E
:1007800006602046FFF7A8FDE06A0028206801689F
:1007900002D041F00E0106E021F004010160206862
:1007A000016841F00A0101602068016841F001011F
:1007B0000160D9E72DE9F84FDFF8C8910024A9F1CD
:1007C000040B23460F2709F1040AABF1040ED1E014
:1007D0000125A54006EA0502AA4276D1DFF8A8C1A4
:1007E0004E68A6EB0C0866452BD00DDC032E34D0EA
:1007F00005DC36B3012E19D0022E2FD11BE0112EAD
:1008000016D0122E2AD119E0B8F5881F19D006DCAF
:10081000B8F5803F15D0B8F5801F1FD111E0B8F5AD
:10082000001F0ED0B8F5041F18D10AE0CB6815E000
:10083000CB681B1D12E0CB6808330FE0CB680C338C
:100840000CE08B682BB1012B4FF0080303D04561FE
:1008500004E0042302E0056100E00023FF2A01D840
:10086000064601E000F104064FEA840501D9A5F12E
:100870002005D6F8008007FA05FC28EA0C0803FAE0
:1008800005F548EA0508C6F800804D68ED0070D50A
:100890003E4DAE6946F00106AE61AD6924F0030637
:1008A00005F0010500953A4D06EB050CDCF8085003
:1008B000A607360F07FA06F825EA0805DFF8D48000
:1008C000404503D14FF0000825E052E0DFF8C88032
:1008D000404502D14FF001081DE0DFF8C0804045DF
:1008E00002D14FF0020816E0DFF8B480404502D193
:1008F0004FF003080FE0DFF8AC80404502D14FF025
:10090000040808E0DFF8A080404502D14FF0050858
:1009100001E04FF0060808FA06F848EA0508CCF8A6
:1009200008804D68D9F80060ED024D4601D51643A8
:1009300000E096432E604D68DAF80060AD0255463F
:1009400001D5164300E096432E604D68DBF8006049
:10095000AD035D4601D5164300E096432E604D6819
:10096000DEF80060ED03754601D5164300E09643BE
:100970002E60641C0A681646E2407FF429AFBDE889
:10098000F88F000008040140000011100010024020
:100990000000014000080140000C0140001001402F
:1009A0000014014000180140001C01400AB101611F
:1009B00070470904FBE700000148806870470000A9
:1009C000000000200248816802781144816070476D
:1009D00000000020074810B5016841F010010160D7
:1009E000032000F075F80F2000F006F800F024F85E
:1009F000002010BD0020024070B50D4D04464FF49C
:100A00007A712878B1FBF0F00A490968B1FBF0F07F
:100A100000F0DCFA48B9102C07D200222146501E03
:100A200000F036F800206C6070BD012070BD000041
:100A3000000000200C0000200C4808B5816941F03E
:100A400001018161816901F001010091C16941F0F9
:100A50008051C161C06900F0805000900448416835
:100A600021F0E06141F00071416008BD00100240DA
:100A700000000140002809DB00F01F020121914025
:100A80004009800000F1E020C0F80011704700002C
:100A9000F0B40E4B1B680C46C3F30223C3F10705E9
:100AA000042D00D90425191D072901D2002300E0D7
:100AB000DB1E012606FA05F1491E214099409E40A1
:100AC000761E16403143F0BC01F093BA0CED00E005
:100AD000064900F0070208684FF6FF03184040EA95
:100AE0000220034A10430860704700000CED00E04C
:100AF0000000FA052DE9F0470F46050061D0434E8E
:100B0000306800F00700B84209D2306820F00700D2
:100B100038433060306800F00700B84251D128688F
:100B20003B4C810712D5400703D5606840F4E06074
:100B300060602878000703D5606840F4605060600A
:100B40006068A96820F0F000084360602878C0075A
:100B500028D06868012810D02168022810D08907A1
:100B600000292EDA616821F0030101436160FFF77B
:100B700023FF804641F288390DE021688903EFE7C1
:100B80008901EDE7FFF718FFA0EB0801494502D9FD
:100B90000320BDE8F0876068696800F00C00B0EBE6
:100BA000810FEFD1306800F00700B8420BD93068F0
:100BB00020F0070038433060306800F00700B8428A
:100BC00001D00120E5E72878400705D56068E9688D
:100BD00020F4E060084360602878000706D560686C
:100BE000296920F4605040EAC100606000F038F8E4
:100BF0006168084AC1F30311515CC84006490860A6
:100C000006480068FFF7F8FE0020C2E70020024017
:100C100000100240722000080C0000200400002098
:100C20000448054900684968044AC1F30221515C3F
:100C3000C84070470C0000200010024082200008CD
:100C40000448054900684968044AC1F3C221515C5F
:100C5000C84070470C0000200010024082200008AD
:100C60000E4A51680E4801F00C03042B11D0082BDA
:100C70000FD10C48C1F38343C903C05C0AD5516846
:100C8000084AC1F34041921E515C054A5043B0FBF3
:100C9000F1F07047044948437047000000100240DB
:100CA00000127A006220000800093D002DE9F84F8B
:100CB000040070D02078C04DC00749D06868C0F3E8
:100CC0008100012807D06868C0F38100022809D19B
:100CD0006868C00306D52868800339D56068002895
:100CE000E7D035E06068B0F5803F0BD010B1B0F5CB
:100CF000A02F11D0286820F480302860286820F4C4
:100D0000802002E0286840F480302860606890B15C
:100D1000FFF752FE06460AE0286840F4802028606B
:100D2000F0E700BFFFF748FE801B642873D82868EF
:100D30008003F7D50CE0FFF73FFE064605E000BF55
:100D4000FFF73AFE801B6428F0D828688003F7D4A8
:100D500020789A4E80074FF001094FF0000839D5EE
:100D6000686810F00C0F07D06868C0F38100022893
:100D700009D16868C00306D42868800714D52069A3
:100D8000012808D110E02069B0B1C6F80090FFF743
:100D900013FE074605E00AE1FFF70EFEC01B02281E
:100DA000C4D828688007F7D52868616920F0F80062
:100DB00040EAC10028600DE0C6F80080FFF7FCFDA6
:100DC000074604E0FFF7F8FDC01B022823D8286877
:100DD0008007F7D4207800072CD57948A169D9B1CC
:100DE000C0F80090FFF7E8FD074604E0FFF7E4FDD8
:100DF000C01B02280FD8686A8007F7D571484FF4E6
:100E0000FA510068B0FBF1F0009000BF0098411E5D
:100E10000091FAD20EE080E0C0F80080FFF7CCFD30
:100E2000074604E0FFF7C8FDC01B022875D8686AB2
:100E30008007F7D42078400760D5E8690027C00014
:100E400008D4E86940F08050E861E869012700F0C3
:100E5000805000905C480168C90513D4016883463E
:100E600041F480710160FFF7A7FD824606E000BFF4
:100E7000FFF7A2FDA0EB0A0064284ED8DBF80000C3
:100E8000C005F5D5E06801280AD008B1052813D0BF
:100E9000286A20F001002862286A20F0040002E09D
:100EA000286A40F001002862E06841F2883B98B16E
:100EB000FFF782FD82460BE0286A40F004002862BA
:100EC000EEE700BFFFF778FDA0EB0A0159455AD8BD
:100ED000286A8007F6D50CE0FFF76EFD824605E034
:100EE000FFF76AFDA0EB0A0159454CD8286A800734
:100EF000F6D41FB1E86920F08050E861E06988B35A
:100F00006968C1F38101022944D00228C6F86080D3
:100F100004D0FFF751FD044638E034E0FFF74CFD04
:100F2000074604E0FFF748FDC01B02282BD82868BD
:100F30008001F7D4206AB0F5803F05D16868A168C8
:100F400020F4003008436860D4E908010843696868
:100F500021F4741108436860C6F86090FFF72CFD17
:100F6000044606E025E000BFFFF726FD001B02282F
:100F700009D828688001F7D51BE000BFFFF71CFDEA
:100F8000001B022802D90320BDE8F88F28688001E1
:100F9000F4D40EE00128F7D06868226A00F48031AA
:100FA000914204D1616A00F47010884201D001209E
:100FB000EAE70020E8E7000000100240000042429B
:100FC000800442420C0000200070004010B5401E1A
:100FD000B0F1807F01D3012010BD4FF0E0246061AB
:100FE0000F21601701F005F80020A06107202061A3
:100FF000002010BD7047704710B590F83C20012AC2
:1010000022D0012280F83C20CA688C6822F4407209
:1010100022434C6822F4806222430C6822F400626E
:1010200022430C6922F4805222434C6922F400527C
:101030002243C969002322F480420A4301684A64BA
:1010400080F83C30002010BD022010BD70B590F833
:101050003C20012A2CD0012480F83C40022280F858
:101060003D2003685A689D6822F070060A68324382
:101070005A60104B02689A420ED00F4B9A420BD026
:10108000B2F1804F08D00D4B9A4205D00C4B9A42DA
:1010900002D00C4B9A4204D1496825F080031943D1
:1010A000916080F83D40002180F83C10084670BDFA
:1010B000022070BD002C01400034014000040040BB
:1010C00000080040000C004090F83D10012901D0BC
:1010D00001207047022180F83D1000680E498842C7
:1010E0000ED00E4988420BD0B0F1804F08D00C4989
:1010F000884205D00B49884202D00B49884204D16E
:10110000816801F00701062903D0016841F001015F
:101110000160002070470000002C014000340140B5
:101120000004004000080040000C0040704770B50B
:101130000446006801694FF00005C943890715D4CA
:10114000C168C943890711D4E91E016101202077D4
:10115000206880698007204602D0FFF7E7FF04E09F
:1011600000F0E7F8204600F031F9257720680169A2
:10117000C943490717D4C168C943490713D46FF05D
:1011800004010161022020772068806910F4407F0B
:10119000204602D0FFF7CAFF04E000F0CAF820465C
:1011A00000F014F9257720680169C943090716D4AE
:1011B000C168C943090712D46FF008010161042016
:1011C00020772068C0698007204602D0FFF7AEFF75
:1011D00004E000F0AEF8204600F0F8F8257720682B
:1011E0000169C943C90617D4C168C943C90613D4E4
:1011F0006FF010010161082020772068C06910F4A9
:10120000407F204602D0FFF791FF04E000F091F804
:10121000204600F0DBF8257720680169C943C9073B
:1012200008D1C168C943C90704D1891E016120469C
:1012300000F0CDF820680169C943090609D4C168E6
:10124000C943090605D46FF0800101612046FFF70C
:10125000D1FE20680169C943490609D4C168C94360
:10126000490605D46FF040010161204600F0B0F856
:1012700020680169C94389060BD4C168C94389063E
:1012800007D46FF0200101612046BDE87040FFF7F0
:10129000B2BE70BD00B585B00021009101910291F0
:1012A000039100680B49884212D10B48816941F0D3
:1012B000100181618069694600F0100004904020AF
:1012C000009002200190032003900448FFF772FA77
:1012D00005B000BD00340140001002400010014084
:1012E00070B5044690F83C00002501280FD001207D
:1012F00084F83C006AB1042A0FD0082A11D00C2AC5
:1013000013D00125002084F83C00284670BD02203F
:1013100070BD206800F0C8FBF4E7206800F0F4FB23
:10132000F0E7206800F026FCECE7206800F056FCAF
:10133000E8E7704710B5040003D094F83D0010B101
:1013400007E0012010BD002084F83C00204600F09A
:101350001FF8022084F83D00211D206800F05EFB8C
:10136000012084F8460084F83E0084F83F0084F8A9
:10137000400084F8410084F8420084F8430084F877
:10138000440084F8450084F83D00002010BD0000B2
:1013900008B500680B49884212D10B48816941F4B5
:1013A000005181618069002200F4005000901146D4
:1013B0002E20FFF76DFBBDE808402E20FFF75ABB3B
:1013C00008BD000000340140001002407047704723
:1013D0007047704710B504460068406994F84110A2
:1013E000C0F3C010212911D180B12068143050E819
:1013F000001F21F0800140E80012002AF5D1A06B07
:1014000008B1FEF781FF204600F0B6FC2068406975
:1014100094F84210C0F38010222911D180B12068C5
:10142000143050E8001F21F0400140E80012002A6B
:10143000F5D1E06B08B1FEF767FF204600F075FCC0
:10144000002010BD70470000F8B501680446086828
:10145000CA684B6910F00F0F4FF0000559D003F028
:10146000010602F49077374365D0C10705D0D10556
:1014700003D5616C41F001016164410705D5D907CD
:1014800003D0616C41F002016164810705D5D90781
:1014900003D0616C41F004016164010707D502F0DB
:1014A0002001314303D0616C41F008016164616C3B
:1014B00000293AD0800604D5900602D5204600F0D7
:1014C00069FC20684069616CC0F38010090700D492
:1014D00060B3204600F029FC20684069400621D511
:1014E0002068143050E8001F21F0400140E800124D
:1014F000002AF5D1E06BA8B16D494163E06BFEF7BE
:1015000027FF002811D0E06B416B01B0BDE8F0402F
:10151000084783060FD593060DD52046BDE8F84051
:1015200000F038BC2046FFF78DFFF8BD2046FFF7DE
:1015300089FF6564F8BD266B2023012E7CD1C60689
:101540007AD5D60678D508684868009048694FF083
:101550000206400640D5E16B086840680004000CB4
:10156000E8D0A28D8242E5D9E085886920282DD077
:1015700020680C3050E8001F21F4807140E8001210
:10158000002AF5D12068143050E8001F21F0010135
:1015900040E80012002AF5D12068143050E8001FFE
:1015A00021F0400140E80012002AF5D184F84230D1
:1015B000256320680C3050E8001F21F0100140E83E
:1015C0000012002AF5D1E06BFEF79EFE6663A08D47
:1015D000E18D401A81B22AE0A08DE18D401A81B2DE
:1015E000E08D0028A6D00029A4D022680C3252E851
:1015F000000F20F4907042E80007002FF5D120681A
:10160000143050E8002F22F0010240E80027002F9C
:10161000F5D184F84230256320680C3050E8002F63
:1016200022F0100240E80023002BF5D1666320462B
:10163000FFF7CFFEF8BDFFE705062BD5150629D528
:1016400094F841002128F5D1A068B0F5805F01D160
:101650002069B0B1206A411C21622168007848608D
:10166000E08C401E0004000CE084E3D12068C168D7
:1016700021F08001C1602068C16841F04001C16073
:10168000D8E7206A0088C0F308004860206A801C00
:101690002062E5E74006CDD55006CBD5CA68204686
:1016A00022F04002CA6084F8413000F09DF8C1E7A2
:1016B0002D1C000870B5040004D094F841000025EA
:1016C00010B106E0012070BD84F84050204600F0C3
:1016D00023F8242084F841002068C16821F40051D7
:1016E000C160204600F0B8FB2068016921F49041F8
:1016F00001612068416921F02A0141612068C168C7
:1017000041F40051C1606564202084F8410084F8F0
:1017100042006563002070BD70B586B000250646A6
:1017200000950195029503950068224988423FD1B2
:101730002149886940F480408861886900F48040CC
:101740000490886940F00400886188691B4C00F0AF
:10175000040004904815009002200190032003909B
:1017600069462046FFF726F82015CDE900056946B1
:1017700020460295FFF71EF8124C1148C4E90005F7
:101780008020C4E90250256140016561C4E906502A
:101790002046FEF799FF08B1FEF7B4FDF46300227E
:1017A000032125206662FFF773F92520FFF762F910
:1017B00006B070BD00380140001002400008014032
:1017C00058000240A000002090F84230202B01D0A9
:1017D0000220704721B11AB10023036300F098BBC7
:1017E00001207047704770477047FEE7094808B509
:1017F000416941F0010141614069002200F00100AE
:10180000009004210F20FFF743F9BDE808400F20A6
:10181000FFF730B90010024030B585B000241A48F7
:101820000094019402940394816941F080018161E4
:10183000816901F080010491816941F010018161A9
:10184000816901F010010491816941F00401816115
:1018500080690E4D00F004000490002240212846CB
:10186000FFF7A4F8012280212846FFF79FF8C02047
:1018700000900120CDE90104032003906946284629
:10188000FEF798FF05B030BD00100240001C01407B
:1018900010B592B000240F941C2168461094FEF7F6
:1018A000B6FC202107A8FEF7B2FC264824490160B7
:1018B0001121C0E901144FF47A71C0E903144461A5
:1018C0008461FFF737FD08B1FEF71CFD0F940FA9E7
:1018D0001C481094FFF7BAFB08B1FEF713FD302047
:1018E00000904FF4FA70CDE9010403940494059438
:1018F0000022694613480694FFF7F2FC08B1FEF790
:1019000001FD0794089409944FF400500A94CDE91E
:101910000B4007A90B480E94FFF76EFB08B1FEF7CA
:10192000F1FC08200390002269460648FFF7D8FC26
:101930000448FFF7C9FB0348FFF7ACFC12B010BD29
:10194000003401401000002010B5114C0F480C214C
:1019500020604FF4165060600020A060E060C4E991
:101960000401A061E0612046FFF7A4FE08B1FEF784
:10197000C9FC2068C16841F01001C160BDE8104099
:101980000A2204490248FFF71FBF00000038014047
:101990005800002010010020FEE7FEE77047704766
:1019A00000210160416081607047FFF70BB830B5DE
:1019B0008FB028216846FEF72AFC14210AA8FEF7FA
:1019C00026FC01210804CDE9001000240294022520
:1019D0000491CDE907504FF4E01009906846FFF7F5
:1019E00065F908B172B6FEE70F20CDE90A054FF49C
:1019F0008060CDE90C4002210AA80E94FFF77AF826
:101A0000002801D072B6FEE70FB030BD704700006D
:101A10000148FFF78CBB000010000020F0B5026801
:101A20001C4B1D4D1D4E1E4F1E4C4FF0804C9842BE
:101A300009D0A04207D0604505D0A84203D0B042EB
:101A400001D0B84204D122F0700E4A6842EA0E0278
:101A5000984209D0A04207D0604505D0A84203D0E3
:101A6000B04201D0B84203D122F44075CA682A437B
:101A70004D6922F080022A4302608A68C2620A68C5
:101A80008262984201D0A04201D10969016301211B
:101A90004161F0BD002C01400004004000080040FE
:101AA000000C004000340140F0B5036A026A22F0E5
:101AB0000102026242688469124E24F073050C68C8
:101AC0002C4323F002058B682B430D4DA84201D017
:101AD000B04205D123F00807CB683B4323F0040351
:101AE000A84201D0B04205D14D6922F4407215439D
:101AF0008A692A4342608461496841630362F0BD98
:101B0000002C014000340140F0B5026A036A23F062
:101B100010030362436884690D6824F4E64444EAD0
:101B200005248D6822F0200242EA05120F4D104E66
:101B3000A84201D0B04206D1CF6822F0800242EA2A
:101B4000071222F04002A84201D0B04207D14D69ED
:101B500023F4406343EA85038D6943EA85034360C8
:101B60008461496881630262F0BD0000002C01407D
:101B700000340140F0B5026A036A23F48073036203
:101B80004368C46922F4007224F073050C68124E95
:101B90002C438D6842EA05220E4DA84201D0B04286
:101BA00006D1CF6822F4006242EA072222F4806262
:101BB000A84201D0B04207D14D6923F4405343EA13
:101BC00005138D6943EA05134360C4614968C16325
:101BD0000262F0BD002C01400034014030B5046ABF
:101BE000026A22F4805202624268C3690D6823F4DB
:101BF000E64343EA05238D6824F4005444EA05349F
:101C0000084DA84202D0084DA84204D14D6922F4E3
:101C1000804242EA85124260C361496801640462FD
:101C200030BD0000002C01400034014010B5406A76
:101C30000021C185C184FFF705FC10BD70B5446A61
:101C40002068406994F84110C0F3C0100025212994
:101C500004D118B1E584204600F08EF82068406970
:101C600094F84210C0F38010222904D118B1E58500
:101C7000204600F05AF8606C40F010006064204686
:101C8000FFF7E0FB70BD10B50146406A09680968BE
:101C90004FF0000289062ED4C28501680C3151E84C
:101CA000003F23F4807341E80034002CF5D1016833
:101CB000143151E8003F23F0010341E80034002CC7
:101CC000F5D10168143151E8003F23F0400341E8A9
:101CD0000034002CF5D1202180F84210016B01293D
:101CE00009D101680C3151E8003F23F0100341E8AD
:101CF0000034002CF5D14263016B012902D0FFF7BB
:101D000071FD10BD818DFFF764FB10BD10B5406AF9
:101D100001214163016B012902D0FFF764FD10BD71
:101D2000818D4908FFF755FB10BD01680C3151E862
:101D3000002F22F4907241E80023002BF5D10168B6
:101D4000143151E8002F22F0010241E80023002B5A
:101D5000F5D1016B012909D101680C3151E8002F3F
:101D600022F0100241E80023002BF5D1202180F859
:101D7000421000210163704701680C3151E8002FC7
:101D800022F0C00241E80023002BF5D1202180F889
:101D90004110704708B590F84210222901D0022066
:101DA00008BD82684FF480539A4201D1016921B184
:101DB000816A9A421BD04AB10AE00268816A52687D
:101DC000C2F308020A80816A891C08E0026972B1C4
:101DD0000268526802F07F020A70816A491C8162BF
:101DE000C18D491E0904090CC18503D01BE002689E
:101DF0005268F1E70168CA6822F02002CA600168EF
:101E0000CA6822F48072CA6001684A6922F001023D
:101E10004A61202180F8421000214163026B012AAF
:101E200003D0FFF7DFFC002008BD016301680C311F
:101E300051E8002F22F0100241E80023002BF5D1D9
:101E400001680A68D20602D50A6849680091818D46
:101E5000FFF7BFFAE7E7000070B5044600680169C4
:101E6000E26821F44051114301612169A0680843EF
:101E7000616908432168CA6841F20C639A430243CE
:101E8000CA6020684169A26921F44071114341612F
:101E90001E492068884202D1FEF7D2FE01E0FEF71B
:101EA000BFFE00EBC00101EB0012606864218000FE
:101EB000B2FBF0F3B3FBF1F36FF018067343B2FB20
:101EC000F0F5B2FBF0F605EB8305322303EB0515C5
:101ED000B5FBF1F5B6FBF1F605F0F00505EB0615DF
:101EE000B2FBF0F6B2FBF0F0B0FBF1F06FF01802CD
:101EF000504306EB800003EB0010B0FBF1F02168CB
:101F000000F00F002844886070BD000000380140D8
:101F100038B581620446828500201346606422221F
:101F200084F84220E56B1B4AAA62E56B1A4AEA6212
:101F3000E56B1A4A2A63E26B50630A462168E06B3C
:101F4000091DFEF7FFFB20680168406800902069CA
:101F500048B120680C3050E8001F41F4807140E81F
:101F60000012002AF5D12068143050E8001F41F01B
:101F7000010140E80012002AF5D12068143050E831
:101F8000001F41F0400140E80012002AF5D1002076
:101F900038BD0000871C00080D1D00083D1C00080E
:101FA00038B51048006801680F4CC1F3001179B1D1
:101FB000016841680091016840680A48FFF70AFA21
:101FC0000A4800684068C0F10A0060700120207073
:101FD0000A22A11C0348FFF7F7FBBDE8384001487F
:101FE000FFF732BA580000200E010020A0000020A8
:101FF000FEE70907090E002804DB00F1E02080F865
:102000000014704700F00F0000F1E02080F8141D6C
:1020100070477047FEF7DEFCFFF7C9FCFFF7FCFBDB
:10202000FFF7E4FBFFF790FCFFF732FC00F002F84B
:10203000FEE7000010B50848FFF7B2FC0749002092
:1020400040F2DC5201F8200001EB8003401CC0B2DA
:102050005A800528F6D310BD0E010020FA0000209A
:10206000010202030405060708090A0B0C0D0E0FF6
:102070001010000000000000000001020304060729
:10208000080900000000010203040000AC20000861
:1020900000000020100000006C010008BC200008B7
:1020A00010000020700700008801000801000000F7
:0C20B00010000000000000000024F400FC
:0400000508000131BD
:00000001FF
